{
  "_format": "hh-sol-artifact-1",
  "contractName": "old_NFTMarketplace",
  "sourceName": "contracts/old_NFTMarketplace.sol",
  "abi": [
    {
      "inputs": [],
      "stateMutability": "nonpayable",
      "type": "constructor"
    },
    {
      "anonymous": false,
      "inputs": [
        {
          "indexed": false,
          "internalType": "uint256",
          "name": "tokeId",
          "type": "uint256"
        },
        {
          "indexed": false,
          "internalType": "address payable",
          "name": "owner",
          "type": "address"
        },
        {
          "indexed": false,
          "internalType": "address payable",
          "name": "seller",
          "type": "address"
        },
        {
          "indexed": false,
          "internalType": "uint256",
          "name": "price",
          "type": "uint256"
        },
        {
          "indexed": false,
          "internalType": "bool",
          "name": "currentlyListed",
          "type": "bool"
        }
      ],
      "name": "TokenListedSuccess",
      "type": "event"
    },
    {
      "inputs": [
        {
          "internalType": "uint256",
          "name": "tokenId",
          "type": "uint256"
        },
        {
          "internalType": "uint256",
          "name": "price",
          "type": "uint256"
        },
        {
          "internalType": "contract NFTCollection",
          "name": "collection",
          "type": "address"
        }
      ],
      "name": "ListToken",
      "outputs": [],
      "stateMutability": "payable",
      "type": "function"
    },
    {
      "inputs": [
        {
          "internalType": "uint256",
          "name": "new_listing_fee",
          "type": "uint256"
        }
      ],
      "name": "change_listing_fee",
      "outputs": [],
      "stateMutability": "nonpayable",
      "type": "function"
    },
    {
      "inputs": [
        {
          "internalType": "uint256",
          "name": "tokenId",
          "type": "uint256"
        },
        {
          "internalType": "contract NFTCollection",
          "name": "collection",
          "type": "address"
        }
      ],
      "name": "executeSale",
      "outputs": [],
      "stateMutability": "payable",
      "type": "function"
    },
    {
      "inputs": [],
      "name": "getAllNFTs",
      "outputs": [
        {
          "components": [
            {
              "internalType": "uint256",
              "name": "tokeId",
              "type": "uint256"
            },
            {
              "internalType": "address payable",
              "name": "owner",
              "type": "address"
            },
            {
              "internalType": "address payable",
              "name": "seller",
              "type": "address"
            },
            {
              "internalType": "uint256",
              "name": "price",
              "type": "uint256"
            },
            {
              "internalType": "bool",
              "name": "currentlyListed",
              "type": "bool"
            }
          ],
          "internalType": "struct old_NFTMarketplace.ListedToken[]",
          "name": "",
          "type": "tuple[]"
        }
      ],
      "stateMutability": "view",
      "type": "function"
    },
    {
      "inputs": [],
      "name": "getCurrentToken",
      "outputs": [
        {
          "internalType": "uint256",
          "name": "",
          "type": "uint256"
        }
      ],
      "stateMutability": "view",
      "type": "function"
    },
    {
      "inputs": [],
      "name": "getLatestIdToListedToken",
      "outputs": [
        {
          "components": [
            {
              "internalType": "uint256",
              "name": "tokeId",
              "type": "uint256"
            },
            {
              "internalType": "address payable",
              "name": "owner",
              "type": "address"
            },
            {
              "internalType": "address payable",
              "name": "seller",
              "type": "address"
            },
            {
              "internalType": "uint256",
              "name": "price",
              "type": "uint256"
            },
            {
              "internalType": "bool",
              "name": "currentlyListed",
              "type": "bool"
            }
          ],
          "internalType": "struct old_NFTMarketplace.ListedToken",
          "name": "",
          "type": "tuple"
        }
      ],
      "stateMutability": "view",
      "type": "function"
    },
    {
      "inputs": [],
      "name": "getListPrice",
      "outputs": [
        {
          "internalType": "uint256",
          "name": "",
          "type": "uint256"
        }
      ],
      "stateMutability": "view",
      "type": "function"
    },
    {
      "inputs": [
        {
          "internalType": "uint256",
          "name": "tokenId",
          "type": "uint256"
        }
      ],
      "name": "getListedTokenById",
      "outputs": [
        {
          "components": [
            {
              "internalType": "uint256",
              "name": "tokeId",
              "type": "uint256"
            },
            {
              "internalType": "address payable",
              "name": "owner",
              "type": "address"
            },
            {
              "internalType": "address payable",
              "name": "seller",
              "type": "address"
            },
            {
              "internalType": "uint256",
              "name": "price",
              "type": "uint256"
            },
            {
              "internalType": "bool",
              "name": "currentlyListed",
              "type": "bool"
            }
          ],
          "internalType": "struct old_NFTMarketplace.ListedToken",
          "name": "",
          "type": "tuple"
        }
      ],
      "stateMutability": "view",
      "type": "function"
    },
    {
      "inputs": [],
      "name": "getMyNFTs",
      "outputs": [
        {
          "components": [
            {
              "internalType": "uint256",
              "name": "tokeId",
              "type": "uint256"
            },
            {
              "internalType": "address payable",
              "name": "owner",
              "type": "address"
            },
            {
              "internalType": "address payable",
              "name": "seller",
              "type": "address"
            },
            {
              "internalType": "uint256",
              "name": "price",
              "type": "uint256"
            },
            {
              "internalType": "bool",
              "name": "currentlyListed",
              "type": "bool"
            }
          ],
          "internalType": "struct old_NFTMarketplace.ListedToken[]",
          "name": "",
          "type": "tuple[]"
        }
      ],
      "stateMutability": "view",
      "type": "function"
    },
    {
      "inputs": [],
      "name": "listPrice",
      "outputs": [
        {
          "internalType": "uint256",
          "name": "",
          "type": "uint256"
        }
      ],
      "stateMutability": "view",
      "type": "function"
    }
  ],
  "bytecode": "0x6080604052662386f26fc1000060035534801561001b57600080fd5b5033600260006101000a81548173ffffffffffffffffffffffffffffffffffffffff021916908373ffffffffffffffffffffffffffffffffffffffff1602179055506117808061006c6000396000f3fe6080604052600436106100915760003560e01c8063d1a88ae511610059578063d1a88ae51461015c578063e0391b0914610187578063eda187dd146101b2578063ef2d1746146101ef578063fd4f0b4f1461021a57610091565b8063629cb2e41461009657806368f1945f146100c15780636eb588d9146100ec578063abb8ddc914610117578063b727faf014610140575b600080fd5b3480156100a257600080fd5b506100ab610236565b6040516100b89190611147565b60405180910390f35b3480156100cd57600080fd5b506100d66105d7565b6040516100e39190611178565b60405180910390f35b3480156100f857600080fd5b506101016105e1565b60405161010e9190611178565b60405180910390f35b34801561012357600080fd5b5061013e600480360381019061013991906111c4565b6105e7565b005b61015a60048036038101906101559190611241565b610681565b005b34801561016857600080fd5b50610171610903565b60405161017e91906112fc565b60405180910390f35b34801561019357600080fd5b5061019c610a18565b6040516101a99190611147565b60405180910390f35b3480156101be57600080fd5b506101d960048036038101906101d491906111c4565b610bd4565b6040516101e691906112fc565b60405180910390f35b3480156101fb57600080fd5b50610204610cdc565b6040516102119190611178565b60405180910390f35b610234600480360381019061022f9190611317565b610ced565b005b606060006102446000610f3a565b905060008060005b8381101561034d573373ffffffffffffffffffffffffffffffffffffffff166004600083815260200190815260200160002060010160009054906101000a900473ffffffffffffffffffffffffffffffffffffffff1673ffffffffffffffffffffffffffffffffffffffff16148061032557503373ffffffffffffffffffffffffffffffffffffffff166004600083815260200190815260200160002060020160009054906101000a900473ffffffffffffffffffffffffffffffffffffffff1673ffffffffffffffffffffffffffffffffffffffff16145b1561033a576001836103379190611386565b92505b8080610345906113ba565b91505061024c565b5060008267ffffffffffffffff81111561036a57610369611402565b5b6040519080825280602002602001820160405280156103a357816020015b610390610f5e565b8152602001906001900390816103885790505b50905060005b848110156105cc573373ffffffffffffffffffffffffffffffffffffffff166004600083815260200190815260200160002060010160009054906101000a900473ffffffffffffffffffffffffffffffffffffffff1673ffffffffffffffffffffffffffffffffffffffff16148061048257503373ffffffffffffffffffffffffffffffffffffffff166004600083815260200190815260200160002060020160009054906101000a900473ffffffffffffffffffffffffffffffffffffffff1673ffffffffffffffffffffffffffffffffffffffff16145b156105b95760008190506000600460008381526020019081526020016000209050806040518060a0016040529081600082015481526020016001820160009054906101000a900473ffffffffffffffffffffffffffffffffffffffff1673ffffffffffffffffffffffffffffffffffffffff1673ffffffffffffffffffffffffffffffffffffffff1681526020016002820160009054906101000a900473ffffffffffffffffffffffffffffffffffffffff1673ffffffffffffffffffffffffffffffffffffffff1673ffffffffffffffffffffffffffffffffffffffff168152602001600382015481526020016004820160009054906101000a900460ff16151515158152505084868151811061059d5761059c611431565b5b602002602001018190525084806105b3906113ba565b95505050505b80806105c4906113ba565b9150506103a9565b508094505050505090565b6000600354905090565b60035481565b600260009054906101000a900473ffffffffffffffffffffffffffffffffffffffff1673ffffffffffffffffffffffffffffffffffffffff163373ffffffffffffffffffffffffffffffffffffffff1614610677576040517f08c379a000000000000000000000000000000000000000000000000000000000815260040161066e906114e3565b60405180910390fd5b8060038190555050565b60035434146106c5576040517f08c379a00000000000000000000000000000000000000000000000000000000081526004016106bc9061154f565b60405180910390fd5b60008211610708576040517f08c379a00000000000000000000000000000000000000000000000000000000081526004016106ff906115e1565b60405180910390fd5b60006107146000610f3a565b90506040518060a001604052808581526020013073ffffffffffffffffffffffffffffffffffffffff1681526020013373ffffffffffffffffffffffffffffffffffffffff16815260200184815260200160011515815250600460008381526020019081526020016000206000820151816000015560208201518160010160006101000a81548173ffffffffffffffffffffffffffffffffffffffff021916908373ffffffffffffffffffffffffffffffffffffffff16021790555060408201518160020160006101000a81548173ffffffffffffffffffffffffffffffffffffffff021916908373ffffffffffffffffffffffffffffffffffffffff1602179055506060820151816003015560808201518160040160006101000a81548160ff0219169083151502179055509050508173ffffffffffffffffffffffffffffffffffffffff166323b872dd3330876040518463ffffffff1660e01b815260040161088193929190611610565b600060405180830381600087803b15801561089b57600080fd5b505af11580156108af573d6000803e3d6000fd5b505050507f9339409317fd01fabff48b703019016f49159bacc801ae872d2ca637d226e4c08430338660016040516108eb959493929190611665565b60405180910390a16108fd6000610f48565b50505050565b61090b610f5e565b60006109176000610f3a565b9050600460008281526020019081526020016000206040518060a0016040529081600082015481526020016001820160009054906101000a900473ffffffffffffffffffffffffffffffffffffffff1673ffffffffffffffffffffffffffffffffffffffff1673ffffffffffffffffffffffffffffffffffffffff1681526020016002820160009054906101000a900473ffffffffffffffffffffffffffffffffffffffff1673ffffffffffffffffffffffffffffffffffffffff1673ffffffffffffffffffffffffffffffffffffffff168152602001600382015481526020016004820160009054906101000a900460ff16151515158152505091505090565b60606000610a266000610f3a565b905060008167ffffffffffffffff811115610a4457610a43611402565b5b604051908082528060200260200182016040528015610a7d57816020015b610a6a610f5e565b815260200190600190039081610a625790505b5090506000805b83811015610bca576000600460008381526020019081526020016000209050806040518060a0016040529081600082015481526020016001820160009054906101000a900473ffffffffffffffffffffffffffffffffffffffff1673ffffffffffffffffffffffffffffffffffffffff1673ffffffffffffffffffffffffffffffffffffffff1681526020016002820160009054906101000a900473ffffffffffffffffffffffffffffffffffffffff1673ffffffffffffffffffffffffffffffffffffffff1673ffffffffffffffffffffffffffffffffffffffff168152602001600382015481526020016004820160009054906101000a900460ff161515151581525050848481518110610b9d57610b9c611431565b5b60200260200101819052508280610bb3906113ba565b935050508080610bc2906113ba565b915050610a84565b5081935050505090565b610bdc610f5e565b600460008381526020019081526020016000206040518060a0016040529081600082015481526020016001820160009054906101000a900473ffffffffffffffffffffffffffffffffffffffff1673ffffffffffffffffffffffffffffffffffffffff1673ffffffffffffffffffffffffffffffffffffffff1681526020016002820160009054906101000a900473ffffffffffffffffffffffffffffffffffffffff1673ffffffffffffffffffffffffffffffffffffffff1673ffffffffffffffffffffffffffffffffffffffff168152602001600382015481526020016004820160009054906101000a900460ff1615151515815250509050919050565b6000610ce86000610f3a565b905090565b60006004600084815260200190815260200160002060030154905060006004600085815260200190815260200160002060020160009054906101000a900473ffffffffffffffffffffffffffffffffffffffff169050813414610d85576040517f08c379a0000000000000000000000000000000000000000000000000000000008152600401610d7c9061172a565b60405180910390fd5b60006004600086815260200190815260200160002060040160006101000a81548160ff021916908315150217905550336004600086815260200190815260200160002060020160006101000a81548173ffffffffffffffffffffffffffffffffffffffff021916908373ffffffffffffffffffffffffffffffffffffffff160217905550610e136001610f48565b8273ffffffffffffffffffffffffffffffffffffffff166323b872dd3033876040518463ffffffff1660e01b8152600401610e5093929190611610565b600060405180830381600087803b158015610e6a57600080fd5b505af1158015610e7e573d6000803e3d6000fd5b50505050600260009054906101000a900473ffffffffffffffffffffffffffffffffffffffff1673ffffffffffffffffffffffffffffffffffffffff166108fc6003549081150290604051600060405180830381858888f19350505050158015610eec573d6000803e3d6000fd5b508073ffffffffffffffffffffffffffffffffffffffff166108fc349081150290604051600060405180830381858888f19350505050158015610f33573d6000803e3d6000fd5b5050505050565b600081600001549050919050565b6001816000016000828254019250508190555050565b6040518060a0016040528060008152602001600073ffffffffffffffffffffffffffffffffffffffff168152602001600073ffffffffffffffffffffffffffffffffffffffff168152602001600081526020016000151581525090565b600081519050919050565b600082825260208201905092915050565b6000819050602082019050919050565b6000819050919050565b610ffa81610fe7565b82525050565b600073ffffffffffffffffffffffffffffffffffffffff82169050919050565b600061102b82611000565b9050919050565b61103b81611020565b82525050565b60008115159050919050565b61105681611041565b82525050565b60a0820160008201516110726000850182610ff1565b5060208201516110856020850182611032565b5060408201516110986040850182611032565b5060608201516110ab6060850182610ff1565b5060808201516110be608085018261104d565b50505050565b60006110d0838361105c565b60a08301905092915050565b6000602082019050919050565b60006110f482610fbb565b6110fe8185610fc6565b935061110983610fd7565b8060005b8381101561113a57815161112188826110c4565b975061112c836110dc565b92505060018101905061110d565b5085935050505092915050565b6000602082019050818103600083015261116181846110e9565b905092915050565b61117281610fe7565b82525050565b600060208201905061118d6000830184611169565b92915050565b600080fd5b6111a181610fe7565b81146111ac57600080fd5b50565b6000813590506111be81611198565b92915050565b6000602082840312156111da576111d9611193565b5b60006111e8848285016111af565b91505092915050565b60006111fc82611000565b9050919050565b600061120e826111f1565b9050919050565b61121e81611203565b811461122957600080fd5b50565b60008135905061123b81611215565b92915050565b60008060006060848603121561125a57611259611193565b5b6000611268868287016111af565b9350506020611279868287016111af565b925050604061128a8682870161122c565b9150509250925092565b60a0820160008201516112aa6000850182610ff1565b5060208201516112bd6020850182611032565b5060408201516112d06040850182611032565b5060608201516112e36060850182610ff1565b5060808201516112f6608085018261104d565b50505050565b600060a0820190506113116000830184611294565b92915050565b6000806040838503121561132e5761132d611193565b5b600061133c858286016111af565b925050602061134d8582860161122c565b9150509250929050565b7f4e487b7100000000000000000000000000000000000000000000000000000000600052601160045260246000fd5b600061139182610fe7565b915061139c83610fe7565b92508282019050808211156113b4576113b3611357565b5b92915050565b60006113c582610fe7565b91507fffffffffffffffffffffffffffffffffffffffffffffffffffffffffffffffff82036113f7576113f6611357565b5b600182019050919050565b7f4e487b7100000000000000000000000000000000000000000000000000000000600052604160045260246000fd5b7f4e487b7100000000000000000000000000000000000000000000000000000000600052603260045260246000fd5b600082825260208201905092915050565b7f4f6e6c7920706c6174666f726d206f776e65722063616e2063616c6c2074686960008201527f732066756e6374696f6e00000000000000000000000000000000000000000000602082015250565b60006114cd602a83611460565b91506114d882611471565b604082019050919050565b600060208201905081810360008301526114fc816114c0565b9050919050565b7f506c656173652073656e6420746865206c697374696e67206665657300000000600082015250565b6000611539601c83611460565b915061154482611503565b602082019050919050565b600060208201905081810360008301526115688161152c565b9050919050565b7f4d616b652073757265207468652070726963652069736e2774206e656761746960008201527f7665000000000000000000000000000000000000000000000000000000000000602082015250565b60006115cb602283611460565b91506115d68261156f565b604082019050919050565b600060208201905081810360008301526115fa816115be565b9050919050565b61160a816111f1565b82525050565b60006060820190506116256000830186611601565b6116326020830185611601565b61163f6040830184611169565b949350505050565b61165081611020565b82525050565b61165f81611041565b82525050565b600060a08201905061167a6000830188611169565b6116876020830187611647565b6116946040830186611647565b6116a16060830185611169565b6116ae6080830184611656565b9695505050505050565b7f506c65617365207375626d6974207468652061736b696e67207072696365206960008201527f6e206f7264657220746f20636f6d706c65746520746865207075726368617365602082015250565b6000611714604083611460565b915061171f826116b8565b604082019050919050565b6000602082019050818103600083015261174381611707565b905091905056fea264697066735822122047082af03d667fd103eef34edfc2618cafa5348f78817600a3054150e7331f2264736f6c63430008120033",
  "linkReferences": {},
  "deployedLinkReferences": {}
}