{
  "_format": "hh-sol-artifact-1",
  "contractName": "NFTCollection",
  "sourceName": "contracts/NFTCollection.sol",
  "abi": [
    {
      "inputs": [
        {
          "internalType": "string",
          "name": "marketplace_name",
          "type": "string"
        },
        {
          "internalType": "string",
          "name": "marketplace_symbol",
          "type": "string"
        }
      ],
      "stateMutability": "nonpayable",
      "type": "constructor"
    },
    {
      "anonymous": false,
      "inputs": [
        {
          "indexed": true,
          "internalType": "address",
          "name": "owner",
          "type": "address"
        },
        {
          "indexed": true,
          "internalType": "address",
          "name": "approved",
          "type": "address"
        },
        {
          "indexed": true,
          "internalType": "uint256",
          "name": "tokenId",
          "type": "uint256"
        }
      ],
      "name": "Approval",
      "type": "event"
    },
    {
      "anonymous": false,
      "inputs": [
        {
          "indexed": true,
          "internalType": "address",
          "name": "owner",
          "type": "address"
        },
        {
          "indexed": true,
          "internalType": "address",
          "name": "operator",
          "type": "address"
        },
        {
          "indexed": false,
          "internalType": "bool",
          "name": "approved",
          "type": "bool"
        }
      ],
      "name": "ApprovalForAll",
      "type": "event"
    },
    {
      "anonymous": false,
      "inputs": [
        {
          "indexed": true,
          "internalType": "address",
          "name": "previousOwner",
          "type": "address"
        },
        {
          "indexed": true,
          "internalType": "address",
          "name": "newOwner",
          "type": "address"
        }
      ],
      "name": "OwnershipTransferred",
      "type": "event"
    },
    {
      "anonymous": false,
      "inputs": [
        {
          "indexed": false,
          "internalType": "string",
          "name": "ipfsURL",
          "type": "string"
        },
        {
          "indexed": false,
          "internalType": "uint256",
          "name": "tokenId",
          "type": "uint256"
        }
      ],
      "name": "TokenCreated",
      "type": "event"
    },
    {
      "anonymous": false,
      "inputs": [
        {
          "indexed": true,
          "internalType": "address",
          "name": "from",
          "type": "address"
        },
        {
          "indexed": true,
          "internalType": "address",
          "name": "to",
          "type": "address"
        },
        {
          "indexed": true,
          "internalType": "uint256",
          "name": "tokenId",
          "type": "uint256"
        }
      ],
      "name": "Transfer",
      "type": "event"
    },
    {
      "inputs": [
        {
          "internalType": "address",
          "name": "to",
          "type": "address"
        },
        {
          "internalType": "uint256",
          "name": "tokenId",
          "type": "uint256"
        }
      ],
      "name": "approve",
      "outputs": [],
      "stateMutability": "nonpayable",
      "type": "function"
    },
    {
      "inputs": [
        {
          "internalType": "address",
          "name": "owner",
          "type": "address"
        }
      ],
      "name": "balanceOf",
      "outputs": [
        {
          "internalType": "uint256",
          "name": "",
          "type": "uint256"
        }
      ],
      "stateMutability": "view",
      "type": "function"
    },
    {
      "inputs": [
        {
          "internalType": "string",
          "name": "tokenURI",
          "type": "string"
        }
      ],
      "name": "createToken",
      "outputs": [
        {
          "internalType": "uint256",
          "name": "",
          "type": "uint256"
        }
      ],
      "stateMutability": "payable",
      "type": "function"
    },
    {
      "inputs": [
        {
          "internalType": "uint256",
          "name": "tokenId",
          "type": "uint256"
        }
      ],
      "name": "getApproved",
      "outputs": [
        {
          "internalType": "address",
          "name": "",
          "type": "address"
        }
      ],
      "stateMutability": "view",
      "type": "function"
    },
    {
      "inputs": [
        {
          "internalType": "address",
          "name": "owner",
          "type": "address"
        },
        {
          "internalType": "address",
          "name": "operator",
          "type": "address"
        }
      ],
      "name": "isApprovedForAll",
      "outputs": [
        {
          "internalType": "bool",
          "name": "",
          "type": "bool"
        }
      ],
      "stateMutability": "view",
      "type": "function"
    },
    {
      "inputs": [],
      "name": "name",
      "outputs": [
        {
          "internalType": "string",
          "name": "",
          "type": "string"
        }
      ],
      "stateMutability": "view",
      "type": "function"
    },
    {
      "inputs": [],
      "name": "owner",
      "outputs": [
        {
          "internalType": "address",
          "name": "",
          "type": "address"
        }
      ],
      "stateMutability": "view",
      "type": "function"
    },
    {
      "inputs": [
        {
          "internalType": "uint256",
          "name": "tokenId",
          "type": "uint256"
        }
      ],
      "name": "ownerOf",
      "outputs": [
        {
          "internalType": "address",
          "name": "",
          "type": "address"
        }
      ],
      "stateMutability": "view",
      "type": "function"
    },
    {
      "inputs": [],
      "name": "renounceOwnership",
      "outputs": [],
      "stateMutability": "nonpayable",
      "type": "function"
    },
    {
      "inputs": [
        {
          "internalType": "address",
          "name": "from",
          "type": "address"
        },
        {
          "internalType": "address",
          "name": "to",
          "type": "address"
        },
        {
          "internalType": "uint256",
          "name": "tokenId",
          "type": "uint256"
        }
      ],
      "name": "safeTransferFrom",
      "outputs": [],
      "stateMutability": "nonpayable",
      "type": "function"
    },
    {
      "inputs": [
        {
          "internalType": "address",
          "name": "from",
          "type": "address"
        },
        {
          "internalType": "address",
          "name": "to",
          "type": "address"
        },
        {
          "internalType": "uint256",
          "name": "tokenId",
          "type": "uint256"
        },
        {
          "internalType": "bytes",
          "name": "data",
          "type": "bytes"
        }
      ],
      "name": "safeTransferFrom",
      "outputs": [],
      "stateMutability": "nonpayable",
      "type": "function"
    },
    {
      "inputs": [
        {
          "internalType": "address",
          "name": "operator",
          "type": "address"
        },
        {
          "internalType": "bool",
          "name": "approved",
          "type": "bool"
        }
      ],
      "name": "setApprovalForAll",
      "outputs": [],
      "stateMutability": "nonpayable",
      "type": "function"
    },
    {
      "inputs": [
        {
          "internalType": "bytes4",
          "name": "interfaceId",
          "type": "bytes4"
        }
      ],
      "name": "supportsInterface",
      "outputs": [
        {
          "internalType": "bool",
          "name": "",
          "type": "bool"
        }
      ],
      "stateMutability": "view",
      "type": "function"
    },
    {
      "inputs": [],
      "name": "symbol",
      "outputs": [
        {
          "internalType": "string",
          "name": "",
          "type": "string"
        }
      ],
      "stateMutability": "view",
      "type": "function"
    },
    {
      "inputs": [
        {
          "internalType": "uint256",
          "name": "tokenId",
          "type": "uint256"
        }
      ],
      "name": "tokenURI",
      "outputs": [
        {
          "internalType": "string",
          "name": "",
          "type": "string"
        }
      ],
      "stateMutability": "view",
      "type": "function"
    },
    {
      "inputs": [
        {
          "internalType": "address",
          "name": "from",
          "type": "address"
        },
        {
          "internalType": "address",
          "name": "to",
          "type": "address"
        },
        {
          "internalType": "uint256",
          "name": "tokenId",
          "type": "uint256"
        }
      ],
      "name": "transferFrom",
      "outputs": [],
      "stateMutability": "nonpayable",
      "type": "function"
    },
    {
      "inputs": [
        {
          "internalType": "address",
          "name": "newOwner",
          "type": "address"
        }
      ],
      "name": "transferOwnership",
      "outputs": [],
      "stateMutability": "nonpayable",
      "type": "function"
    }
  ],
  "bytecode": "0x60806040523480156200001157600080fd5b50604051620035f8380380620035f88339818101604052810190620000379190620002e8565b818181600090816200004a9190620005b8565b5080600190816200005c9190620005b8565b5050506200007f620000736200008760201b60201c565b6200008f60201b60201c565b50506200069f565b600033905090565b6000600760009054906101000a900473ffffffffffffffffffffffffffffffffffffffff16905081600760006101000a81548173ffffffffffffffffffffffffffffffffffffffff021916908373ffffffffffffffffffffffffffffffffffffffff1602179055508173ffffffffffffffffffffffffffffffffffffffff168173ffffffffffffffffffffffffffffffffffffffff167f8be0079c531659141344cd1fd0a4f28419497f9722a3daafe3b4186f6b6457e060405160405180910390a35050565b6000604051905090565b600080fd5b600080fd5b600080fd5b600080fd5b6000601f19601f8301169050919050565b7f4e487b7100000000000000000000000000000000000000000000000000000000600052604160045260246000fd5b620001be8262000173565b810181811067ffffffffffffffff82111715620001e057620001df62000184565b5b80604052505050565b6000620001f562000155565b9050620002038282620001b3565b919050565b600067ffffffffffffffff82111562000226576200022562000184565b5b620002318262000173565b9050602081019050919050565b60005b838110156200025e57808201518184015260208101905062000241565b60008484015250505050565b6000620002816200027b8462000208565b620001e9565b905082815260208101848484011115620002a0576200029f6200016e565b5b620002ad8482856200023e565b509392505050565b600082601f830112620002cd57620002cc62000169565b5b8151620002df8482602086016200026a565b91505092915050565b600080604083850312156200030257620003016200015f565b5b600083015167ffffffffffffffff81111562000323576200032262000164565b5b6200033185828601620002b5565b925050602083015167ffffffffffffffff81111562000355576200035462000164565b5b6200036385828601620002b5565b9150509250929050565b600081519050919050565b7f4e487b7100000000000000000000000000000000000000000000000000000000600052602260045260246000fd5b60006002820490506001821680620003c057607f821691505b602082108103620003d657620003d562000378565b5b50919050565b60008190508160005260206000209050919050565b60006020601f8301049050919050565b600082821b905092915050565b600060088302620004407fffffffffffffffffffffffffffffffffffffffffffffffffffffffffffffffff8262000401565b6200044c868362000401565b95508019841693508086168417925050509392505050565b6000819050919050565b6000819050919050565b600062000499620004936200048d8462000464565b6200046e565b62000464565b9050919050565b6000819050919050565b620004b58362000478565b620004cd620004c482620004a0565b8484546200040e565b825550505050565b600090565b620004e4620004d5565b620004f1818484620004aa565b505050565b5b8181101562000519576200050d600082620004da565b600181019050620004f7565b5050565b601f82111562000568576200053281620003dc565b6200053d84620003f1565b810160208510156200054d578190505b620005656200055c85620003f1565b830182620004f6565b50505b505050565b600082821c905092915050565b60006200058d600019846008026200056d565b1980831691505092915050565b6000620005a883836200057a565b9150826002028217905092915050565b620005c3826200036d565b67ffffffffffffffff811115620005df57620005de62000184565b5b620005eb8254620003a7565b620005f88282856200051d565b600060209050601f8311600181146200063057600084156200061b578287015190505b6200062785826200059a565b86555062000697565b601f1984166200064086620003dc565b60005b828110156200066a5784890151825560018201915060208501945060208101905062000643565b868310156200068a578489015162000686601f8916826200057a565b8355505b6001600288020188555050505b505050505050565b612f4980620006af6000396000f3fe6080604052600436106100fe5760003560e01c806370a0823111610095578063a22cb46511610064578063a22cb4651461033a578063b88d4fde14610363578063c87b56dd1461038c578063e985e9c5146103c9578063f2fde38b14610406576100fe565b806370a0823114610290578063715018a6146102cd5780638da5cb5b146102e457806395d89b411461030f576100fe565b806323b872dd116100d157806323b872dd146101d157806342842e0e146101fa57806345576f94146102235780636352211e14610253576100fe565b806301ffc9a71461010357806306fdde0314610140578063081812fc1461016b578063095ea7b3146101a8575b600080fd5b34801561010f57600080fd5b5061012a60048036038101906101259190611d1d565b61042f565b6040516101379190611d65565b60405180910390f35b34801561014c57600080fd5b50610155610511565b6040516101629190611e10565b60405180910390f35b34801561017757600080fd5b50610192600480360381019061018d9190611e68565b6105a3565b60405161019f9190611ed6565b60405180910390f35b3480156101b457600080fd5b506101cf60048036038101906101ca9190611f1d565b6105e9565b005b3480156101dd57600080fd5b506101f860048036038101906101f39190611f5d565b610700565b005b34801561020657600080fd5b50610221600480360381019061021c9190611f5d565b610760565b005b61023d600480360381019061023891906120e5565b610780565b60405161024a919061213d565b60405180910390f35b34801561025f57600080fd5b5061027a60048036038101906102759190611e68565b6107f8565b6040516102879190611ed6565b60405180910390f35b34801561029c57600080fd5b506102b760048036038101906102b29190612158565b61087e565b6040516102c4919061213d565b60405180910390f35b3480156102d957600080fd5b506102e2610935565b005b3480156102f057600080fd5b506102f9610949565b6040516103069190611ed6565b60405180910390f35b34801561031b57600080fd5b50610324610973565b6040516103319190611e10565b60405180910390f35b34801561034657600080fd5b50610361600480360381019061035c91906121b1565b610a05565b005b34801561036f57600080fd5b5061038a60048036038101906103859190612292565b610a1b565b005b34801561039857600080fd5b506103b360048036038101906103ae9190611e68565b610a7d565b6040516103c09190611e10565b60405180910390f35b3480156103d557600080fd5b506103f060048036038101906103eb9190612315565b610b8f565b6040516103fd9190611d65565b60405180910390f35b34801561041257600080fd5b5061042d60048036038101906104289190612158565b610c23565b005b60007f80ac58cd000000000000000000000000000000000000000000000000000000007bffffffffffffffffffffffffffffffffffffffffffffffffffffffff1916827bffffffffffffffffffffffffffffffffffffffffffffffffffffffff191614806104fa57507f5b5e139f000000000000000000000000000000000000000000000000000000007bffffffffffffffffffffffffffffffffffffffffffffffffffffffff1916827bffffffffffffffffffffffffffffffffffffffffffffffffffffffff1916145b8061050a575061050982610ca6565b5b9050919050565b60606000805461052090612384565b80601f016020809104026020016040519081016040528092919081815260200182805461054c90612384565b80156105995780601f1061056e57610100808354040283529160200191610599565b820191906000526020600020905b81548152906001019060200180831161057c57829003601f168201915b5050505050905090565b60006105ae82610d10565b6004600083815260200190815260200160002060009054906101000a900473ffffffffffffffffffffffffffffffffffffffff169050919050565b60006105f4826107f8565b90508073ffffffffffffffffffffffffffffffffffffffff168373ffffffffffffffffffffffffffffffffffffffff1603610664576040517f08c379a000000000000000000000000000000000000000000000000000000000815260040161065b90612427565b60405180910390fd5b8073ffffffffffffffffffffffffffffffffffffffff16610683610d5b565b73ffffffffffffffffffffffffffffffffffffffff1614806106b257506106b1816106ac610d5b565b610b8f565b5b6106f1576040517f08c379a00000000000000000000000000000000000000000000000000000000081526004016106e8906124b9565b60405180910390fd5b6106fb8383610d63565b505050565b61071161070b610d5b565b82610e1c565b610750576040517f08c379a00000000000000000000000000000000000000000000000000000000081526004016107479061254b565b60405180910390fd5b61075b838383610eb1565b505050565b61077b83838360405180602001604052806000815250610a1b565b505050565b600061078a6111aa565b60006107966008611228565b90506107a23382611236565b6107ac8184611254565b6107b660086112c1565b7f2031bb75fe7acfeb75a155106919ca62ef2e240732a3bf6035ce09f71698833e83826040516107e792919061256b565b60405180910390a180915050919050565b600080610804836112d7565b9050600073ffffffffffffffffffffffffffffffffffffffff168173ffffffffffffffffffffffffffffffffffffffff1603610875576040517f08c379a000000000000000000000000000000000000000000000000000000000815260040161086c906125e7565b60405180910390fd5b80915050919050565b60008073ffffffffffffffffffffffffffffffffffffffff168273ffffffffffffffffffffffffffffffffffffffff16036108ee576040517f08c379a00000000000000000000000000000000000000000000000000000000081526004016108e590612679565b60405180910390fd5b600360008373ffffffffffffffffffffffffffffffffffffffff1673ffffffffffffffffffffffffffffffffffffffff168152602001908152602001600020549050919050565b61093d6111aa565b6109476000611314565b565b6000600760009054906101000a900473ffffffffffffffffffffffffffffffffffffffff16905090565b60606001805461098290612384565b80601f01602080910402602001604051908101604052809291908181526020018280546109ae90612384565b80156109fb5780601f106109d0576101008083540402835291602001916109fb565b820191906000526020600020905b8154815290600101906020018083116109de57829003601f168201915b5050505050905090565b610a17610a10610d5b565b83836113da565b5050565b610a2c610a26610d5b565b83610e1c565b610a6b576040517f08c379a0000000000000000000000000000000000000000000000000000000008152600401610a629061254b565b60405180910390fd5b610a7784848484611546565b50505050565b6060610a8882610d10565b6000600660008481526020019081526020016000208054610aa890612384565b80601f0160208091040260200160405190810160405280929190818152602001828054610ad490612384565b8015610b215780601f10610af657610100808354040283529160200191610b21565b820191906000526020600020905b815481529060010190602001808311610b0457829003601f168201915b505050505090506000610b326115a2565b90506000815103610b47578192505050610b8a565b600082511115610b7c578082604051602001610b649291906126d5565b60405160208183030381529060405292505050610b8a565b610b85846115b9565b925050505b919050565b6000600560008473ffffffffffffffffffffffffffffffffffffffff1673ffffffffffffffffffffffffffffffffffffffff16815260200190815260200160002060008373ffffffffffffffffffffffffffffffffffffffff1673ffffffffffffffffffffffffffffffffffffffff16815260200190815260200160002060009054906101000a900460ff16905092915050565b610c2b6111aa565b600073ffffffffffffffffffffffffffffffffffffffff168173ffffffffffffffffffffffffffffffffffffffff1603610c9a576040517f08c379a0000000000000000000000000000000000000000000000000000000008152600401610c919061276b565b60405180910390fd5b610ca381611314565b50565b60007f01ffc9a7000000000000000000000000000000000000000000000000000000007bffffffffffffffffffffffffffffffffffffffffffffffffffffffff1916827bffffffffffffffffffffffffffffffffffffffffffffffffffffffff1916149050919050565b610d1981611621565b610d58576040517f08c379a0000000000000000000000000000000000000000000000000000000008152600401610d4f906125e7565b60405180910390fd5b50565b600033905090565b816004600083815260200190815260200160002060006101000a81548173ffffffffffffffffffffffffffffffffffffffff021916908373ffffffffffffffffffffffffffffffffffffffff160217905550808273ffffffffffffffffffffffffffffffffffffffff16610dd6836107f8565b73ffffffffffffffffffffffffffffffffffffffff167f8c5be1e5ebec7d5bd14f71427d1e84f3dd0314c0f7b2291e5b200ac8c7c3b92560405160405180910390a45050565b600080610e28836107f8565b90508073ffffffffffffffffffffffffffffffffffffffff168473ffffffffffffffffffffffffffffffffffffffff161480610e6a5750610e698185610b8f565b5b80610ea857508373ffffffffffffffffffffffffffffffffffffffff16610e90846105a3565b73ffffffffffffffffffffffffffffffffffffffff16145b91505092915050565b8273ffffffffffffffffffffffffffffffffffffffff16610ed1826107f8565b73ffffffffffffffffffffffffffffffffffffffff1614610f27576040517f08c379a0000000000000000000000000000000000000000000000000000000008152600401610f1e906127fd565b60405180910390fd5b600073ffffffffffffffffffffffffffffffffffffffff168273ffffffffffffffffffffffffffffffffffffffff1603610f96576040517f08c379a0000000000000000000000000000000000000000000000000000000008152600401610f8d9061288f565b60405180910390fd5b610fa38383836001611662565b8273ffffffffffffffffffffffffffffffffffffffff16610fc3826107f8565b73ffffffffffffffffffffffffffffffffffffffff1614611019576040517f08c379a0000000000000000000000000000000000000000000000000000000008152600401611010906127fd565b60405180910390fd5b6004600082815260200190815260200160002060006101000a81549073ffffffffffffffffffffffffffffffffffffffff02191690556001600360008573ffffffffffffffffffffffffffffffffffffffff1673ffffffffffffffffffffffffffffffffffffffff168152602001908152602001600020600082825403925050819055506001600360008473ffffffffffffffffffffffffffffffffffffffff1673ffffffffffffffffffffffffffffffffffffffff16815260200190815260200160002060008282540192505081905550816002600083815260200190815260200160002060006101000a81548173ffffffffffffffffffffffffffffffffffffffff021916908373ffffffffffffffffffffffffffffffffffffffff160217905550808273ffffffffffffffffffffffffffffffffffffffff168473ffffffffffffffffffffffffffffffffffffffff167fddf252ad1be2c89b69c2b068fc378daa952ba7f163c4a11628f55a4df523b3ef60405160405180910390a46111a58383836001611668565b505050565b6111b2610d5b565b73ffffffffffffffffffffffffffffffffffffffff166111d0610949565b73ffffffffffffffffffffffffffffffffffffffff1614611226576040517f08c379a000000000000000000000000000000000000000000000000000000000815260040161121d906128fb565b60405180910390fd5b565b600081600001549050919050565b61125082826040518060200160405280600081525061166e565b5050565b61125d82611621565b61129c576040517f08c379a00000000000000000000000000000000000000000000000000000000081526004016112939061298d565b60405180910390fd5b806006600084815260200190815260200160002090816112bc9190612b59565b505050565b6001816000016000828254019250508190555050565b60006002600083815260200190815260200160002060009054906101000a900473ffffffffffffffffffffffffffffffffffffffff169050919050565b6000600760009054906101000a900473ffffffffffffffffffffffffffffffffffffffff16905081600760006101000a81548173ffffffffffffffffffffffffffffffffffffffff021916908373ffffffffffffffffffffffffffffffffffffffff1602179055508173ffffffffffffffffffffffffffffffffffffffff168173ffffffffffffffffffffffffffffffffffffffff167f8be0079c531659141344cd1fd0a4f28419497f9722a3daafe3b4186f6b6457e060405160405180910390a35050565b8173ffffffffffffffffffffffffffffffffffffffff168373ffffffffffffffffffffffffffffffffffffffff1603611448576040517f08c379a000000000000000000000000000000000000000000000000000000000815260040161143f90612c77565b60405180910390fd5b80600560008573ffffffffffffffffffffffffffffffffffffffff1673ffffffffffffffffffffffffffffffffffffffff16815260200190815260200160002060008473ffffffffffffffffffffffffffffffffffffffff1673ffffffffffffffffffffffffffffffffffffffff16815260200190815260200160002060006101000a81548160ff0219169083151502179055508173ffffffffffffffffffffffffffffffffffffffff168373ffffffffffffffffffffffffffffffffffffffff167f17307eab39ab6107e8899845ad3d59bd9653f200f220920489ca2b5937696c31836040516115399190611d65565b60405180910390a3505050565b611551848484610eb1565b61155d848484846116c9565b61159c576040517f08c379a000000000000000000000000000000000000000000000000000000000815260040161159390612d09565b60405180910390fd5b50505050565b606060405180602001604052806000815250905090565b60606115c482610d10565b60006115ce6115a2565b905060008151116115ee5760405180602001604052806000815250611619565b806115f884611850565b6040516020016116099291906126d5565b6040516020818303038152906040525b915050919050565b60008073ffffffffffffffffffffffffffffffffffffffff16611643836112d7565b73ffffffffffffffffffffffffffffffffffffffff1614159050919050565b50505050565b50505050565b611678838361191e565b61168560008484846116c9565b6116c4576040517f08c379a00000000000000000000000000000000000000000000000000000000081526004016116bb90612d09565b60405180910390fd5b505050565b60006116ea8473ffffffffffffffffffffffffffffffffffffffff16611b3b565b15611843578373ffffffffffffffffffffffffffffffffffffffff1663150b7a02611713610d5b565b8786866040518563ffffffff1660e01b81526004016117359493929190612d7e565b6020604051808303816000875af192505050801561177157506040513d601f19601f8201168201806040525081019061176e9190612ddf565b60015b6117f3573d80600081146117a1576040519150601f19603f3d011682016040523d82523d6000602084013e6117a6565b606091505b5060008151036117eb576040517f08c379a00000000000000000000000000000000000000000000000000000000081526004016117e290612d09565b60405180910390fd5b805181602001fd5b63150b7a0260e01b7bffffffffffffffffffffffffffffffffffffffffffffffffffffffff1916817bffffffffffffffffffffffffffffffffffffffffffffffffffffffff191614915050611848565b600190505b949350505050565b60606000600161185f84611b5e565b01905060008167ffffffffffffffff81111561187e5761187d611fba565b5b6040519080825280601f01601f1916602001820160405280156118b05781602001600182028036833780820191505090505b509050600082602001820190505b600115611913578080600190039150507f3031323334353637383961626364656600000000000000000000000000000000600a86061a8153600a858161190757611906612e0c565b5b049450600085036118be575b819350505050919050565b600073ffffffffffffffffffffffffffffffffffffffff168273ffffffffffffffffffffffffffffffffffffffff160361198d576040517f08c379a000000000000000000000000000000000000000000000000000000000815260040161198490612e87565b60405180910390fd5b61199681611621565b156119d6576040517f08c379a00000000000000000000000000000000000000000000000000000000081526004016119cd90612ef3565b60405180910390fd5b6119e4600083836001611662565b6119ed81611621565b15611a2d576040517f08c379a0000000000000000000000000000000000000000000000000000000008152600401611a2490612ef3565b60405180910390fd5b6001600360008473ffffffffffffffffffffffffffffffffffffffff1673ffffffffffffffffffffffffffffffffffffffff16815260200190815260200160002060008282540192505081905550816002600083815260200190815260200160002060006101000a81548173ffffffffffffffffffffffffffffffffffffffff021916908373ffffffffffffffffffffffffffffffffffffffff160217905550808273ffffffffffffffffffffffffffffffffffffffff16600073ffffffffffffffffffffffffffffffffffffffff167fddf252ad1be2c89b69c2b068fc378daa952ba7f163c4a11628f55a4df523b3ef60405160405180910390a4611b37600083836001611668565b5050565b6000808273ffffffffffffffffffffffffffffffffffffffff163b119050919050565b600080600090507a184f03e93ff9f4daa797ed6e38ed64bf6a1f0100000000000000008310611bbc577a184f03e93ff9f4daa797ed6e38ed64bf6a1f0100000000000000008381611bb257611bb1612e0c565b5b0492506040810190505b6d04ee2d6d415b85acef81000000008310611bf9576d04ee2d6d415b85acef81000000008381611bef57611bee612e0c565b5b0492506020810190505b662386f26fc100008310611c2857662386f26fc100008381611c1e57611c1d612e0c565b5b0492506010810190505b6305f5e1008310611c51576305f5e1008381611c4757611c46612e0c565b5b0492506008810190505b6127108310611c76576127108381611c6c57611c6b612e0c565b5b0492506004810190505b60648310611c995760648381611c8f57611c8e612e0c565b5b0492506002810190505b600a8310611ca8576001810190505b80915050919050565b6000604051905090565b600080fd5b600080fd5b60007fffffffff0000000000000000000000000000000000000000000000000000000082169050919050565b611cfa81611cc5565b8114611d0557600080fd5b50565b600081359050611d1781611cf1565b92915050565b600060208284031215611d3357611d32611cbb565b5b6000611d4184828501611d08565b91505092915050565b60008115159050919050565b611d5f81611d4a565b82525050565b6000602082019050611d7a6000830184611d56565b92915050565b600081519050919050565b600082825260208201905092915050565b60005b83811015611dba578082015181840152602081019050611d9f565b60008484015250505050565b6000601f19601f8301169050919050565b6000611de282611d80565b611dec8185611d8b565b9350611dfc818560208601611d9c565b611e0581611dc6565b840191505092915050565b60006020820190508181036000830152611e2a8184611dd7565b905092915050565b6000819050919050565b611e4581611e32565b8114611e5057600080fd5b50565b600081359050611e6281611e3c565b92915050565b600060208284031215611e7e57611e7d611cbb565b5b6000611e8c84828501611e53565b91505092915050565b600073ffffffffffffffffffffffffffffffffffffffff82169050919050565b6000611ec082611e95565b9050919050565b611ed081611eb5565b82525050565b6000602082019050611eeb6000830184611ec7565b92915050565b611efa81611eb5565b8114611f0557600080fd5b50565b600081359050611f1781611ef1565b92915050565b60008060408385031215611f3457611f33611cbb565b5b6000611f4285828601611f08565b9250506020611f5385828601611e53565b9150509250929050565b600080600060608486031215611f7657611f75611cbb565b5b6000611f8486828701611f08565b9350506020611f9586828701611f08565b9250506040611fa686828701611e53565b9150509250925092565b600080fd5b600080fd5b7f4e487b7100000000000000000000000000000000000000000000000000000000600052604160045260246000fd5b611ff282611dc6565b810181811067ffffffffffffffff8211171561201157612010611fba565b5b80604052505050565b6000612024611cb1565b90506120308282611fe9565b919050565b600067ffffffffffffffff8211156120505761204f611fba565b5b61205982611dc6565b9050602081019050919050565b82818337600083830152505050565b600061208861208384612035565b61201a565b9050828152602081018484840111156120a4576120a3611fb5565b5b6120af848285612066565b509392505050565b600082601f8301126120cc576120cb611fb0565b5b81356120dc848260208601612075565b91505092915050565b6000602082840312156120fb576120fa611cbb565b5b600082013567ffffffffffffffff81111561211957612118611cc0565b5b612125848285016120b7565b91505092915050565b61213781611e32565b82525050565b6000602082019050612152600083018461212e565b92915050565b60006020828403121561216e5761216d611cbb565b5b600061217c84828501611f08565b91505092915050565b61218e81611d4a565b811461219957600080fd5b50565b6000813590506121ab81612185565b92915050565b600080604083850312156121c8576121c7611cbb565b5b60006121d685828601611f08565b92505060206121e78582860161219c565b9150509250929050565b600067ffffffffffffffff82111561220c5761220b611fba565b5b61221582611dc6565b9050602081019050919050565b6000612235612230846121f1565b61201a565b90508281526020810184848401111561225157612250611fb5565b5b61225c848285612066565b509392505050565b600082601f83011261227957612278611fb0565b5b8135612289848260208601612222565b91505092915050565b600080600080608085870312156122ac576122ab611cbb565b5b60006122ba87828801611f08565b94505060206122cb87828801611f08565b93505060406122dc87828801611e53565b925050606085013567ffffffffffffffff8111156122fd576122fc611cc0565b5b61230987828801612264565b91505092959194509250565b6000806040838503121561232c5761232b611cbb565b5b600061233a85828601611f08565b925050602061234b85828601611f08565b9150509250929050565b7f4e487b7100000000000000000000000000000000000000000000000000000000600052602260045260246000fd5b6000600282049050600182168061239c57607f821691505b6020821081036123af576123ae612355565b5b50919050565b7f4552433732313a20617070726f76616c20746f2063757272656e74206f776e6560008201527f7200000000000000000000000000000000000000000000000000000000000000602082015250565b6000612411602183611d8b565b915061241c826123b5565b604082019050919050565b6000602082019050818103600083015261244081612404565b9050919050565b7f4552433732313a20617070726f76652063616c6c6572206973206e6f7420746f60008201527f6b656e206f776e6572206f7220617070726f76656420666f7220616c6c000000602082015250565b60006124a3603d83611d8b565b91506124ae82612447565b604082019050919050565b600060208201905081810360008301526124d281612496565b9050919050565b7f4552433732313a2063616c6c6572206973206e6f7420746f6b656e206f776e6560008201527f72206f7220617070726f76656400000000000000000000000000000000000000602082015250565b6000612535602d83611d8b565b9150612540826124d9565b604082019050919050565b6000602082019050818103600083015261256481612528565b9050919050565b600060408201905081810360008301526125858185611dd7565b9050612594602083018461212e565b9392505050565b7f4552433732313a20696e76616c696420746f6b656e2049440000000000000000600082015250565b60006125d1601883611d8b565b91506125dc8261259b565b602082019050919050565b60006020820190508181036000830152612600816125c4565b9050919050565b7f4552433732313a2061646472657373207a65726f206973206e6f74206120766160008201527f6c6964206f776e65720000000000000000000000000000000000000000000000602082015250565b6000612663602983611d8b565b915061266e82612607565b604082019050919050565b6000602082019050818103600083015261269281612656565b9050919050565b600081905092915050565b60006126af82611d80565b6126b98185612699565b93506126c9818560208601611d9c565b80840191505092915050565b60006126e182856126a4565b91506126ed82846126a4565b91508190509392505050565b7f4f776e61626c653a206e6577206f776e657220697320746865207a65726f206160008201527f6464726573730000000000000000000000000000000000000000000000000000602082015250565b6000612755602683611d8b565b9150612760826126f9565b604082019050919050565b6000602082019050818103600083015261278481612748565b9050919050565b7f4552433732313a207472616e736665722066726f6d20696e636f72726563742060008201527f6f776e6572000000000000000000000000000000000000000000000000000000602082015250565b60006127e7602583611d8b565b91506127f28261278b565b604082019050919050565b60006020820190508181036000830152612816816127da565b9050919050565b7f4552433732313a207472616e7366657220746f20746865207a65726f2061646460008201527f7265737300000000000000000000000000000000000000000000000000000000602082015250565b6000612879602483611d8b565b91506128848261281d565b604082019050919050565b600060208201905081810360008301526128a88161286c565b9050919050565b7f4f776e61626c653a2063616c6c6572206973206e6f7420746865206f776e6572600082015250565b60006128e5602083611d8b565b91506128f0826128af565b602082019050919050565b60006020820190508181036000830152612914816128d8565b9050919050565b7f45524337323155524953746f726167653a2055524920736574206f66206e6f6e60008201527f6578697374656e7420746f6b656e000000000000000000000000000000000000602082015250565b6000612977602e83611d8b565b91506129828261291b565b604082019050919050565b600060208201905081810360008301526129a68161296a565b9050919050565b60008190508160005260206000209050919050565b60006020601f8301049050919050565b600082821b905092915050565b600060088302612a0f7fffffffffffffffffffffffffffffffffffffffffffffffffffffffffffffffff826129d2565b612a1986836129d2565b95508019841693508086168417925050509392505050565b6000819050919050565b6000612a56612a51612a4c84611e32565b612a31565b611e32565b9050919050565b6000819050919050565b612a7083612a3b565b612a84612a7c82612a5d565b8484546129df565b825550505050565b600090565b612a99612a8c565b612aa4818484612a67565b505050565b5b81811015612ac857612abd600082612a91565b600181019050612aaa565b5050565b601f821115612b0d57612ade816129ad565b612ae7846129c2565b81016020851015612af6578190505b612b0a612b02856129c2565b830182612aa9565b50505b505050565b600082821c905092915050565b6000612b3060001984600802612b12565b1980831691505092915050565b6000612b498383612b1f565b9150826002028217905092915050565b612b6282611d80565b67ffffffffffffffff811115612b7b57612b7a611fba565b5b612b858254612384565b612b90828285612acc565b600060209050601f831160018114612bc35760008415612bb1578287015190505b612bbb8582612b3d565b865550612c23565b601f198416612bd1866129ad565b60005b82811015612bf957848901518255600182019150602085019450602081019050612bd4565b86831015612c165784890151612c12601f891682612b1f565b8355505b6001600288020188555050505b505050505050565b7f4552433732313a20617070726f766520746f2063616c6c657200000000000000600082015250565b6000612c61601983611d8b565b9150612c6c82612c2b565b602082019050919050565b60006020820190508181036000830152612c9081612c54565b9050919050565b7f4552433732313a207472616e7366657220746f206e6f6e20455243373231526560008201527f63656976657220696d706c656d656e7465720000000000000000000000000000602082015250565b6000612cf3603283611d8b565b9150612cfe82612c97565b604082019050919050565b60006020820190508181036000830152612d2281612ce6565b9050919050565b600081519050919050565b600082825260208201905092915050565b6000612d5082612d29565b612d5a8185612d34565b9350612d6a818560208601611d9c565b612d7381611dc6565b840191505092915050565b6000608082019050612d936000830187611ec7565b612da06020830186611ec7565b612dad604083018561212e565b8181036060830152612dbf8184612d45565b905095945050505050565b600081519050612dd981611cf1565b92915050565b600060208284031215612df557612df4611cbb565b5b6000612e0384828501612dca565b91505092915050565b7f4e487b7100000000000000000000000000000000000000000000000000000000600052601260045260246000fd5b7f4552433732313a206d696e7420746f20746865207a65726f2061646472657373600082015250565b6000612e71602083611d8b565b9150612e7c82612e3b565b602082019050919050565b60006020820190508181036000830152612ea081612e64565b9050919050565b7f4552433732313a20746f6b656e20616c7265616479206d696e74656400000000600082015250565b6000612edd601c83611d8b565b9150612ee882612ea7565b602082019050919050565b60006020820190508181036000830152612f0c81612ed0565b905091905056fea264697066735822122056f32f05fd66d3217b8e3e910a76c4e3ee916d71464eccafc4df7e6273b8188164736f6c63430008120033",
  "linkReferences": {},
  "deployedLinkReferences": {}
}