{
  "_format": "hh-sol-artifact-1",
  "contractName": "UMAFactory",
  "sourceName": "contracts/UMAFactory.sol",
  "abi": [
    {
      "inputs": [],
      "stateMutability": "nonpayable",
      "type": "constructor"
    },
    {
      "anonymous": false,
      "inputs": [
        {
          "indexed": false,
          "internalType": "uint256",
          "name": "id",
          "type": "uint256"
        },
        {
          "indexed": false,
          "internalType": "contract NFTCollection",
          "name": "collection_address",
          "type": "address"
        },
        {
          "indexed": false,
          "internalType": "contract UMAVerify",
          "name": "uma_contract",
          "type": "address"
        }
      ],
      "name": "UMA_Created",
      "type": "event"
    },
    {
      "inputs": [
        {
          "internalType": "contract NFTCollection",
          "name": "",
          "type": "address"
        }
      ],
      "name": "collectionAddress_to_UMA",
      "outputs": [
        {
          "internalType": "uint256",
          "name": "id",
          "type": "uint256"
        },
        {
          "internalType": "contract NFTCollection",
          "name": "collection_address",
          "type": "address"
        },
        {
          "internalType": "contract UMAVerify",
          "name": "uma_contract",
          "type": "address"
        }
      ],
      "stateMutability": "view",
      "type": "function"
    },
    {
      "inputs": [
        {
          "internalType": "contract NFTCollection",
          "name": "collection_address",
          "type": "address"
        }
      ],
      "name": "deploy_uma",
      "outputs": [],
      "stateMutability": "nonpayable",
      "type": "function"
    },
    {
      "inputs": [],
      "name": "get_all_umas",
      "outputs": [
        {
          "components": [
            {
              "internalType": "uint256",
              "name": "id",
              "type": "uint256"
            },
            {
              "internalType": "contract NFTCollection",
              "name": "collection_address",
              "type": "address"
            },
            {
              "internalType": "contract UMAVerify",
              "name": "uma_contract",
              "type": "address"
            }
          ],
          "internalType": "struct UMAFactory.UMA[]",
          "name": "",
          "type": "tuple[]"
        }
      ],
      "stateMutability": "view",
      "type": "function"
    },
    {
      "inputs": [
        {
          "internalType": "uint256",
          "name": "",
          "type": "uint256"
        }
      ],
      "name": "id_to_uma_contract",
      "outputs": [
        {
          "internalType": "uint256",
          "name": "id",
          "type": "uint256"
        },
        {
          "internalType": "contract NFTCollection",
          "name": "collection_address",
          "type": "address"
        },
        {
          "internalType": "contract UMAVerify",
          "name": "uma_contract",
          "type": "address"
        }
      ],
      "stateMutability": "view",
      "type": "function"
    }
  ],
  "bytecode": "0x608060405234801561001057600080fd5b50336000806101000a81548173ffffffffffffffffffffffffffffffffffffffff021916908373ffffffffffffffffffffffffffffffffffffffff160217905550611992806100606000396000f3fe60806040523480156200001157600080fd5b5060043610620000515760003560e01c8062809830146200005657806325216d481462000076578063587e6d1314620000ae578063fee3fe4114620000e6575b600080fd5b6200007460048036038101906200006e9190620006ea565b62000108565b005b6200009460048036038101906200008e9190620006ea565b6200036c565b604051620000a593929190620007c7565b60405180910390f35b620000cc6004803603810190620000c6919062000835565b620003d6565b604051620000dd93929190620007c7565b60405180910390f35b620000f062000440565b604051620000ff91906200099f565b60405180910390f35b6000620001166001620005ed565b90506000604051620001289062000611565b604051809103906000f08015801562000145573d6000803e3d6000fd5b509050600060405180606001604052808481526020018573ffffffffffffffffffffffffffffffffffffffff1681526020018373ffffffffffffffffffffffffffffffffffffffff16815250905080600260008581526020019081526020016000206000820151816000015560208201518160010160006101000a81548173ffffffffffffffffffffffffffffffffffffffff021916908373ffffffffffffffffffffffffffffffffffffffff16021790555060408201518160020160006101000a81548173ffffffffffffffffffffffffffffffffffffffff021916908373ffffffffffffffffffffffffffffffffffffffff16021790555090505080600360008673ffffffffffffffffffffffffffffffffffffffff1673ffffffffffffffffffffffffffffffffffffffff1681526020019081526020016000206000820151816000015560208201518160010160006101000a81548173ffffffffffffffffffffffffffffffffffffffff021916908373ffffffffffffffffffffffffffffffffffffffff16021790555060408201518160020160006101000a81548173ffffffffffffffffffffffffffffffffffffffff021916908373ffffffffffffffffffffffffffffffffffffffff160217905550905050620003296001620005fb565b7f4ed8d41de5e44348119241b6a8417c009e1c16e5d793a44d28dc2a9388bcb38e8385846040516200035e93929190620007c7565b60405180910390a150505050565b60036020528060005260406000206000915090508060000154908060010160009054906101000a900473ffffffffffffffffffffffffffffffffffffffff16908060020160009054906101000a900473ffffffffffffffffffffffffffffffffffffffff16905083565b60026020528060005260406000206000915090508060000154908060010160009054906101000a900473ffffffffffffffffffffffffffffffffffffffff16908060020160009054906101000a900473ffffffffffffffffffffffffffffffffffffffff16905083565b60606000620004506001620005ed565b905060008167ffffffffffffffff811115620004715762000470620009c3565b5b604051908082528060200260200182016040528015620004ae57816020015b6200049a6200061f565b815260200190600190039081620004905790505b509050600080600090505b83811015620005e357600060026000838152602001908152602001600020905080604051806060016040529081600082015481526020016001820160009054906101000a900473ffffffffffffffffffffffffffffffffffffffff1673ffffffffffffffffffffffffffffffffffffffff1673ffffffffffffffffffffffffffffffffffffffff1681526020016002820160009054906101000a900473ffffffffffffffffffffffffffffffffffffffff1673ffffffffffffffffffffffffffffffffffffffff1673ffffffffffffffffffffffffffffffffffffffff1681525050848481518110620005b157620005b0620009f2565b5b60200260200101819052508280620005c99062000a50565b935050508080620005da9062000a50565b915050620004b9565b5081935050505090565b600081600001549050919050565b6001816000016000828254019250508190555050565b610ebf8062000a9e83390190565b604051806060016040528060008152602001600073ffffffffffffffffffffffffffffffffffffffff168152602001600073ffffffffffffffffffffffffffffffffffffffff1681525090565b600080fd5b600073ffffffffffffffffffffffffffffffffffffffff82169050919050565b60006200069e8262000671565b9050919050565b6000620006b28262000691565b9050919050565b620006c481620006a5565b8114620006d057600080fd5b50565b600081359050620006e481620006b9565b92915050565b6000602082840312156200070357620007026200066c565b5b60006200071384828501620006d3565b91505092915050565b6000819050919050565b62000731816200071c565b82525050565b6000819050919050565b6000620007626200075c620007568462000671565b62000737565b62000671565b9050919050565b6000620007768262000741565b9050919050565b60006200078a8262000769565b9050919050565b6200079c816200077d565b82525050565b6000620007af8262000769565b9050919050565b620007c181620007a2565b82525050565b6000606082019050620007de600083018662000726565b620007ed602083018562000791565b620007fc6040830184620007b6565b949350505050565b6200080f816200071c565b81146200081b57600080fd5b50565b6000813590506200082f8162000804565b92915050565b6000602082840312156200084e576200084d6200066c565b5b60006200085e848285016200081e565b91505092915050565b600081519050919050565b600082825260208201905092915050565b6000819050602082019050919050565b6200089e816200071c565b82525050565b620008af816200077d565b82525050565b620008c081620007a2565b82525050565b606082016000820151620008de600085018262000893565b506020820151620008f36020850182620008a4565b506040820151620009086040850182620008b5565b50505050565b60006200091c8383620008c6565b60608301905092915050565b6000602082019050919050565b6000620009428262000867565b6200094e818562000872565b93506200095b8362000883565b8060005b83811015620009925781516200097688826200090e565b9750620009838362000928565b9250506001810190506200095f565b5085935050505092915050565b60006020820190508181036000830152620009bb818462000935565b905092915050565b7f4e487b7100000000000000000000000000000000000000000000000000000000600052604160045260246000fd5b7f4e487b7100000000000000000000000000000000000000000000000000000000600052603260045260246000fd5b7f4e487b7100000000000000000000000000000000000000000000000000000000600052601160045260246000fd5b600062000a5d826200071c565b91507fffffffffffffffffffffffffffffffffffffffffffffffffffffffffffffffff820362000a925762000a9162000a21565b5b60018201905091905056fe608060405273a5b9d8a0b0fa04ba71bdd68069661ed5c08488846000806101000a81548173ffffffffffffffffffffffffffffffffffffffff021916908373ffffffffffffffffffffffffffffffffffffffff1602179055507f5945535f4f525f4e4f5f515545525900000000000000000000000000000000006001556040518060600160405280603f815260200162000e80603f913960029081620000a691906200033a565b506000600355348015620000b957600080fd5b5062000421565b600081519050919050565b7f4e487b7100000000000000000000000000000000000000000000000000000000600052604160045260246000fd5b7f4e487b7100000000000000000000000000000000000000000000000000000000600052602260045260246000fd5b600060028204905060018216806200014257607f821691505b602082108103620001585762000157620000fa565b5b50919050565b60008190508160005260206000209050919050565b60006020601f8301049050919050565b600082821b905092915050565b600060088302620001c27fffffffffffffffffffffffffffffffffffffffffffffffffffffffffffffffff8262000183565b620001ce868362000183565b95508019841693508086168417925050509392505050565b6000819050919050565b6000819050919050565b60006200021b620002156200020f84620001e6565b620001f0565b620001e6565b9050919050565b6000819050919050565b6200023783620001fa565b6200024f620002468262000222565b84845462000190565b825550505050565b600090565b6200026662000257565b620002738184846200022c565b505050565b5b818110156200029b576200028f6000826200025c565b60018101905062000279565b5050565b601f821115620002ea57620002b4816200015e565b620002bf8462000173565b81016020851015620002cf578190505b620002e7620002de8562000173565b83018262000278565b50505b505050565b600082821c905092915050565b60006200030f60001984600802620002ef565b1980831691505092915050565b60006200032a8383620002fc565b9150826002028217905092915050565b6200034582620000c0565b67ffffffffffffffff811115620003615762000360620000cb565b5b6200036d825462000129565b6200037a8282856200029f565b600060209050601f831160018114620003b257600084156200039d578287015190505b620003a985826200031c565b86555062000419565b601f198416620003c2866200015e565b60005b82811015620003ec57848901518255600182019150602085019450602081019050620003c5565b868310156200040c578489015162000408601f891682620002fc565b8355505b6001600288020188555050505b505050505050565b610a4f80620004316000396000f3fe608060405234801561001057600080fd5b50600436106100415760003560e01c8063606deecd14610046578063f25ffb2014610050578063fa7761521461006e575b600080fd5b61004e610078565b005b6100586101de565b6040516100659190610353565b60405180910390f35b610076610290565b005b42600381905550600073b4fbf271143f4fbf7b91a5ded31805e42b2208d690506000808054906101000a900473ffffffffffffffffffffffffffffffffffffffff1673ffffffffffffffffffffffffffffffffffffffff166311df92f1600154600354600286866040518663ffffffff1660e01b81526004016100ff959493929190610529565b6020604051808303816000875af115801561011e573d6000803e3d6000fd5b505050506040513d601f19601f8201168201806040525081019061014291906105be565b5060008054906101000a900473ffffffffffffffffffffffffffffffffffffffff1673ffffffffffffffffffffffffffffffffffffffff1663473c45fe6001546003546002601e6040518563ffffffff1660e01b81526004016101a89493929190610626565b600060405180830381600087803b1580156101c257600080fd5b505af11580156101d6573d6000803e3d6000fd5b505050505050565b60008060009054906101000a900473ffffffffffffffffffffffffffffffffffffffff1673ffffffffffffffffffffffffffffffffffffffff1663a9904f9b3060015460035460026040518563ffffffff1660e01b81526004016102459493929190610693565b61020060405180830381865afa158015610263573d6000803e3d6000fd5b505050506040513d601f19601f8201168201806040525081019061028791906109eb565b60c00151905090565b60008054906101000a900473ffffffffffffffffffffffffffffffffffffffff1673ffffffffffffffffffffffffffffffffffffffff16635e9a79a93060015460035460026040518563ffffffff1660e01b81526004016102f49493929190610693565b6020604051808303816000875af1158015610313573d6000803e3d6000fd5b505050506040513d601f19601f8201168201806040525081019061033791906105be565b50565b6000819050919050565b61034d8161033a565b82525050565b60006020820190506103686000830184610344565b92915050565b6000819050919050565b6103818161036e565b82525050565b6000819050919050565b61039a81610387565b82525050565b7f4e487b7100000000000000000000000000000000000000000000000000000000600052602260045260246000fd5b600060028204905060018216806103e757607f821691505b6020821081036103fa576103f96103a0565b5b50919050565b600082825260208201905092915050565b60008190508160005260206000209050919050565b60008154610433816103cf565b61043d8186610400565b94506001821660008114610458576001811461046e576104a1565b60ff1983168652811515602002860193506104a1565b61047785610411565b60005b838110156104995781548189015260018201915060208101905061047a565b808801955050505b50505092915050565b600073ffffffffffffffffffffffffffffffffffffffff82169050919050565b6000819050919050565b60006104ef6104ea6104e5846104aa565b6104ca565b6104aa565b9050919050565b6000610501826104d4565b9050919050565b6000610513826104f6565b9050919050565b61052381610508565b82525050565b600060a08201905061053e6000830188610378565b61054b6020830187610391565b818103604083015261055d8186610426565b905061056c606083018561051a565b6105796080830184610391565b9695505050505050565b6000604051905090565b600080fd5b61059b81610387565b81146105a657600080fd5b50565b6000815190506105b881610592565b92915050565b6000602082840312156105d4576105d361058d565b5b60006105e2848285016105a9565b91505092915050565b6000819050919050565b600061061061060b610606846105eb565b6104ca565b610387565b9050919050565b610620816105f5565b82525050565b600060808201905061063b6000830187610378565b6106486020830186610391565b818103604083015261065a8185610426565b90506106696060830184610617565b95945050505050565b600061067d826104aa565b9050919050565b61068d81610672565b82525050565b60006080820190506106a86000830187610684565b6106b56020830186610378565b6106c26040830185610391565b81810360608301526106d48184610426565b905095945050505050565b600080fd5b6000601f19601f8301169050919050565b7f4e487b7100000000000000000000000000000000000000000000000000000000600052604160045260246000fd5b61072d826106e4565b810181811067ffffffffffffffff8211171561074c5761074b6106f5565b5b80604052505050565b600061075f610583565b905061076b8282610724565b919050565b61077981610672565b811461078457600080fd5b50565b60008151905061079681610770565b92915050565b60006107a782610672565b9050919050565b6107b78161079c565b81146107c257600080fd5b50565b6000815190506107d4816107ae565b92915050565b60008115159050919050565b6107ef816107da565b81146107fa57600080fd5b50565b60008151905061080c816107e6565b92915050565b600060e08284031215610828576108276106df565b5b61083260e0610755565b90506000610842848285016107fd565b6000830152506020610856848285016107fd565b602083015250604061086a848285016107fd565b604083015250606061087e848285016107fd565b6060830152506080610892848285016107fd565b60808301525060a06108a6848285016105a9565b60a08301525060c06108ba848285016105a9565b60c08301525092915050565b6108cf8161033a565b81146108da57600080fd5b50565b6000815190506108ec816108c6565b92915050565b60006102008284031215610909576109086106df565b5b610914610140610755565b9050600061092484828501610787565b600083015250602061093884828501610787565b602083015250604061094c848285016107c5565b6040830152506060610960848285016107fd565b606083015250608061097484828501610812565b608083015250610160610989848285016108dd565b60a08301525061018061099e848285016108dd565b60c0830152506101a06109b3848285016105a9565b60e0830152506101c06109c8848285016105a9565b610100830152506101e06109de848285016105a9565b6101208301525092915050565b60006102008284031215610a0257610a0161058d565b5b6000610a10848285016108f2565b9150509291505056fea26469706673582212207c5e748ccbf045bb603d7bfcba1735407b4716975d4077363145d465612d046364736f6c634300081200334920616d20746865206f776e6572206f662074686973204e465420636f6c6c656374696f6e2c2068656c70206d6520746f2067657420766572696669656421a2646970667358221220f1a98aaa34a94f343082e948d7e3c137fb1a8ee4f57fe0055f870f5cbee4a7b164736f6c63430008120033",
  "linkReferences": {},
  "deployedLinkReferences": {}
}