{
  "_format": "hh-sol-artifact-1",
  "contractName": "xChainPolygon",
  "sourceName": "contracts/xChainPolygon.sol",
  "abi": [
    {
      "inputs": [
        {
          "internalType": "address",
          "name": "_nftHashiBridgeContract",
          "type": "address"
        }
      ],
      "stateMutability": "nonpayable",
      "type": "constructor"
    },
    {
      "inputs": [
        {
          "internalType": "uint32",
          "name": "destination",
          "type": "uint32"
        },
        {
          "internalType": "uint256",
          "name": "relayerFee",
          "type": "uint256"
        },
        {
          "internalType": "uint256",
          "name": "slippage",
          "type": "uint256"
        },
        {
          "internalType": "address",
          "name": "asset",
          "type": "address"
        },
        {
          "internalType": "address",
          "name": "to",
          "type": "address"
        },
        {
          "internalType": "uint256",
          "name": "tokenId",
          "type": "uint256"
        },
        {
          "internalType": "bool",
          "name": "isTokenURIIgnored",
          "type": "bool"
        }
      ],
      "name": "XChainCall",
      "outputs": [],
      "stateMutability": "nonpayable",
      "type": "function"
    }
  ],
  "bytecode": "0x608060405234801561001057600080fd5b50604051610508380380610508833981810160405281019061003291906100db565b806000806101000a81548173ffffffffffffffffffffffffffffffffffffffff021916908373ffffffffffffffffffffffffffffffffffffffff16021790555050610108565b600080fd5b600073ffffffffffffffffffffffffffffffffffffffff82169050919050565b60006100a88261007d565b9050919050565b6100b88161009d565b81146100c357600080fd5b50565b6000815190506100d5816100af565b92915050565b6000602082840312156100f1576100f0610078565b5b60006100ff848285016100c6565b91505092915050565b6103f1806101176000396000f3fe608060405234801561001057600080fd5b506004361061002b5760003560e01c80638eabdc0914610030575b600080fd5b61004a6004803603810190610045919061020b565b61004c565b005b60008054906101000a900473ffffffffffffffffffffffffffffffffffffffff1673ffffffffffffffffffffffffffffffffffffffff1663802ef739888888888888886040518863ffffffff1660e01b81526004016100b197969594939291906102e9565b6020604051808303816000875af11580156100d0573d6000803e3d6000fd5b505050506040513d601f19601f820116820180604052508101906100f4919061038e565b5050505050505050565b600080fd5b600063ffffffff82169050919050565b61011c81610103565b811461012757600080fd5b50565b60008135905061013981610113565b92915050565b6000819050919050565b6101528161013f565b811461015d57600080fd5b50565b60008135905061016f81610149565b92915050565b600073ffffffffffffffffffffffffffffffffffffffff82169050919050565b60006101a082610175565b9050919050565b6101b081610195565b81146101bb57600080fd5b50565b6000813590506101cd816101a7565b92915050565b60008115159050919050565b6101e8816101d3565b81146101f357600080fd5b50565b600081359050610205816101df565b92915050565b600080600080600080600060e0888a03121561022a576102296100fe565b5b60006102388a828b0161012a565b97505060206102498a828b01610160565b965050604061025a8a828b01610160565b955050606061026b8a828b016101be565b945050608061027c8a828b016101be565b93505060a061028d8a828b01610160565b92505060c061029e8a828b016101f6565b91505092959891949750929550565b6102b681610103565b82525050565b6102c58161013f565b82525050565b6102d481610195565b82525050565b6102e3816101d3565b82525050565b600060e0820190506102fe600083018a6102ad565b61030b60208301896102bc565b61031860408301886102bc565b61032560608301876102cb565b61033260808301866102cb565b61033f60a08301856102bc565b61034c60c08301846102da565b98975050505050505050565b6000819050919050565b61036b81610358565b811461037657600080fd5b50565b60008151905061038881610362565b92915050565b6000602082840312156103a4576103a36100fe565b5b60006103b284828501610379565b9150509291505056fea2646970667358221220632e0e27e8f70deaecb513df02e081851ad616e08918ba09a03fcda61eb6e54164736f6c63430008120033",
  "linkReferences": {},
  "deployedLinkReferences": {}
}