{
  "_format": "hh-sol-artifact-1",
  "contractName": "NFTStake",
  "sourceName": "contracts/Stake.sol",
  "abi": [
    {
      "inputs": [
        {
          "internalType": "contract IERC721",
          "name": "_nftContract",
          "type": "address"
        },
        {
          "internalType": "contract ERC20",
          "name": "_token",
          "type": "address"
        }
      ],
      "stateMutability": "nonpayable",
      "type": "constructor"
    },
    {
      "anonymous": false,
      "inputs": [
        {
          "indexed": false,
          "internalType": "address",
          "name": "sender",
          "type": "address"
        },
        {
          "indexed": false,
          "internalType": "address",
          "name": "to",
          "type": "address"
        },
        {
          "indexed": false,
          "internalType": "uint256",
          "name": "amount",
          "type": "uint256"
        }
      ],
      "name": "TransferSent",
      "type": "event"
    },
    {
      "inputs": [
        {
          "internalType": "address",
          "name": "_staker",
          "type": "address"
        }
      ],
      "name": "availableRewards",
      "outputs": [
        {
          "internalType": "uint256",
          "name": "",
          "type": "uint256"
        }
      ],
      "stateMutability": "view",
      "type": "function"
    },
    {
      "inputs": [
        {
          "internalType": "contract IERC20",
          "name": "_token",
          "type": "address"
        },
        {
          "internalType": "contract IERC721",
          "name": "_collection",
          "type": "address"
        }
      ],
      "name": "changeTokens",
      "outputs": [],
      "stateMutability": "nonpayable",
      "type": "function"
    },
    {
      "inputs": [],
      "name": "claimRewards",
      "outputs": [],
      "stateMutability": "nonpayable",
      "type": "function"
    },
    {
      "inputs": [
        {
          "internalType": "address",
          "name": "_user",
          "type": "address"
        }
      ],
      "name": "getStakedTokens",
      "outputs": [
        {
          "components": [
            {
              "internalType": "address",
              "name": "staker",
              "type": "address"
            },
            {
              "internalType": "uint256",
              "name": "tokenId",
              "type": "uint256"
            }
          ],
          "internalType": "struct NFTStake.StakedToken[]",
          "name": "",
          "type": "tuple[]"
        }
      ],
      "stateMutability": "view",
      "type": "function"
    },
    {
      "inputs": [],
      "name": "getZeroAdrress",
      "outputs": [
        {
          "internalType": "address",
          "name": "",
          "type": "address"
        }
      ],
      "stateMutability": "pure",
      "type": "function"
    },
    {
      "inputs": [],
      "name": "nftContract",
      "outputs": [
        {
          "internalType": "contract IERC721",
          "name": "",
          "type": "address"
        }
      ],
      "stateMutability": "view",
      "type": "function"
    },
    {
      "inputs": [
        {
          "internalType": "address",
          "name": "_operator",
          "type": "address"
        },
        {
          "internalType": "address",
          "name": "_from",
          "type": "address"
        },
        {
          "internalType": "uint256",
          "name": "_tokenId",
          "type": "uint256"
        },
        {
          "internalType": "bytes",
          "name": "_data",
          "type": "bytes"
        }
      ],
      "name": "onERC721Received",
      "outputs": [
        {
          "internalType": "bytes4",
          "name": "",
          "type": "bytes4"
        }
      ],
      "stateMutability": "nonpayable",
      "type": "function"
    },
    {
      "inputs": [],
      "name": "rewardsToken",
      "outputs": [
        {
          "internalType": "contract IERC20",
          "name": "",
          "type": "address"
        }
      ],
      "stateMutability": "view",
      "type": "function"
    },
    {
      "inputs": [
        {
          "internalType": "uint256",
          "name": "_tokenId",
          "type": "uint256"
        }
      ],
      "name": "stake",
      "outputs": [],
      "stateMutability": "nonpayable",
      "type": "function"
    },
    {
      "inputs": [
        {
          "internalType": "uint256",
          "name": "",
          "type": "uint256"
        }
      ],
      "name": "stakerAddress",
      "outputs": [
        {
          "internalType": "address",
          "name": "",
          "type": "address"
        }
      ],
      "stateMutability": "view",
      "type": "function"
    },
    {
      "inputs": [
        {
          "internalType": "address",
          "name": "",
          "type": "address"
        }
      ],
      "name": "stakers",
      "outputs": [
        {
          "internalType": "uint256",
          "name": "amountStaked",
          "type": "uint256"
        },
        {
          "internalType": "uint256",
          "name": "timeOfLastUpdate",
          "type": "uint256"
        },
        {
          "internalType": "uint256",
          "name": "unclaimedRewards",
          "type": "uint256"
        }
      ],
      "stateMutability": "view",
      "type": "function"
    },
    {
      "inputs": [
        {
          "internalType": "uint256",
          "name": "_tokenId",
          "type": "uint256"
        }
      ],
      "name": "withdraw",
      "outputs": [],
      "stateMutability": "nonpayable",
      "type": "function"
    }
  ],
  "bytecode": "0x60806040526103e86007553480156200001757600080fd5b50604051620021523803806200215283398181016040528101906200003d9190620001d3565b600160008190555033600460006101000a81548173ffffffffffffffffffffffffffffffffffffffff021916908373ffffffffffffffffffffffffffffffffffffffff16021790555081600160006101000a81548173ffffffffffffffffffffffffffffffffffffffff021916908373ffffffffffffffffffffffffffffffffffffffff16021790555080600560006101000a81548173ffffffffffffffffffffffffffffffffffffffff021916908373ffffffffffffffffffffffffffffffffffffffff16021790555050506200021a565b600080fd5b600073ffffffffffffffffffffffffffffffffffffffff82169050919050565b6000620001428262000115565b9050919050565b6000620001568262000135565b9050919050565b620001688162000149565b81146200017457600080fd5b50565b60008151905062000188816200015d565b92915050565b60006200019b8262000135565b9050919050565b620001ad816200018e565b8114620001b957600080fd5b50565b600081519050620001cd81620001a2565b92915050565b60008060408385031215620001ed57620001ec62000110565b5b6000620001fd8582860162000177565b92505060206200021085828601620001bc565b9150509250929050565b611f28806200022a6000396000f3fe608060405234801561001057600080fd5b50600436106100b45760003560e01c80639570c6cd116100715780639570c6cd146101a15780639f66dd1d146101bd578063a694fc3a146101db578063d1af0c7d146101f7578063d56d229d14610215578063f854a27f14610233576100b4565b8063150b7a02146100b95780632e1a7d4d146100e9578063372500ab1461010557806363c28db11461010f5780639168ae721461013f5780639406704514610171575b600080fd5b6100d360048036038101906100ce9190611563565b610263565b6040516100e09190611626565b60405180910390f35b61010360048036038101906100fe9190611641565b610291565b005b61010d610751565b005b6101296004803603810190610124919061166e565b6108ad565b6040516101369190611797565b60405180910390f35b6101596004803603810190610154919061166e565b610c13565b604051610168939291906117c8565b60405180910390f35b61018b60048036038101906101869190611641565b610c3d565b604051610198919061180e565b60405180910390f35b6101bb60048036038101906101b691906118a5565b610c70565b005b6101c5610d1c565b6040516101d2919061180e565b60405180910390f35b6101f560048036038101906101f09190611641565b610d21565b005b6101ff611058565b60405161020c9190611944565b60405180910390f35b61021d61107e565b60405161022a9190611980565b60405180910390f35b61024d6004803603810190610248919061166e565b6110a4565b60405161025a919061199b565b60405180910390f35b60007f150b7a023d4804d13e8c85fb27262cb750cf6ba9f9dd3bb30d90f482ceeb4b1f905095945050505050565b610299611108565b6000600860003373ffffffffffffffffffffffffffffffffffffffff1673ffffffffffffffffffffffffffffffffffffffff168152602001908152602001600020600001541161031e576040517f08c379a000000000000000000000000000000000000000000000000000000000815260040161031590611a13565b60405180910390fd5b600061032933611157565b905080600860003373ffffffffffffffffffffffffffffffffffffffff1673ffffffffffffffffffffffffffffffffffffffff168152602001908152602001600020600301600082825461037d9190611a62565b925050819055506000805b600860003373ffffffffffffffffffffffffffffffffffffffff1673ffffffffffffffffffffffffffffffffffffffff1681526020019081526020016000206001018054905081101561051b5783600860003373ffffffffffffffffffffffffffffffffffffffff1673ffffffffffffffffffffffffffffffffffffffff168152602001908152602001600020600101828154811061042a57610429611a96565b5b9060005260206000209060020201600101541480156104fb5750600073ffffffffffffffffffffffffffffffffffffffff16600860003373ffffffffffffffffffffffffffffffffffffffff1673ffffffffffffffffffffffffffffffffffffffff16815260200190815260200160002060010182815481106104b0576104af611a96565b5b906000526020600020906002020160000160009054906101000a900473ffffffffffffffffffffffffffffffffffffffff1673ffffffffffffffffffffffffffffffffffffffff1614155b156105085780915061051b565b808061051390611ac5565b915050610388565b506000600860003373ffffffffffffffffffffffffffffffffffffffff1673ffffffffffffffffffffffffffffffffffffffff168152602001908152602001600020600101828154811061057257610571611a96565b5b906000526020600020906002020160000160006101000a81548173ffffffffffffffffffffffffffffffffffffffff021916908373ffffffffffffffffffffffffffffffffffffffff160217905550600860003373ffffffffffffffffffffffffffffffffffffffff1673ffffffffffffffffffffffffffffffffffffffff168152602001908152602001600020600001600081548092919061061490611b0d565b919050555060006009600085815260200190815260200160002060006101000a81548173ffffffffffffffffffffffffffffffffffffffff021916908373ffffffffffffffffffffffffffffffffffffffff160217905550600160009054906101000a900473ffffffffffffffffffffffffffffffffffffffff1673ffffffffffffffffffffffffffffffffffffffff166342842e0e3033866040518463ffffffff1660e01b81526004016106cb93929190611b36565b600060405180830381600087803b1580156106e557600080fd5b505af11580156106f9573d6000803e3d6000fd5b5050505042600860003373ffffffffffffffffffffffffffffffffffffffff1673ffffffffffffffffffffffffffffffffffffffff16815260200190815260200160002060020181905550505061074e611215565b50565b6000600860003373ffffffffffffffffffffffffffffffffffffffff1673ffffffffffffffffffffffffffffffffffffffff1681526020019081526020016000206003015461079f33611157565b6107a99190611a62565b9050600081116107ee576040517f08c379a00000000000000000000000000000000000000000000000000000000081526004016107e590611bb9565b60405180910390fd5b42600860003373ffffffffffffffffffffffffffffffffffffffff1673ffffffffffffffffffffffffffffffffffffffff168152602001908152602001600020600201819055506000600860003373ffffffffffffffffffffffffffffffffffffffff1673ffffffffffffffffffffffffffffffffffffffff168152602001908152602001600020600301819055506108aa600560009054906101000a900473ffffffffffffffffffffffffffffffffffffffff16338361121f565b50565b60606000600860008473ffffffffffffffffffffffffffffffffffffffff1673ffffffffffffffffffffffffffffffffffffffff168152602001908152602001600020600001541115610bb6576000600860008473ffffffffffffffffffffffffffffffffffffffff1673ffffffffffffffffffffffffffffffffffffffff1681526020019081526020016000206000015467ffffffffffffffff81111561095857610957611bd9565b5b60405190808252806020026020018201604052801561099157816020015b61097e611430565b8152602001906001900390816109765790505b5090506000805b600860008673ffffffffffffffffffffffffffffffffffffffff1673ffffffffffffffffffffffffffffffffffffffff16815260200190815260200160002060010180549050811015610bab57600073ffffffffffffffffffffffffffffffffffffffff16600860008773ffffffffffffffffffffffffffffffffffffffff1673ffffffffffffffffffffffffffffffffffffffff1681526020019081526020016000206001018281548110610a5157610a50611a96565b5b906000526020600020906002020160000160009054906101000a900473ffffffffffffffffffffffffffffffffffffffff1673ffffffffffffffffffffffffffffffffffffffff1614610b9857600860008673ffffffffffffffffffffffffffffffffffffffff1673ffffffffffffffffffffffffffffffffffffffff1681526020019081526020016000206001018181548110610af257610af1611a96565b5b90600052602060002090600202016040518060400160405290816000820160009054906101000a900473ffffffffffffffffffffffffffffffffffffffff1673ffffffffffffffffffffffffffffffffffffffff1673ffffffffffffffffffffffffffffffffffffffff168152602001600182015481525050838381518110610b7e57610b7d611a96565b5b60200260200101819052508180610b9490611ac5565b9250505b8080610ba390611ac5565b915050610998565b508192505050610c0e565b600067ffffffffffffffff811115610bd157610bd0611bd9565b5b604051908082528060200260200182016040528015610c0a57816020015b610bf7611430565b815260200190600190039081610bef5790505b5090505b919050565b60086020528060005260406000206000915090508060000154908060020154908060030154905083565b60096020528060005260406000206000915054906101000a900473ffffffffffffffffffffffffffffffffffffffff1681565b3373ffffffffffffffffffffffffffffffffffffffff16600460009054906101000a9050505080600160006101000a81548173ffffffffffffffffffffffffffffffffffffffff021916908373ffffffffffffffffffffffffffffffffffffffff16021790555081600560006101000a81548173ffffffffffffffffffffffffffffffffffffffff021916908373ffffffffffffffffffffffffffffffffffffffff1602179055505050565b600090565b610d29611108565b6000600860003373ffffffffffffffffffffffffffffffffffffffff1673ffffffffffffffffffffffffffffffffffffffff168152602001908152602001600020600001541115610ddc576000610d7f33611157565b905080600860003373ffffffffffffffffffffffffffffffffffffffff1673ffffffffffffffffffffffffffffffffffffffff1681526020019081526020016000206003016000828254610dd39190611a62565b92505081905550505b600160009054906101000a900473ffffffffffffffffffffffffffffffffffffffff1673ffffffffffffffffffffffffffffffffffffffff166342842e0e3330846040518463ffffffff1660e01b8152600401610e3b93929190611b36565b600060405180830381600087803b158015610e5557600080fd5b505af1158015610e69573d6000803e3d6000fd5b50505050600060405180604001604052803373ffffffffffffffffffffffffffffffffffffffff168152602001838152509050600860003373ffffffffffffffffffffffffffffffffffffffff1673ffffffffffffffffffffffffffffffffffffffff16815260200190815260200160002060010181908060018154018082558091505060019003906000526020600020906002020160009091909190915060008201518160000160006101000a81548173ffffffffffffffffffffffffffffffffffffffff021916908373ffffffffffffffffffffffffffffffffffffffff160217905550602082015181600101555050600860003373ffffffffffffffffffffffffffffffffffffffff1673ffffffffffffffffffffffffffffffffffffffff1681526020019081526020016000206000016000815480929190610fae90611ac5565b9190505550336009600084815260200190815260200160002060006101000a81548173ffffffffffffffffffffffffffffffffffffffff021916908373ffffffffffffffffffffffffffffffffffffffff16021790555042600860003373ffffffffffffffffffffffffffffffffffffffff1673ffffffffffffffffffffffffffffffffffffffff1681526020019081526020016000206002018190555050611055611215565b50565b600560009054906101000a900473ffffffffffffffffffffffffffffffffffffffff1681565b600160009054906101000a900473ffffffffffffffffffffffffffffffffffffffff1681565b600080600860008473ffffffffffffffffffffffffffffffffffffffff1673ffffffffffffffffffffffffffffffffffffffff168152602001908152602001600020600301546110f384611157565b6110fd9190611a62565b905080915050919050565b60026000540361114d576040517f08c379a000000000000000000000000000000000000000000000000000000000815260040161114490611c54565b60405180910390fd5b6002600081905550565b6000610e10600754600860008573ffffffffffffffffffffffffffffffffffffffff1673ffffffffffffffffffffffffffffffffffffffff16815260200190815260200160002060000154600860008673ffffffffffffffffffffffffffffffffffffffff1673ffffffffffffffffffffffffffffffffffffffff16815260200190815260200160002060020154426111f09190611c74565b6111fa9190611ca8565b6112049190611ca8565b61120e9190611d19565b9050919050565b6001600081905550565b600460009054906101000a900473ffffffffffffffffffffffffffffffffffffffff1673ffffffffffffffffffffffffffffffffffffffff163373ffffffffffffffffffffffffffffffffffffffff16146112af576040517f08c379a00000000000000000000000000000000000000000000000000000000081526004016112a690611d96565b60405180910390fd5b60008373ffffffffffffffffffffffffffffffffffffffff166370a08231306040518263ffffffff1660e01b81526004016112ea919061180e565b602060405180830381865afa158015611307573d6000803e3d6000fd5b505050506040513d601f19601f8201168201806040525081019061132b9190611dcb565b905080821115611370576040517f08c379a000000000000000000000000000000000000000000000000000000000815260040161136790611e44565b60405180910390fd5b8373ffffffffffffffffffffffffffffffffffffffff1663a9059cbb84846040518363ffffffff1660e01b81526004016113ab929190611e64565b6020604051808303816000875af11580156113ca573d6000803e3d6000fd5b505050506040513d601f19601f820116820180604052508101906113ee9190611ec5565b507ffda3a3e0e1479b43cb1c701f7576187f4c4ad80768d627387e00184302f7d88e33848460405161142293929190611b36565b60405180910390a150505050565b6040518060400160405280600073ffffffffffffffffffffffffffffffffffffffff168152602001600081525090565b600080fd5b600080fd5b600073ffffffffffffffffffffffffffffffffffffffff82169050919050565b60006114958261146a565b9050919050565b6114a58161148a565b81146114b057600080fd5b50565b6000813590506114c28161149c565b92915050565b6000819050919050565b6114db816114c8565b81146114e657600080fd5b50565b6000813590506114f8816114d2565b92915050565b600080fd5b600080fd5b600080fd5b60008083601f840112611523576115226114fe565b5b8235905067ffffffffffffffff8111156115405761153f611503565b5b60208301915083600182028301111561155c5761155b611508565b5b9250929050565b60008060008060006080868803121561157f5761157e611460565b5b600061158d888289016114b3565b955050602061159e888289016114b3565b94505060406115af888289016114e9565b935050606086013567ffffffffffffffff8111156115d0576115cf611465565b5b6115dc8882890161150d565b92509250509295509295909350565b60007fffffffff0000000000000000000000000000000000000000000000000000000082169050919050565b611620816115eb565b82525050565b600060208201905061163b6000830184611617565b92915050565b60006020828403121561165757611656611460565b5b6000611665848285016114e9565b91505092915050565b60006020828403121561168457611683611460565b5b6000611692848285016114b3565b91505092915050565b600081519050919050565b600082825260208201905092915050565b6000819050602082019050919050565b6116d08161148a565b82525050565b6116df816114c8565b82525050565b6040820160008201516116fb60008501826116c7565b50602082015161170e60208501826116d6565b50505050565b600061172083836116e5565b60408301905092915050565b6000602082019050919050565b60006117448261169b565b61174e81856116a6565b9350611759836116b7565b8060005b8381101561178a5781516117718882611714565b975061177c8361172c565b92505060018101905061175d565b5085935050505092915050565b600060208201905081810360008301526117b18184611739565b905092915050565b6117c2816114c8565b82525050565b60006060820190506117dd60008301866117b9565b6117ea60208301856117b9565b6117f760408301846117b9565b949350505050565b6118088161148a565b82525050565b600060208201905061182360008301846117ff565b92915050565b60006118348261148a565b9050919050565b61184481611829565b811461184f57600080fd5b50565b6000813590506118618161183b565b92915050565b60006118728261148a565b9050919050565b61188281611867565b811461188d57600080fd5b50565b60008135905061189f81611879565b92915050565b600080604083850312156118bc576118bb611460565b5b60006118ca85828601611852565b92505060206118db85828601611890565b9150509250929050565b6000819050919050565b600061190a6119056119008461146a565b6118e5565b61146a565b9050919050565b600061191c826118ef565b9050919050565b600061192e82611911565b9050919050565b61193e81611923565b82525050565b60006020820190506119596000830184611935565b92915050565b600061196a82611911565b9050919050565b61197a8161195f565b82525050565b60006020820190506119956000830184611971565b92915050565b60006020820190506119b060008301846117b9565b92915050565b600082825260208201905092915050565b7f596f752068617665206e6f20746f6b656e73207374616b656400000000000000600082015250565b60006119fd6019836119b6565b9150611a08826119c7565b602082019050919050565b60006020820190508181036000830152611a2c816119f0565b9050919050565b7f4e487b7100000000000000000000000000000000000000000000000000000000600052601160045260246000fd5b6000611a6d826114c8565b9150611a78836114c8565b9250828201905080821115611a9057611a8f611a33565b5b92915050565b7f4e487b7100000000000000000000000000000000000000000000000000000000600052603260045260246000fd5b6000611ad0826114c8565b91507fffffffffffffffffffffffffffffffffffffffffffffffffffffffffffffffff8203611b0257611b01611a33565b5b600182019050919050565b6000611b18826114c8565b915060008203611b2b57611b2a611a33565b5b600182039050919050565b6000606082019050611b4b60008301866117ff565b611b5860208301856117ff565b611b6560408301846117b9565b949350505050565b7f596f752068617665206e6f207265776172647320746f20636c61696d00000000600082015250565b6000611ba3601c836119b6565b9150611bae82611b6d565b602082019050919050565b60006020820190508181036000830152611bd281611b96565b9050919050565b7f4e487b7100000000000000000000000000000000000000000000000000000000600052604160045260246000fd5b7f5265656e7472616e637947756172643a207265656e7472616e742063616c6c00600082015250565b6000611c3e601f836119b6565b9150611c4982611c08565b602082019050919050565b60006020820190508181036000830152611c6d81611c31565b9050919050565b6000611c7f826114c8565b9150611c8a836114c8565b9250828203905081811115611ca257611ca1611a33565b5b92915050565b6000611cb3826114c8565b9150611cbe836114c8565b9250828202611ccc816114c8565b91508282048414831517611ce357611ce2611a33565b5b5092915050565b7f4e487b7100000000000000000000000000000000000000000000000000000000600052601260045260246000fd5b6000611d24826114c8565b9150611d2f836114c8565b925082611d3f57611d3e611cea565b5b828204905092915050565b7f4f6e6c79206f776e65722063616e2077697468647261772066756e6473000000600082015250565b6000611d80601d836119b6565b9150611d8b82611d4a565b602082019050919050565b60006020820190508181036000830152611daf81611d73565b9050919050565b600081519050611dc5816114d2565b92915050565b600060208284031215611de157611de0611460565b5b6000611def84828501611db6565b91505092915050565b7f62616c616e6365206973206c6f77000000000000000000000000000000000000600082015250565b6000611e2e600e836119b6565b9150611e3982611df8565b602082019050919050565b60006020820190508181036000830152611e5d81611e21565b9050919050565b6000604082019050611e7960008301856117ff565b611e8660208301846117b9565b9392505050565b60008115159050919050565b611ea281611e8d565b8114611ead57600080fd5b50565b600081519050611ebf81611e99565b92915050565b600060208284031215611edb57611eda611460565b5b6000611ee984828501611eb0565b9150509291505056fea2646970667358221220bd4393a7bae05675bc2c31bae939573e20e729d19087623937747ceed8e94ce164736f6c63430008120033",
  "linkReferences": {},
  "deployedLinkReferences": {}
}