{
  "_format": "hh-sol-artifact-1",
  "contractName": "NFTStake",
  "sourceName": "contracts/Stake.sol",
  "abi": [
    {
      "inputs": [
        {
          "internalType": "contract IERC721",
          "name": "_nftContract",
          "type": "address"
        },
        {
          "internalType": "contract ERC20",
          "name": "_token",
          "type": "address"
        }
      ],
      "stateMutability": "nonpayable",
      "type": "constructor"
    },
    {
      "anonymous": false,
      "inputs": [
        {
          "indexed": false,
          "internalType": "address",
          "name": "sender",
          "type": "address"
        },
        {
          "indexed": false,
          "internalType": "address",
          "name": "to",
          "type": "address"
        },
        {
          "indexed": false,
          "internalType": "uint256",
          "name": "amount",
          "type": "uint256"
        }
      ],
      "name": "TransferSent",
      "type": "event"
    },
    {
      "inputs": [
        {
          "internalType": "address",
          "name": "_staker",
          "type": "address"
        }
      ],
      "name": "availableRewards",
      "outputs": [
        {
          "internalType": "uint256",
          "name": "",
          "type": "uint256"
        }
      ],
      "stateMutability": "view",
      "type": "function"
    },
    {
      "inputs": [],
      "name": "claimRewards",
      "outputs": [],
      "stateMutability": "nonpayable",
      "type": "function"
    },
    {
      "inputs": [
        {
          "internalType": "address",
          "name": "_user",
          "type": "address"
        }
      ],
      "name": "getStakedTokens",
      "outputs": [
        {
          "components": [
            {
              "internalType": "address",
              "name": "staker",
              "type": "address"
            },
            {
              "internalType": "uint256",
              "name": "tokenId",
              "type": "uint256"
            }
          ],
          "internalType": "struct NFTStake.StakedToken[]",
          "name": "",
          "type": "tuple[]"
        }
      ],
      "stateMutability": "view",
      "type": "function"
    },
    {
      "inputs": [],
      "name": "getZeroAdrress",
      "outputs": [
        {
          "internalType": "address",
          "name": "",
          "type": "address"
        }
      ],
      "stateMutability": "pure",
      "type": "function"
    },
    {
      "inputs": [],
      "name": "nftContract",
      "outputs": [
        {
          "internalType": "contract IERC721",
          "name": "",
          "type": "address"
        }
      ],
      "stateMutability": "view",
      "type": "function"
    },
    {
      "inputs": [],
      "name": "rewardsToken",
      "outputs": [
        {
          "internalType": "contract IERC20",
          "name": "",
          "type": "address"
        }
      ],
      "stateMutability": "view",
      "type": "function"
    },
    {
      "inputs": [
        {
          "internalType": "uint256",
          "name": "_tokenId",
          "type": "uint256"
        }
      ],
      "name": "stake",
      "outputs": [],
      "stateMutability": "nonpayable",
      "type": "function"
    },
    {
      "inputs": [
        {
          "internalType": "uint256",
          "name": "",
          "type": "uint256"
        }
      ],
      "name": "stakerAddress",
      "outputs": [
        {
          "internalType": "address",
          "name": "",
          "type": "address"
        }
      ],
      "stateMutability": "view",
      "type": "function"
    },
    {
      "inputs": [
        {
          "internalType": "address",
          "name": "",
          "type": "address"
        }
      ],
      "name": "stakers",
      "outputs": [
        {
          "internalType": "uint256",
          "name": "amountStaked",
          "type": "uint256"
        },
        {
          "internalType": "uint256",
          "name": "timeOfLastUpdate",
          "type": "uint256"
        },
        {
          "internalType": "uint256",
          "name": "unclaimedRewards",
          "type": "uint256"
        }
      ],
      "stateMutability": "view",
      "type": "function"
    },
    {
      "inputs": [
        {
          "internalType": "uint256",
          "name": "_tokenId",
          "type": "uint256"
        }
      ],
      "name": "withdraw",
      "outputs": [],
      "stateMutability": "nonpayable",
      "type": "function"
    }
  ],
  "bytecode": "0x60806040526103e86007553480156200001757600080fd5b5060405162001e1238038062001e1283398181016040528101906200003d9190620001d3565b600160008190555033600460006101000a81548173ffffffffffffffffffffffffffffffffffffffff021916908373ffffffffffffffffffffffffffffffffffffffff16021790555081600160006101000a81548173ffffffffffffffffffffffffffffffffffffffff021916908373ffffffffffffffffffffffffffffffffffffffff16021790555080600560006101000a81548173ffffffffffffffffffffffffffffffffffffffff021916908373ffffffffffffffffffffffffffffffffffffffff16021790555050506200021a565b600080fd5b600073ffffffffffffffffffffffffffffffffffffffff82169050919050565b6000620001428262000115565b9050919050565b6000620001568262000135565b9050919050565b620001688162000149565b81146200017457600080fd5b50565b60008151905062000188816200015d565b92915050565b60006200019b8262000135565b9050919050565b620001ad816200018e565b8114620001b957600080fd5b50565b600081519050620001cd81620001a2565b92915050565b60008060408385031215620001ed57620001ec62000110565b5b6000620001fd8582860162000177565b92505060206200021085828601620001bc565b9150509250929050565b611be8806200022a6000396000f3fe608060405234801561001057600080fd5b506004361061009e5760003560e01c80639f66dd1d116100665780639f66dd1d1461015b578063a694fc3a14610179578063d1af0c7d14610195578063d56d229d146101b3578063f854a27f146101d15761009e565b80632e1a7d4d146100a3578063372500ab146100bf57806363c28db1146100c95780639168ae72146100f9578063940670451461012b575b600080fd5b6100bd60048036038101906100b8919061135f565b610201565b005b6100c76106c1565b005b6100e360048036038101906100de91906113ea565b61081d565b6040516100f09190611513565b60405180910390f35b610113600480360381019061010e91906113ea565b610b83565b60405161012293929190611544565b60405180910390f35b6101456004803603810190610140919061135f565b610bad565b604051610152919061158a565b60405180910390f35b610163610be0565b604051610170919061158a565b60405180910390f35b610193600480360381019061018e919061135f565b610be5565b005b61019d610f1c565b6040516101aa9190611604565b60405180910390f35b6101bb610f42565b6040516101c89190611640565b60405180910390f35b6101eb60048036038101906101e691906113ea565b610f68565b6040516101f8919061165b565b60405180910390f35b610209610fcc565b6000600860003373ffffffffffffffffffffffffffffffffffffffff1673ffffffffffffffffffffffffffffffffffffffff168152602001908152602001600020600001541161028e576040517f08c379a0000000000000000000000000000000000000000000000000000000008152600401610285906116d3565b60405180910390fd5b60006102993361101b565b905080600860003373ffffffffffffffffffffffffffffffffffffffff1673ffffffffffffffffffffffffffffffffffffffff16815260200190815260200160002060030160008282546102ed9190611722565b925050819055506000805b600860003373ffffffffffffffffffffffffffffffffffffffff1673ffffffffffffffffffffffffffffffffffffffff1681526020019081526020016000206001018054905081101561048b5783600860003373ffffffffffffffffffffffffffffffffffffffff1673ffffffffffffffffffffffffffffffffffffffff168152602001908152602001600020600101828154811061039a57610399611756565b5b90600052602060002090600202016001015414801561046b5750600073ffffffffffffffffffffffffffffffffffffffff16600860003373ffffffffffffffffffffffffffffffffffffffff1673ffffffffffffffffffffffffffffffffffffffff16815260200190815260200160002060010182815481106104205761041f611756565b5b906000526020600020906002020160000160009054906101000a900473ffffffffffffffffffffffffffffffffffffffff1673ffffffffffffffffffffffffffffffffffffffff1614155b156104785780915061048b565b808061048390611785565b9150506102f8565b506000600860003373ffffffffffffffffffffffffffffffffffffffff1673ffffffffffffffffffffffffffffffffffffffff16815260200190815260200160002060010182815481106104e2576104e1611756565b5b906000526020600020906002020160000160006101000a81548173ffffffffffffffffffffffffffffffffffffffff021916908373ffffffffffffffffffffffffffffffffffffffff160217905550600860003373ffffffffffffffffffffffffffffffffffffffff1673ffffffffffffffffffffffffffffffffffffffff1681526020019081526020016000206000016000815480929190610584906117cd565b919050555060006009600085815260200190815260200160002060006101000a81548173ffffffffffffffffffffffffffffffffffffffff021916908373ffffffffffffffffffffffffffffffffffffffff160217905550600160009054906101000a900473ffffffffffffffffffffffffffffffffffffffff1673ffffffffffffffffffffffffffffffffffffffff166342842e0e3033866040518463ffffffff1660e01b815260040161063b939291906117f6565b600060405180830381600087803b15801561065557600080fd5b505af1158015610669573d6000803e3d6000fd5b5050505042600860003373ffffffffffffffffffffffffffffffffffffffff1673ffffffffffffffffffffffffffffffffffffffff1681526020019081526020016000206002018190555050506106be6110d9565b50565b6000600860003373ffffffffffffffffffffffffffffffffffffffff1673ffffffffffffffffffffffffffffffffffffffff1681526020019081526020016000206003015461070f3361101b565b6107199190611722565b90506000811161075e576040517f08c379a000000000000000000000000000000000000000000000000000000000815260040161075590611879565b60405180910390fd5b42600860003373ffffffffffffffffffffffffffffffffffffffff1673ffffffffffffffffffffffffffffffffffffffff168152602001908152602001600020600201819055506000600860003373ffffffffffffffffffffffffffffffffffffffff1673ffffffffffffffffffffffffffffffffffffffff1681526020019081526020016000206003018190555061081a600560009054906101000a900473ffffffffffffffffffffffffffffffffffffffff1633836110e3565b50565b60606000600860008473ffffffffffffffffffffffffffffffffffffffff1673ffffffffffffffffffffffffffffffffffffffff168152602001908152602001600020600001541115610b26576000600860008473ffffffffffffffffffffffffffffffffffffffff1673ffffffffffffffffffffffffffffffffffffffff1681526020019081526020016000206000015467ffffffffffffffff8111156108c8576108c7611899565b5b60405190808252806020026020018201604052801561090157816020015b6108ee6112f4565b8152602001906001900390816108e65790505b5090506000805b600860008673ffffffffffffffffffffffffffffffffffffffff1673ffffffffffffffffffffffffffffffffffffffff16815260200190815260200160002060010180549050811015610b1b57600073ffffffffffffffffffffffffffffffffffffffff16600860008773ffffffffffffffffffffffffffffffffffffffff1673ffffffffffffffffffffffffffffffffffffffff16815260200190815260200160002060010182815481106109c1576109c0611756565b5b906000526020600020906002020160000160009054906101000a900473ffffffffffffffffffffffffffffffffffffffff1673ffffffffffffffffffffffffffffffffffffffff1614610b0857600860008673ffffffffffffffffffffffffffffffffffffffff1673ffffffffffffffffffffffffffffffffffffffff1681526020019081526020016000206001018181548110610a6257610a61611756565b5b90600052602060002090600202016040518060400160405290816000820160009054906101000a900473ffffffffffffffffffffffffffffffffffffffff1673ffffffffffffffffffffffffffffffffffffffff1673ffffffffffffffffffffffffffffffffffffffff168152602001600182015481525050838381518110610aee57610aed611756565b5b60200260200101819052508180610b0490611785565b9250505b8080610b1390611785565b915050610908565b508192505050610b7e565b600067ffffffffffffffff811115610b4157610b40611899565b5b604051908082528060200260200182016040528015610b7a57816020015b610b676112f4565b815260200190600190039081610b5f5790505b5090505b919050565b60086020528060005260406000206000915090508060000154908060020154908060030154905083565b60096020528060005260406000206000915054906101000a900473ffffffffffffffffffffffffffffffffffffffff1681565b600090565b610bed610fcc565b6000600860003373ffffffffffffffffffffffffffffffffffffffff1673ffffffffffffffffffffffffffffffffffffffff168152602001908152602001600020600001541115610ca0576000610c433361101b565b905080600860003373ffffffffffffffffffffffffffffffffffffffff1673ffffffffffffffffffffffffffffffffffffffff1681526020019081526020016000206003016000828254610c979190611722565b92505081905550505b600160009054906101000a900473ffffffffffffffffffffffffffffffffffffffff1673ffffffffffffffffffffffffffffffffffffffff166342842e0e3330846040518463ffffffff1660e01b8152600401610cff939291906117f6565b600060405180830381600087803b158015610d1957600080fd5b505af1158015610d2d573d6000803e3d6000fd5b50505050600060405180604001604052803373ffffffffffffffffffffffffffffffffffffffff168152602001838152509050600860003373ffffffffffffffffffffffffffffffffffffffff1673ffffffffffffffffffffffffffffffffffffffff16815260200190815260200160002060010181908060018154018082558091505060019003906000526020600020906002020160009091909190915060008201518160000160006101000a81548173ffffffffffffffffffffffffffffffffffffffff021916908373ffffffffffffffffffffffffffffffffffffffff160217905550602082015181600101555050600860003373ffffffffffffffffffffffffffffffffffffffff1673ffffffffffffffffffffffffffffffffffffffff1681526020019081526020016000206000016000815480929190610e7290611785565b9190505550336009600084815260200190815260200160002060006101000a81548173ffffffffffffffffffffffffffffffffffffffff021916908373ffffffffffffffffffffffffffffffffffffffff16021790555042600860003373ffffffffffffffffffffffffffffffffffffffff1673ffffffffffffffffffffffffffffffffffffffff1681526020019081526020016000206002018190555050610f196110d9565b50565b600560009054906101000a900473ffffffffffffffffffffffffffffffffffffffff1681565b600160009054906101000a900473ffffffffffffffffffffffffffffffffffffffff1681565b600080600860008473ffffffffffffffffffffffffffffffffffffffff1673ffffffffffffffffffffffffffffffffffffffff16815260200190815260200160002060030154610fb78461101b565b610fc19190611722565b905080915050919050565b600260005403611011576040517f08c379a000000000000000000000000000000000000000000000000000000000815260040161100890611914565b60405180910390fd5b6002600081905550565b6000610e10600754600860008573ffffffffffffffffffffffffffffffffffffffff1673ffffffffffffffffffffffffffffffffffffffff16815260200190815260200160002060000154600860008673ffffffffffffffffffffffffffffffffffffffff1673ffffffffffffffffffffffffffffffffffffffff16815260200190815260200160002060020154426110b49190611934565b6110be9190611968565b6110c89190611968565b6110d291906119d9565b9050919050565b6001600081905550565b600460009054906101000a900473ffffffffffffffffffffffffffffffffffffffff1673ffffffffffffffffffffffffffffffffffffffff163373ffffffffffffffffffffffffffffffffffffffff1614611173576040517f08c379a000000000000000000000000000000000000000000000000000000000815260040161116a90611a56565b60405180910390fd5b60008373ffffffffffffffffffffffffffffffffffffffff166370a08231306040518263ffffffff1660e01b81526004016111ae919061158a565b602060405180830381865afa1580156111cb573d6000803e3d6000fd5b505050506040513d601f19601f820116820180604052508101906111ef9190611a8b565b905080821115611234576040517f08c379a000000000000000000000000000000000000000000000000000000000815260040161122b90611b04565b60405180910390fd5b8373ffffffffffffffffffffffffffffffffffffffff1663a9059cbb84846040518363ffffffff1660e01b815260040161126f929190611b24565b6020604051808303816000875af115801561128e573d6000803e3d6000fd5b505050506040513d601f19601f820116820180604052508101906112b29190611b85565b507ffda3a3e0e1479b43cb1c701f7576187f4c4ad80768d627387e00184302f7d88e3384846040516112e6939291906117f6565b60405180910390a150505050565b6040518060400160405280600073ffffffffffffffffffffffffffffffffffffffff168152602001600081525090565b600080fd5b6000819050919050565b61133c81611329565b811461134757600080fd5b50565b60008135905061135981611333565b92915050565b60006020828403121561137557611374611324565b5b60006113838482850161134a565b91505092915050565b600073ffffffffffffffffffffffffffffffffffffffff82169050919050565b60006113b78261138c565b9050919050565b6113c7816113ac565b81146113d257600080fd5b50565b6000813590506113e4816113be565b92915050565b600060208284031215611400576113ff611324565b5b600061140e848285016113d5565b91505092915050565b600081519050919050565b600082825260208201905092915050565b6000819050602082019050919050565b61144c816113ac565b82525050565b61145b81611329565b82525050565b6040820160008201516114776000850182611443565b50602082015161148a6020850182611452565b50505050565b600061149c8383611461565b60408301905092915050565b6000602082019050919050565b60006114c082611417565b6114ca8185611422565b93506114d583611433565b8060005b838110156115065781516114ed8882611490565b97506114f8836114a8565b9250506001810190506114d9565b5085935050505092915050565b6000602082019050818103600083015261152d81846114b5565b905092915050565b61153e81611329565b82525050565b60006060820190506115596000830186611535565b6115666020830185611535565b6115736040830184611535565b949350505050565b611584816113ac565b82525050565b600060208201905061159f600083018461157b565b92915050565b6000819050919050565b60006115ca6115c56115c08461138c565b6115a5565b61138c565b9050919050565b60006115dc826115af565b9050919050565b60006115ee826115d1565b9050919050565b6115fe816115e3565b82525050565b600060208201905061161960008301846115f5565b92915050565b600061162a826115d1565b9050919050565b61163a8161161f565b82525050565b60006020820190506116556000830184611631565b92915050565b60006020820190506116706000830184611535565b92915050565b600082825260208201905092915050565b7f596f752068617665206e6f20746f6b656e73207374616b656400000000000000600082015250565b60006116bd601983611676565b91506116c882611687565b602082019050919050565b600060208201905081810360008301526116ec816116b0565b9050919050565b7f4e487b7100000000000000000000000000000000000000000000000000000000600052601160045260246000fd5b600061172d82611329565b915061173883611329565b92508282019050808211156117505761174f6116f3565b5b92915050565b7f4e487b7100000000000000000000000000000000000000000000000000000000600052603260045260246000fd5b600061179082611329565b91507fffffffffffffffffffffffffffffffffffffffffffffffffffffffffffffffff82036117c2576117c16116f3565b5b600182019050919050565b60006117d882611329565b9150600082036117eb576117ea6116f3565b5b600182039050919050565b600060608201905061180b600083018661157b565b611818602083018561157b565b6118256040830184611535565b949350505050565b7f596f752068617665206e6f207265776172647320746f20636c61696d00000000600082015250565b6000611863601c83611676565b915061186e8261182d565b602082019050919050565b6000602082019050818103600083015261189281611856565b9050919050565b7f4e487b7100000000000000000000000000000000000000000000000000000000600052604160045260246000fd5b7f5265656e7472616e637947756172643a207265656e7472616e742063616c6c00600082015250565b60006118fe601f83611676565b9150611909826118c8565b602082019050919050565b6000602082019050818103600083015261192d816118f1565b9050919050565b600061193f82611329565b915061194a83611329565b9250828203905081811115611962576119616116f3565b5b92915050565b600061197382611329565b915061197e83611329565b925082820261198c81611329565b915082820484148315176119a3576119a26116f3565b5b5092915050565b7f4e487b7100000000000000000000000000000000000000000000000000000000600052601260045260246000fd5b60006119e482611329565b91506119ef83611329565b9250826119ff576119fe6119aa565b5b828204905092915050565b7f4f6e6c79206f776e65722063616e2077697468647261772066756e6473000000600082015250565b6000611a40601d83611676565b9150611a4b82611a0a565b602082019050919050565b60006020820190508181036000830152611a6f81611a33565b9050919050565b600081519050611a8581611333565b92915050565b600060208284031215611aa157611aa0611324565b5b6000611aaf84828501611a76565b91505092915050565b7f62616c616e6365206973206c6f77000000000000000000000000000000000000600082015250565b6000611aee600e83611676565b9150611af982611ab8565b602082019050919050565b60006020820190508181036000830152611b1d81611ae1565b9050919050565b6000604082019050611b39600083018561157b565b611b466020830184611535565b9392505050565b60008115159050919050565b611b6281611b4d565b8114611b6d57600080fd5b50565b600081519050611b7f81611b59565b92915050565b600060208284031215611b9b57611b9a611324565b5b6000611ba984828501611b70565b9150509291505056fea26469706673582212209e6abee184bbb0eaa8d77041cbb1658c370d37191547bdd6ca0259dae8eaef2e64736f6c63430008120033",
  "linkReferences": {},
  "deployedLinkReferences": {}
}