{
  "_format": "hh-sol-artifact-1",
  "contractName": "NFTMarketplace",
  "sourceName": "contracts/NFTMarketplace.sol",
  "abi": [
    {
      "inputs": [],
      "stateMutability": "nonpayable",
      "type": "constructor"
    },
    {
      "anonymous": false,
      "inputs": [
        {
          "indexed": false,
          "internalType": "uint256",
          "name": "tokeId",
          "type": "uint256"
        },
        {
          "indexed": false,
          "internalType": "address payable",
          "name": "owner",
          "type": "address"
        },
        {
          "indexed": false,
          "internalType": "address payable",
          "name": "seller",
          "type": "address"
        },
        {
          "indexed": false,
          "internalType": "uint256",
          "name": "price",
          "type": "uint256"
        },
        {
          "indexed": false,
          "internalType": "bool",
          "name": "currentlyListed",
          "type": "bool"
        }
      ],
      "name": "TokenListedSuccess",
      "type": "event"
    },
    {
      "inputs": [
        {
          "internalType": "uint256",
          "name": "tokenId",
          "type": "uint256"
        },
        {
          "internalType": "uint256",
          "name": "price",
          "type": "uint256"
        },
        {
          "internalType": "contract NFTCollection",
          "name": "collection",
          "type": "address"
        }
      ],
      "name": "ListToken",
      "outputs": [],
      "stateMutability": "payable",
      "type": "function"
    },
    {
      "inputs": [
        {
          "internalType": "uint256",
          "name": "new_listing_fee",
          "type": "uint256"
        }
      ],
      "name": "change_listing_fee",
      "outputs": [],
      "stateMutability": "nonpayable",
      "type": "function"
    },
    {
      "inputs": [
        {
          "internalType": "uint256",
          "name": "tokenId",
          "type": "uint256"
        },
        {
          "internalType": "contract NFTCollection",
          "name": "collection",
          "type": "address"
        }
      ],
      "name": "executeSale",
      "outputs": [],
      "stateMutability": "payable",
      "type": "function"
    },
    {
      "inputs": [],
      "name": "getAllNFTs",
      "outputs": [
        {
          "components": [
            {
              "internalType": "uint256",
              "name": "tokeId",
              "type": "uint256"
            },
            {
              "internalType": "address payable",
              "name": "owner",
              "type": "address"
            },
            {
              "internalType": "address payable",
              "name": "seller",
              "type": "address"
            },
            {
              "internalType": "uint256",
              "name": "price",
              "type": "uint256"
            },
            {
              "internalType": "bool",
              "name": "currentlyListed",
              "type": "bool"
            }
          ],
          "internalType": "struct NFTMarketplace.ListedToken[]",
          "name": "",
          "type": "tuple[]"
        }
      ],
      "stateMutability": "view",
      "type": "function"
    },
    {
      "inputs": [],
      "name": "getCurrentToken",
      "outputs": [
        {
          "internalType": "uint256",
          "name": "",
          "type": "uint256"
        }
      ],
      "stateMutability": "view",
      "type": "function"
    },
    {
      "inputs": [],
      "name": "getLatestIdToListedToken",
      "outputs": [
        {
          "components": [
            {
              "internalType": "uint256",
              "name": "tokeId",
              "type": "uint256"
            },
            {
              "internalType": "address payable",
              "name": "owner",
              "type": "address"
            },
            {
              "internalType": "address payable",
              "name": "seller",
              "type": "address"
            },
            {
              "internalType": "uint256",
              "name": "price",
              "type": "uint256"
            },
            {
              "internalType": "bool",
              "name": "currentlyListed",
              "type": "bool"
            }
          ],
          "internalType": "struct NFTMarketplace.ListedToken",
          "name": "",
          "type": "tuple"
        }
      ],
      "stateMutability": "view",
      "type": "function"
    },
    {
      "inputs": [],
      "name": "getListPrice",
      "outputs": [
        {
          "internalType": "uint256",
          "name": "",
          "type": "uint256"
        }
      ],
      "stateMutability": "view",
      "type": "function"
    },
    {
      "inputs": [
        {
          "internalType": "uint256",
          "name": "tokenId",
          "type": "uint256"
        }
      ],
      "name": "getListedTokenById",
      "outputs": [
        {
          "components": [
            {
              "internalType": "uint256",
              "name": "tokeId",
              "type": "uint256"
            },
            {
              "internalType": "address payable",
              "name": "owner",
              "type": "address"
            },
            {
              "internalType": "address payable",
              "name": "seller",
              "type": "address"
            },
            {
              "internalType": "uint256",
              "name": "price",
              "type": "uint256"
            },
            {
              "internalType": "bool",
              "name": "currentlyListed",
              "type": "bool"
            }
          ],
          "internalType": "struct NFTMarketplace.ListedToken",
          "name": "",
          "type": "tuple"
        }
      ],
      "stateMutability": "view",
      "type": "function"
    },
    {
      "inputs": [],
      "name": "getMyNFTs",
      "outputs": [
        {
          "components": [
            {
              "internalType": "uint256",
              "name": "tokeId",
              "type": "uint256"
            },
            {
              "internalType": "address payable",
              "name": "owner",
              "type": "address"
            },
            {
              "internalType": "address payable",
              "name": "seller",
              "type": "address"
            },
            {
              "internalType": "uint256",
              "name": "price",
              "type": "uint256"
            },
            {
              "internalType": "bool",
              "name": "currentlyListed",
              "type": "bool"
            }
          ],
          "internalType": "struct NFTMarketplace.ListedToken[]",
          "name": "",
          "type": "tuple[]"
        }
      ],
      "stateMutability": "view",
      "type": "function"
    },
    {
      "inputs": [],
      "name": "listPrice",
      "outputs": [
        {
          "internalType": "uint256",
          "name": "",
          "type": "uint256"
        }
      ],
      "stateMutability": "view",
      "type": "function"
    }
  ],
  "bytecode": "0x6080604052662386f26fc1000060035534801561001b57600080fd5b5033600260006101000a81548173ffffffffffffffffffffffffffffffffffffffff021916908373ffffffffffffffffffffffffffffffffffffffff1602179055506117b58061006c6000396000f3fe6080604052600436106100915760003560e01c8063d1a88ae511610059578063d1a88ae51461015c578063e0391b0914610187578063eda187dd146101b2578063ef2d1746146101ef578063fd4f0b4f1461021a57610091565b8063629cb2e41461009657806368f1945f146100c15780636eb588d9146100ec578063abb8ddc914610117578063b727faf014610140575b600080fd5b3480156100a257600080fd5b506100ab610236565b6040516100b8919061117c565b60405180910390f35b3480156100cd57600080fd5b506100d6610613565b6040516100e391906111ad565b60405180910390f35b3480156100f857600080fd5b5061010161061d565b60405161010e91906111ad565b60405180910390f35b34801561012357600080fd5b5061013e600480360381019061013991906111f9565b610623565b005b61015a60048036038101906101559190611276565b6106bd565b005b34801561016857600080fd5b50610171610926565b60405161017e9190611331565b60405180910390f35b34801561019357600080fd5b5061019c610a3b565b6040516101a9919061117c565b60405180910390f35b3480156101be57600080fd5b506101d960048036038101906101d491906111f9565b610c09565b6040516101e69190611331565b60405180910390f35b3480156101fb57600080fd5b50610204610d11565b60405161021191906111ad565b60405180910390f35b610234600480360381019061022f919061134c565b610d22565b005b606060006102446000610f6f565b905060008060005b83811015610365573373ffffffffffffffffffffffffffffffffffffffff166004600060018461027c91906113bb565b815260200190815260200160002060010160009054906101000a900473ffffffffffffffffffffffffffffffffffffffff1673ffffffffffffffffffffffffffffffffffffffff16148061033d57503373ffffffffffffffffffffffffffffffffffffffff16600460006001846102f391906113bb565b815260200190815260200160002060020160009054906101000a900473ffffffffffffffffffffffffffffffffffffffff1673ffffffffffffffffffffffffffffffffffffffff16145b156103525760018361034f91906113bb565b92505b808061035d906113ef565b91505061024c565b5060008267ffffffffffffffff81111561038257610381611437565b5b6040519080825280602002602001820160405280156103bb57816020015b6103a8610f93565b8152602001906001900390816103a05790505b50905060005b84811015610608573373ffffffffffffffffffffffffffffffffffffffff16600460006001846103f191906113bb565b815260200190815260200160002060010160009054906101000a900473ffffffffffffffffffffffffffffffffffffffff1673ffffffffffffffffffffffffffffffffffffffff1614806104b257503373ffffffffffffffffffffffffffffffffffffffff166004600060018461046891906113bb565b815260200190815260200160002060020160009054906101000a900473ffffffffffffffffffffffffffffffffffffffff1673ffffffffffffffffffffffffffffffffffffffff16145b156105f55760006001826104c691906113bb565b90506000600460008381526020019081526020016000209050806040518060a0016040529081600082015481526020016001820160009054906101000a900473ffffffffffffffffffffffffffffffffffffffff1673ffffffffffffffffffffffffffffffffffffffff1673ffffffffffffffffffffffffffffffffffffffff1681526020016002820160009054906101000a900473ffffffffffffffffffffffffffffffffffffffff1673ffffffffffffffffffffffffffffffffffffffff1673ffffffffffffffffffffffffffffffffffffffff168152602001600382015481526020016004820160009054906101000a900460ff1615151515815250508486815181106105d9576105d8611466565b5b602002602001018190525084806105ef906113ef565b95505050505b8080610600906113ef565b9150506103c1565b508094505050505090565b6000600354905090565b60035481565b600260009054906101000a900473ffffffffffffffffffffffffffffffffffffffff1673ffffffffffffffffffffffffffffffffffffffff163373ffffffffffffffffffffffffffffffffffffffff16146106b3576040517f08c379a00000000000000000000000000000000000000000000000000000000081526004016106aa90611518565b60405180910390fd5b8060038190555050565b6003543414610701576040517f08c379a00000000000000000000000000000000000000000000000000000000081526004016106f890611584565b60405180910390fd5b60008211610744576040517f08c379a000000000000000000000000000000000000000000000000000000000815260040161073b90611616565b60405180910390fd5b6040518060a001604052808481526020013073ffffffffffffffffffffffffffffffffffffffff1681526020013373ffffffffffffffffffffffffffffffffffffffff16815260200183815260200160011515815250600460008581526020019081526020016000206000820151816000015560208201518160010160006101000a81548173ffffffffffffffffffffffffffffffffffffffff021916908373ffffffffffffffffffffffffffffffffffffffff16021790555060408201518160020160006101000a81548173ffffffffffffffffffffffffffffffffffffffff021916908373ffffffffffffffffffffffffffffffffffffffff1602179055506060820151816003015560808201518160040160006101000a81548160ff0219169083151502179055509050508073ffffffffffffffffffffffffffffffffffffffff166323b872dd3330866040518463ffffffff1660e01b81526004016108af93929190611645565b600060405180830381600087803b1580156108c957600080fd5b505af11580156108dd573d6000803e3d6000fd5b505050507f9339409317fd01fabff48b703019016f49159bacc801ae872d2ca637d226e4c083303385600160405161091995949392919061169a565b60405180910390a1505050565b61092e610f93565b600061093a6000610f6f565b9050600460008281526020019081526020016000206040518060a0016040529081600082015481526020016001820160009054906101000a900473ffffffffffffffffffffffffffffffffffffffff1673ffffffffffffffffffffffffffffffffffffffff1673ffffffffffffffffffffffffffffffffffffffff1681526020016002820160009054906101000a900473ffffffffffffffffffffffffffffffffffffffff1673ffffffffffffffffffffffffffffffffffffffff1673ffffffffffffffffffffffffffffffffffffffff168152602001600382015481526020016004820160009054906101000a900460ff16151515158152505091505090565b60606000610a496000610f6f565b905060008167ffffffffffffffff811115610a6757610a66611437565b5b604051908082528060200260200182016040528015610aa057816020015b610a8d610f93565b815260200190600190039081610a855790505b5090506000805b83811015610bff576000600182610abe91906113bb565b90506000600460008381526020019081526020016000209050806040518060a0016040529081600082015481526020016001820160009054906101000a900473ffffffffffffffffffffffffffffffffffffffff1673ffffffffffffffffffffffffffffffffffffffff1673ffffffffffffffffffffffffffffffffffffffff1681526020016002820160009054906101000a900473ffffffffffffffffffffffffffffffffffffffff1673ffffffffffffffffffffffffffffffffffffffff1673ffffffffffffffffffffffffffffffffffffffff168152602001600382015481526020016004820160009054906101000a900460ff161515151581525050858581518110610bd157610bd0611466565b5b60200260200101819052508380610be7906113ef565b94505050508080610bf7906113ef565b915050610aa7565b5081935050505090565b610c11610f93565b600460008381526020019081526020016000206040518060a0016040529081600082015481526020016001820160009054906101000a900473ffffffffffffffffffffffffffffffffffffffff1673ffffffffffffffffffffffffffffffffffffffff1673ffffffffffffffffffffffffffffffffffffffff1681526020016002820160009054906101000a900473ffffffffffffffffffffffffffffffffffffffff1673ffffffffffffffffffffffffffffffffffffffff1673ffffffffffffffffffffffffffffffffffffffff168152602001600382015481526020016004820160009054906101000a900460ff1615151515815250509050919050565b6000610d1d6000610f6f565b905090565b60006004600084815260200190815260200160002060030154905060006004600085815260200190815260200160002060020160009054906101000a900473ffffffffffffffffffffffffffffffffffffffff169050813414610dba576040517f08c379a0000000000000000000000000000000000000000000000000000000008152600401610db19061175f565b60405180910390fd5b60006004600086815260200190815260200160002060040160006101000a81548160ff021916908315150217905550336004600086815260200190815260200160002060020160006101000a81548173ffffffffffffffffffffffffffffffffffffffff021916908373ffffffffffffffffffffffffffffffffffffffff160217905550610e486001610f7d565b8273ffffffffffffffffffffffffffffffffffffffff166323b872dd3033876040518463ffffffff1660e01b8152600401610e8593929190611645565b600060405180830381600087803b158015610e9f57600080fd5b505af1158015610eb3573d6000803e3d6000fd5b50505050600260009054906101000a900473ffffffffffffffffffffffffffffffffffffffff1673ffffffffffffffffffffffffffffffffffffffff166108fc6003549081150290604051600060405180830381858888f19350505050158015610f21573d6000803e3d6000fd5b508073ffffffffffffffffffffffffffffffffffffffff166108fc349081150290604051600060405180830381858888f19350505050158015610f68573d6000803e3d6000fd5b5050505050565b600081600001549050919050565b6001816000016000828254019250508190555050565b6040518060a0016040528060008152602001600073ffffffffffffffffffffffffffffffffffffffff168152602001600073ffffffffffffffffffffffffffffffffffffffff168152602001600081526020016000151581525090565b600081519050919050565b600082825260208201905092915050565b6000819050602082019050919050565b6000819050919050565b61102f8161101c565b82525050565b600073ffffffffffffffffffffffffffffffffffffffff82169050919050565b600061106082611035565b9050919050565b61107081611055565b82525050565b60008115159050919050565b61108b81611076565b82525050565b60a0820160008201516110a76000850182611026565b5060208201516110ba6020850182611067565b5060408201516110cd6040850182611067565b5060608201516110e06060850182611026565b5060808201516110f36080850182611082565b50505050565b60006111058383611091565b60a08301905092915050565b6000602082019050919050565b600061112982610ff0565b6111338185610ffb565b935061113e8361100c565b8060005b8381101561116f57815161115688826110f9565b975061116183611111565b925050600181019050611142565b5085935050505092915050565b60006020820190508181036000830152611196818461111e565b905092915050565b6111a78161101c565b82525050565b60006020820190506111c2600083018461119e565b92915050565b600080fd5b6111d68161101c565b81146111e157600080fd5b50565b6000813590506111f3816111cd565b92915050565b60006020828403121561120f5761120e6111c8565b5b600061121d848285016111e4565b91505092915050565b600061123182611035565b9050919050565b600061124382611226565b9050919050565b61125381611238565b811461125e57600080fd5b50565b6000813590506112708161124a565b92915050565b60008060006060848603121561128f5761128e6111c8565b5b600061129d868287016111e4565b93505060206112ae868287016111e4565b92505060406112bf86828701611261565b9150509250925092565b60a0820160008201516112df6000850182611026565b5060208201516112f26020850182611067565b5060408201516113056040850182611067565b5060608201516113186060850182611026565b50608082015161132b6080850182611082565b50505050565b600060a08201905061134660008301846112c9565b92915050565b60008060408385031215611363576113626111c8565b5b6000611371858286016111e4565b925050602061138285828601611261565b9150509250929050565b7f4e487b7100000000000000000000000000000000000000000000000000000000600052601160045260246000fd5b60006113c68261101c565b91506113d18361101c565b92508282019050808211156113e9576113e861138c565b5b92915050565b60006113fa8261101c565b91507fffffffffffffffffffffffffffffffffffffffffffffffffffffffffffffffff820361142c5761142b61138c565b5b600182019050919050565b7f4e487b7100000000000000000000000000000000000000000000000000000000600052604160045260246000fd5b7f4e487b7100000000000000000000000000000000000000000000000000000000600052603260045260246000fd5b600082825260208201905092915050565b7f4f6e6c7920706c6174666f726d206f776e65722063616e2063616c6c2074686960008201527f732066756e6374696f6e00000000000000000000000000000000000000000000602082015250565b6000611502602a83611495565b915061150d826114a6565b604082019050919050565b60006020820190508181036000830152611531816114f5565b9050919050565b7f506c656173652073656e6420746865206c697374696e67206665657300000000600082015250565b600061156e601c83611495565b915061157982611538565b602082019050919050565b6000602082019050818103600083015261159d81611561565b9050919050565b7f4d616b652073757265207468652070726963652069736e2774206e656761746960008201527f7665000000000000000000000000000000000000000000000000000000000000602082015250565b6000611600602283611495565b915061160b826115a4565b604082019050919050565b6000602082019050818103600083015261162f816115f3565b9050919050565b61163f81611226565b82525050565b600060608201905061165a6000830186611636565b6116676020830185611636565b611674604083018461119e565b949350505050565b61168581611055565b82525050565b61169481611076565b82525050565b600060a0820190506116af600083018861119e565b6116bc602083018761167c565b6116c9604083018661167c565b6116d6606083018561119e565b6116e3608083018461168b565b9695505050505050565b7f506c65617365207375626d6974207468652061736b696e67207072696365206960008201527f6e206f7264657220746f20636f6d706c65746520746865207075726368617365602082015250565b6000611749604083611495565b9150611754826116ed565b604082019050919050565b600060208201905081810360008301526117788161173c565b905091905056fea264697066735822122022dbcd5573adb11063b17bb542293f68385590dd3723f543580d9213af2f881e64736f6c63430008120033",
  "linkReferences": {},
  "deployedLinkReferences": {}
}