{
  "_format": "hh-sol-artifact-1",
  "contractName": "uma_verification",
  "sourceName": "contracts/UMAVerification.sol",
  "abi": [
    {
      "inputs": [],
      "name": "getSettledData",
      "outputs": [
        {
          "internalType": "int256",
          "name": "",
          "type": "int256"
        }
      ],
      "stateMutability": "view",
      "type": "function"
    },
    {
      "inputs": [],
      "name": "requestData",
      "outputs": [],
      "stateMutability": "nonpayable",
      "type": "function"
    },
    {
      "inputs": [],
      "name": "settleRequest",
      "outputs": [],
      "stateMutability": "nonpayable",
      "type": "function"
    }
  ],
  "bytecode": "608060405273a5b9d8a0b0fa04ba71bdd68069661ed5c08488846000806101000a81548173ffffffffffffffffffffffffffffffffffffffff021916908373ffffffffffffffffffffffffffffffffffffffff1602179055507f5945535f4f525f4e4f5f515545525900000000000000000000000000000000006001556040518060600160405280603f815260200162000e80603f913960029081620000a691906200033a565b506000600355348015620000b957600080fd5b5062000421565b600081519050919050565b7f4e487b7100000000000000000000000000000000000000000000000000000000600052604160045260246000fd5b7f4e487b7100000000000000000000000000000000000000000000000000000000600052602260045260246000fd5b600060028204905060018216806200014257607f821691505b602082108103620001585762000157620000fa565b5b50919050565b60008190508160005260206000209050919050565b60006020601f8301049050919050565b600082821b905092915050565b600060088302620001c27fffffffffffffffffffffffffffffffffffffffffffffffffffffffffffffffff8262000183565b620001ce868362000183565b95508019841693508086168417925050509392505050565b6000819050919050565b6000819050919050565b60006200021b620002156200020f84620001e6565b620001f0565b620001e6565b9050919050565b6000819050919050565b6200023783620001fa565b6200024f620002468262000222565b84845462000190565b825550505050565b600090565b6200026662000257565b620002738184846200022c565b505050565b5b818110156200029b576200028f6000826200025c565b60018101905062000279565b5050565b601f821115620002ea57620002b4816200015e565b620002bf8462000173565b81016020851015620002cf578190505b620002e7620002de8562000173565b83018262000278565b50505b505050565b600082821c905092915050565b60006200030f60001984600802620002ef565b1980831691505092915050565b60006200032a8383620002fc565b9150826002028217905092915050565b6200034582620000c0565b67ffffffffffffffff811115620003615762000360620000cb565b5b6200036d825462000129565b6200037a8282856200029f565b600060209050601f831160018114620003b257600084156200039d578287015190505b620003a985826200031c565b86555062000419565b601f198416620003c2866200015e565b60005b82811015620003ec57848901518255600182019150602085019450602081019050620003c5565b868310156200040c578489015162000408601f891682620002fc565b8355505b6001600288020188555050505b505050505050565b610a4f80620004316000396000f3fe608060405234801561001057600080fd5b50600436106100415760003560e01c8063606deecd14610046578063f25ffb2014610050578063fa7761521461006e575b600080fd5b61004e610078565b005b6100586101de565b6040516100659190610353565b60405180910390f35b610076610290565b005b42600381905550600073b4fbf271143f4fbf7b91a5ded31805e42b2208d690506000808054906101000a900473ffffffffffffffffffffffffffffffffffffffff1673ffffffffffffffffffffffffffffffffffffffff166311df92f1600154600354600286866040518663ffffffff1660e01b81526004016100ff959493929190610529565b6020604051808303816000875af115801561011e573d6000803e3d6000fd5b505050506040513d601f19601f8201168201806040525081019061014291906105be565b5060008054906101000a900473ffffffffffffffffffffffffffffffffffffffff1673ffffffffffffffffffffffffffffffffffffffff1663473c45fe6001546003546002601e6040518563ffffffff1660e01b81526004016101a89493929190610626565b600060405180830381600087803b1580156101c257600080fd5b505af11580156101d6573d6000803e3d6000fd5b505050505050565b60008060009054906101000a900473ffffffffffffffffffffffffffffffffffffffff1673ffffffffffffffffffffffffffffffffffffffff1663a9904f9b3060015460035460026040518563ffffffff1660e01b81526004016102459493929190610693565b61020060405180830381865afa158015610263573d6000803e3d6000fd5b505050506040513d601f19601f8201168201806040525081019061028791906109eb565b60c00151905090565b60008054906101000a900473ffffffffffffffffffffffffffffffffffffffff1673ffffffffffffffffffffffffffffffffffffffff16635e9a79a93060015460035460026040518563ffffffff1660e01b81526004016102f49493929190610693565b6020604051808303816000875af1158015610313573d6000803e3d6000fd5b505050506040513d601f19601f8201168201806040525081019061033791906105be565b50565b6000819050919050565b61034d8161033a565b82525050565b60006020820190506103686000830184610344565b92915050565b6000819050919050565b6103818161036e565b82525050565b6000819050919050565b61039a81610387565b82525050565b7f4e487b7100000000000000000000000000000000000000000000000000000000600052602260045260246000fd5b600060028204905060018216806103e757607f821691505b6020821081036103fa576103f96103a0565b5b50919050565b600082825260208201905092915050565b60008190508160005260206000209050919050565b60008154610433816103cf565b61043d8186610400565b94506001821660008114610458576001811461046e576104a1565b60ff1983168652811515602002860193506104a1565b61047785610411565b60005b838110156104995781548189015260018201915060208101905061047a565b808801955050505b50505092915050565b600073ffffffffffffffffffffffffffffffffffffffff82169050919050565b6000819050919050565b60006104ef6104ea6104e5846104aa565b6104ca565b6104aa565b9050919050565b6000610501826104d4565b9050919050565b6000610513826104f6565b9050919050565b61052381610508565b82525050565b600060a08201905061053e6000830188610378565b61054b6020830187610391565b818103604083015261055d8186610426565b905061056c606083018561051a565b6105796080830184610391565b9695505050505050565b6000604051905090565b600080fd5b61059b81610387565b81146105a657600080fd5b50565b6000815190506105b881610592565b92915050565b6000602082840312156105d4576105d361058d565b5b60006105e2848285016105a9565b91505092915050565b6000819050919050565b600061061061060b610606846105eb565b6104ca565b610387565b9050919050565b610620816105f5565b82525050565b600060808201905061063b6000830187610378565b6106486020830186610391565b818103604083015261065a8185610426565b90506106696060830184610617565b95945050505050565b600061067d826104aa565b9050919050565b61068d81610672565b82525050565b60006080820190506106a86000830187610684565b6106b56020830186610378565b6106c26040830185610391565b81810360608301526106d48184610426565b905095945050505050565b600080fd5b6000601f19601f8301169050919050565b7f4e487b7100000000000000000000000000000000000000000000000000000000600052604160045260246000fd5b61072d826106e4565b810181811067ffffffffffffffff8211171561074c5761074b6106f5565b5b80604052505050565b600061075f610583565b905061076b8282610724565b919050565b61077981610672565b811461078457600080fd5b50565b60008151905061079681610770565b92915050565b60006107a782610672565b9050919050565b6107b78161079c565b81146107c257600080fd5b50565b6000815190506107d4816107ae565b92915050565b60008115159050919050565b6107ef816107da565b81146107fa57600080fd5b50565b60008151905061080c816107e6565b92915050565b600060e08284031215610828576108276106df565b5b61083260e0610755565b90506000610842848285016107fd565b6000830152506020610856848285016107fd565b602083015250604061086a848285016107fd565b604083015250606061087e848285016107fd565b6060830152506080610892848285016107fd565b60808301525060a06108a6848285016105a9565b60a08301525060c06108ba848285016105a9565b60c08301525092915050565b6108cf8161033a565b81146108da57600080fd5b50565b6000815190506108ec816108c6565b92915050565b60006102008284031215610909576109086106df565b5b610914610140610755565b9050600061092484828501610787565b600083015250602061093884828501610787565b602083015250604061094c848285016107c5565b6040830152506060610960848285016107fd565b606083015250608061097484828501610812565b608083015250610160610989848285016108dd565b60a08301525061018061099e848285016108dd565b60c0830152506101a06109b3848285016105a9565b60e0830152506101c06109c8848285016105a9565b610100830152506101e06109de848285016105a9565b6101208301525092915050565b60006102008284031215610a0257610a0161058d565b5b6000610a10848285016108f2565b9150509291505056fea2646970667358221220690e4f5d259278c848ede3756ad54b45643f552ded12b045d2c2e9d821f7e0a164736f6c634300081200334920616d20746865206f776e6572206f662074686973204e465420636f6c6c656374696f6e2c2068656c70206d6520746f2067657420766572696669656421",
  "linkReferences": {},
  "deployedLinkReferences": {}
}