{
  "_format": "hh-sol-artifact-1",
  "contractName": "CollectionFactory",
  "sourceName": "contracts/CollectionFactory.sol",
  "abi": [
    {
      "inputs": [],
      "stateMutability": "nonpayable",
      "type": "constructor"
    },
    {
      "anonymous": false,
      "inputs": [
        {
          "indexed": false,
          "internalType": "uint256",
          "name": "collectionId",
          "type": "uint256"
        },
        {
          "indexed": false,
          "internalType": "string",
          "name": "name",
          "type": "string"
        },
        {
          "indexed": false,
          "internalType": "string",
          "name": "description",
          "type": "string"
        },
        {
          "indexed": false,
          "internalType": "string",
          "name": "image",
          "type": "string"
        },
        {
          "indexed": false,
          "internalType": "string",
          "name": "logo",
          "type": "string"
        },
        {
          "indexed": false,
          "internalType": "address",
          "name": "owner",
          "type": "address"
        },
        {
          "indexed": false,
          "internalType": "contract NFTCollection",
          "name": "collection_address",
          "type": "address"
        }
      ],
      "name": "CollectionCreated",
      "type": "event"
    },
    {
      "inputs": [
        {
          "internalType": "string",
          "name": "collection_name",
          "type": "string"
        },
        {
          "internalType": "string",
          "name": "collection_symbol",
          "type": "string"
        },
        {
          "internalType": "string",
          "name": "collection_image",
          "type": "string"
        },
        {
          "internalType": "string",
          "name": "collection_logo",
          "type": "string"
        },
        {
          "internalType": "string",
          "name": "collection_description",
          "type": "string"
        }
      ],
      "name": "create_collection",
      "outputs": [],
      "stateMutability": "nonpayable",
      "type": "function"
    },
    {
      "inputs": [],
      "name": "getAllCollections",
      "outputs": [
        {
          "components": [
            {
              "internalType": "uint256",
              "name": "collectionId",
              "type": "uint256"
            },
            {
              "internalType": "string",
              "name": "name",
              "type": "string"
            },
            {
              "internalType": "string",
              "name": "description",
              "type": "string"
            },
            {
              "internalType": "string",
              "name": "image",
              "type": "string"
            },
            {
              "internalType": "string",
              "name": "logo",
              "type": "string"
            },
            {
              "internalType": "address",
              "name": "owner",
              "type": "address"
            },
            {
              "internalType": "contract NFTCollection",
              "name": "collection_address",
              "type": "address"
            }
          ],
          "internalType": "struct CollectionFactory.Collection[]",
          "name": "",
          "type": "tuple[]"
        }
      ],
      "stateMutability": "view",
      "type": "function"
    },
    {
      "inputs": [
        {
          "internalType": "uint256",
          "name": "collection_id",
          "type": "uint256"
        }
      ],
      "name": "getCollectionById",
      "outputs": [
        {
          "components": [
            {
              "internalType": "uint256",
              "name": "collectionId",
              "type": "uint256"
            },
            {
              "internalType": "string",
              "name": "name",
              "type": "string"
            },
            {
              "internalType": "string",
              "name": "description",
              "type": "string"
            },
            {
              "internalType": "string",
              "name": "image",
              "type": "string"
            },
            {
              "internalType": "string",
              "name": "logo",
              "type": "string"
            },
            {
              "internalType": "address",
              "name": "owner",
              "type": "address"
            },
            {
              "internalType": "contract NFTCollection",
              "name": "collection_address",
              "type": "address"
            }
          ],
          "internalType": "struct CollectionFactory.Collection",
          "name": "",
          "type": "tuple"
        }
      ],
      "stateMutability": "view",
      "type": "function"
    },
    {
      "inputs": [],
      "name": "getMyCollections",
      "outputs": [
        {
          "components": [
            {
              "internalType": "uint256",
              "name": "collectionId",
              "type": "uint256"
            },
            {
              "internalType": "string",
              "name": "name",
              "type": "string"
            },
            {
              "internalType": "string",
              "name": "description",
              "type": "string"
            },
            {
              "internalType": "string",
              "name": "image",
              "type": "string"
            },
            {
              "internalType": "string",
              "name": "logo",
              "type": "string"
            },
            {
              "internalType": "address",
              "name": "owner",
              "type": "address"
            },
            {
              "internalType": "contract NFTCollection",
              "name": "collection_address",
              "type": "address"
            }
          ],
          "internalType": "struct CollectionFactory.Collection[]",
          "name": "",
          "type": "tuple[]"
        }
      ],
      "stateMutability": "view",
      "type": "function"
    }
  ],
  "bytecode": "0x608060405234801561001057600080fd5b5033600260006101000a81548173ffffffffffffffffffffffffffffffffffffffff021916908373ffffffffffffffffffffffffffffffffffffffff160217905550614eed806100616000396000f3fe60806040523480156200001157600080fd5b5060043610620000525760003560e01c8063640ca1a714620000575780636804a9581462000077578063d61019801462000099578063e547cb8514620000bb575b600080fd5b6200007560048036038101906200006f9190620012ec565b620000f1565b005b6200008162000470565b604051620000909190620016f2565b60405180910390f35b620000a36200086f565b604051620000b29190620016f2565b60405180910390f35b620000d96004803603810190620000d3919062001747565b62000d8e565b604051620000e8919062001838565b60405180910390f35b6000620000ff6000620010db565b9050600086866040516200011390620010ff565b62000120929190620018ae565b604051809103906000f0801580156200013d573d6000803e3d6000fd5b50905060006040518060e001604052808481526020018981526020018581526020018781526020018681526020013373ffffffffffffffffffffffffffffffffffffffff1681526020018373ffffffffffffffffffffffffffffffffffffffff168152509050600360003373ffffffffffffffffffffffffffffffffffffffff1673ffffffffffffffffffffffffffffffffffffffff1681526020019081526020016000208190806001815401808255809150506001900390600052602060002090600702016000909190919091506000820151816000015560208201518160010190816200022d919062001b15565b50604082015181600201908162000245919062001b15565b5060608201518160030190816200025d919062001b15565b50608082015181600401908162000275919062001b15565b5060a08201518160050160006101000a81548173ffffffffffffffffffffffffffffffffffffffff021916908373ffffffffffffffffffffffffffffffffffffffff16021790555060c08201518160060160006101000a81548173ffffffffffffffffffffffffffffffffffffffff021916908373ffffffffffffffffffffffffffffffffffffffff160217905550505080600460008581526020019081526020016000206000820151816000015560208201518160010190816200033b919062001b15565b50604082015181600201908162000353919062001b15565b5060608201518160030190816200036b919062001b15565b50608082015181600401908162000383919062001b15565b5060a08201518160050160006101000a81548173ffffffffffffffffffffffffffffffffffffffff021916908373ffffffffffffffffffffffffffffffffffffffff16021790555060c08201518160060160006101000a81548173ffffffffffffffffffffffffffffffffffffffff021916908373ffffffffffffffffffffffffffffffffffffffff160217905550905050620004216000620010e9565b7fcb5f637946584ac1aed35b5bfb206dc0ff9ce5ec1a81664edea5463b5b8da3b2838986898933886040516200045e979695949392919062001c2f565b60405180910390a15050505050505050565b60606000620004806000620010db565b905060008167ffffffffffffffff811115620004a157620004a0620011a5565b5b604051908082528060200260200182016040528015620004de57816020015b620004ca6200110d565b815260200190600190039081620004c05790505b50905060005b8281101562000866576000600460008381526020019081526020016000209050806040518060e0016040529081600082015481526020016001820180546200052c9062001918565b80601f01602080910402602001604051908101604052809291908181526020018280546200055a9062001918565b8015620005ab5780601f106200057f57610100808354040283529160200191620005ab565b820191906000526020600020905b8154815290600101906020018083116200058d57829003601f168201915b50505050508152602001600282018054620005c69062001918565b80601f0160208091040260200160405190810160405280929190818152602001828054620005f49062001918565b8015620006455780601f10620006195761010080835404028352916020019162000645565b820191906000526020600020905b8154815290600101906020018083116200062757829003601f168201915b50505050508152602001600382018054620006609062001918565b80601f01602080910402602001604051908101604052809291908181526020018280546200068e9062001918565b8015620006df5780601f10620006b357610100808354040283529160200191620006df565b820191906000526020600020905b815481529060010190602001808311620006c157829003601f168201915b50505050508152602001600482018054620006fa9062001918565b80601f0160208091040260200160405190810160405280929190818152602001828054620007289062001918565b8015620007795780601f106200074d5761010080835404028352916020019162000779565b820191906000526020600020905b8154815290600101906020018083116200075b57829003601f168201915b505050505081526020016005820160009054906101000a900473ffffffffffffffffffffffffffffffffffffffff1673ffffffffffffffffffffffffffffffffffffffff1673ffffffffffffffffffffffffffffffffffffffff1681526020016006820160009054906101000a900473ffffffffffffffffffffffffffffffffffffffff1673ffffffffffffffffffffffffffffffffffffffff1673ffffffffffffffffffffffffffffffffffffffff168152505083838151811062000844576200084362001cc8565b5b60200260200101819052505080806200085d9062001d26565b915050620004e4565b50809250505090565b606060006200087f6000620010db565b905060008060005b8381101562000922573373ffffffffffffffffffffffffffffffffffffffff166004600083815260200190815260200160002060050160009054906101000a900473ffffffffffffffffffffffffffffffffffffffff1673ffffffffffffffffffffffffffffffffffffffff16036200090c5760018362000909919062001d73565b92505b8080620009199062001d26565b91505062000887565b5060008267ffffffffffffffff811115620009425762000941620011a5565b5b6040519080825280602002602001820160405280156200097f57816020015b6200096b6200110d565b815260200190600190039081620009615790505b50905060005b8481101562000d83573373ffffffffffffffffffffffffffffffffffffffff166004600083815260200190815260200160002060050160009054906101000a900473ffffffffffffffffffffffffffffffffffffffff1673ffffffffffffffffffffffffffffffffffffffff160362000d6d576000600460008381526020019081526020016000209050806040518060e00160405290816000820154815260200160018201805462000a379062001918565b80601f016020809104026020016040519081016040528092919081815260200182805462000a659062001918565b801562000ab65780601f1062000a8a5761010080835404028352916020019162000ab6565b820191906000526020600020905b81548152906001019060200180831162000a9857829003601f168201915b5050505050815260200160028201805462000ad19062001918565b80601f016020809104026020016040519081016040528092919081815260200182805462000aff9062001918565b801562000b505780601f1062000b245761010080835404028352916020019162000b50565b820191906000526020600020905b81548152906001019060200180831162000b3257829003601f168201915b5050505050815260200160038201805462000b6b9062001918565b80601f016020809104026020016040519081016040528092919081815260200182805462000b999062001918565b801562000bea5780601f1062000bbe5761010080835404028352916020019162000bea565b820191906000526020600020905b81548152906001019060200180831162000bcc57829003601f168201915b5050505050815260200160048201805462000c059062001918565b80601f016020809104026020016040519081016040528092919081815260200182805462000c339062001918565b801562000c845780601f1062000c585761010080835404028352916020019162000c84565b820191906000526020600020905b81548152906001019060200180831162000c6657829003601f168201915b505050505081526020016005820160009054906101000a900473ffffffffffffffffffffffffffffffffffffffff1673ffffffffffffffffffffffffffffffffffffffff1673ffffffffffffffffffffffffffffffffffffffff1681526020016006820160009054906101000a900473ffffffffffffffffffffffffffffffffffffffff1673ffffffffffffffffffffffffffffffffffffffff1673ffffffffffffffffffffffffffffffffffffffff168152505083858151811062000d4f5762000d4e62001cc8565b5b602002602001018190525060018462000d69919062001d73565b9350505b808062000d7a9062001d26565b91505062000985565b508094505050505090565b62000d986200110d565b600460008381526020019081526020016000206040518060e00160405290816000820154815260200160018201805462000dd29062001918565b80601f016020809104026020016040519081016040528092919081815260200182805462000e009062001918565b801562000e515780601f1062000e255761010080835404028352916020019162000e51565b820191906000526020600020905b81548152906001019060200180831162000e3357829003601f168201915b5050505050815260200160028201805462000e6c9062001918565b80601f016020809104026020016040519081016040528092919081815260200182805462000e9a9062001918565b801562000eeb5780601f1062000ebf5761010080835404028352916020019162000eeb565b820191906000526020600020905b81548152906001019060200180831162000ecd57829003601f168201915b5050505050815260200160038201805462000f069062001918565b80601f016020809104026020016040519081016040528092919081815260200182805462000f349062001918565b801562000f855780601f1062000f595761010080835404028352916020019162000f85565b820191906000526020600020905b81548152906001019060200180831162000f6757829003601f168201915b5050505050815260200160048201805462000fa09062001918565b80601f016020809104026020016040519081016040528092919081815260200182805462000fce9062001918565b80156200101f5780601f1062000ff3576101008083540402835291602001916200101f565b820191906000526020600020905b8154815290600101906020018083116200100157829003601f168201915b505050505081526020016005820160009054906101000a900473ffffffffffffffffffffffffffffffffffffffff1673ffffffffffffffffffffffffffffffffffffffff1673ffffffffffffffffffffffffffffffffffffffff1681526020016006820160009054906101000a900473ffffffffffffffffffffffffffffffffffffffff1673ffffffffffffffffffffffffffffffffffffffff1673ffffffffffffffffffffffffffffffffffffffff16815250509050919050565b600081600001549050919050565b6001816000016000828254019250508190555050565b6131098062001daf83390190565b6040518060e001604052806000815260200160608152602001606081526020016060815260200160608152602001600073ffffffffffffffffffffffffffffffffffffffff168152602001600073ffffffffffffffffffffffffffffffffffffffff1681525090565b6000604051905090565b600080fd5b600080fd5b600080fd5b600080fd5b6000601f19601f8301169050919050565b7f4e487b7100000000000000000000000000000000000000000000000000000000600052604160045260246000fd5b620011df8262001194565b810181811067ffffffffffffffff82111715620012015762001200620011a5565b5b80604052505050565b60006200121662001176565b9050620012248282620011d4565b919050565b600067ffffffffffffffff821115620012475762001246620011a5565b5b620012528262001194565b9050602081019050919050565b82818337600083830152505050565b6000620012856200127f8462001229565b6200120a565b905082815260208101848484011115620012a457620012a36200118f565b5b620012b18482856200125f565b509392505050565b600082601f830112620012d157620012d06200118a565b5b8135620012e38482602086016200126e565b91505092915050565b600080600080600060a086880312156200130b576200130a62001180565b5b600086013567ffffffffffffffff8111156200132c576200132b62001185565b5b6200133a88828901620012b9565b955050602086013567ffffffffffffffff8111156200135e576200135d62001185565b5b6200136c88828901620012b9565b945050604086013567ffffffffffffffff81111562001390576200138f62001185565b5b6200139e88828901620012b9565b935050606086013567ffffffffffffffff811115620013c257620013c162001185565b5b620013d088828901620012b9565b925050608086013567ffffffffffffffff811115620013f457620013f362001185565b5b6200140288828901620012b9565b9150509295509295909350565b600081519050919050565b600082825260208201905092915050565b6000819050602082019050919050565b6000819050919050565b62001450816200143b565b82525050565b600081519050919050565b600082825260208201905092915050565b60005b838110156200149257808201518184015260208101905062001475565b60008484015250505050565b6000620014ab8262001456565b620014b7818562001461565b9350620014c981856020860162001472565b620014d48162001194565b840191505092915050565b600073ffffffffffffffffffffffffffffffffffffffff82169050919050565b60006200150c82620014df565b9050919050565b6200151e81620014ff565b82525050565b6000819050919050565b60006200154f620015496200154384620014df565b62001524565b620014df565b9050919050565b600062001563826200152e565b9050919050565b6000620015778262001556565b9050919050565b62001589816200156a565b82525050565b600060e083016000830151620015a9600086018262001445565b5060208301518482036020860152620015c382826200149e565b91505060408301518482036040860152620015df82826200149e565b91505060608301518482036060860152620015fb82826200149e565b915050608083015184820360808601526200161782826200149e565b91505060a08301516200162e60a086018262001513565b5060c08301516200164360c08601826200157e565b508091505092915050565b60006200165c83836200158f565b905092915050565b6000602082019050919050565b60006200167e826200140f565b6200168a81856200141a565b9350836020820285016200169e856200142b565b8060005b85811015620016e05784840389528151620016be85826200164e565b9450620016cb8362001664565b925060208a01995050600181019050620016a2565b50829750879550505050505092915050565b600060208201905081810360008301526200170e818462001671565b905092915050565b62001721816200143b565b81146200172d57600080fd5b50565b600081359050620017418162001716565b92915050565b60006020828403121562001760576200175f62001180565b5b6000620017708482850162001730565b91505092915050565b600060e08301600083015162001793600086018262001445565b5060208301518482036020860152620017ad82826200149e565b91505060408301518482036040860152620017c982826200149e565b91505060608301518482036060860152620017e582826200149e565b915050608083015184820360808601526200180182826200149e565b91505060a08301516200181860a086018262001513565b5060c08301516200182d60c08601826200157e565b508091505092915050565b6000602082019050818103600083015262001854818462001779565b905092915050565b600082825260208201905092915050565b60006200187a8262001456565b6200188681856200185c565b93506200189881856020860162001472565b620018a38162001194565b840191505092915050565b60006040820190508181036000830152620018ca81856200186d565b90508181036020830152620018e081846200186d565b90509392505050565b7f4e487b7100000000000000000000000000000000000000000000000000000000600052602260045260246000fd5b600060028204905060018216806200193157607f821691505b602082108103620019475762001946620018e9565b5b50919050565b60008190508160005260206000209050919050565b60006020601f8301049050919050565b600082821b905092915050565b600060088302620019b17fffffffffffffffffffffffffffffffffffffffffffffffffffffffffffffffff8262001972565b620019bd868362001972565b95508019841693508086168417925050509392505050565b6000620019f6620019f0620019ea846200143b565b62001524565b6200143b565b9050919050565b6000819050919050565b62001a1283620019d5565b62001a2a62001a2182620019fd565b8484546200197f565b825550505050565b600090565b62001a4162001a32565b62001a4e81848462001a07565b505050565b5b8181101562001a765762001a6a60008262001a37565b60018101905062001a54565b5050565b601f82111562001ac55762001a8f816200194d565b62001a9a8462001962565b8101602085101562001aaa578190505b62001ac262001ab98562001962565b83018262001a53565b50505b505050565b600082821c905092915050565b600062001aea6000198460080262001aca565b1980831691505092915050565b600062001b05838362001ad7565b9150826002028217905092915050565b62001b208262001456565b67ffffffffffffffff81111562001b3c5762001b3b620011a5565b5b62001b48825462001918565b62001b5582828562001a7a565b600060209050601f83116001811462001b8d576000841562001b78578287015190505b62001b84858262001af7565b86555062001bf4565b601f19841662001b9d866200194d565b60005b8281101562001bc75784890151825560018201915060208501945060208101905062001ba0565b8683101562001be7578489015162001be3601f89168262001ad7565b8355505b6001600288020188555050505b505050505050565b62001c07816200143b565b82525050565b62001c1881620014ff565b82525050565b62001c29816200156a565b82525050565b600060e08201905062001c46600083018a62001bfc565b818103602083015262001c5a81896200186d565b9050818103604083015262001c7081886200186d565b9050818103606083015262001c8681876200186d565b9050818103608083015262001c9c81866200186d565b905062001cad60a083018562001c0d565b62001cbc60c083018462001c1e565b98975050505050505050565b7f4e487b7100000000000000000000000000000000000000000000000000000000600052603260045260246000fd5b7f4e487b7100000000000000000000000000000000000000000000000000000000600052601160045260246000fd5b600062001d33826200143b565b91507fffffffffffffffffffffffffffffffffffffffffffffffffffffffffffffffff820362001d685762001d6762001cf7565b5b600182019050919050565b600062001d80826200143b565b915062001d8d836200143b565b925082820190508082111562001da85762001da762001cf7565b5b9291505056fe60806040523480156200001157600080fd5b5060405162003109380380620031098339818101604052810190620000379190620001fa565b818181600090816200004a9190620004ca565b5080600190816200005c9190620004ca565b5050505050620005b1565b6000604051905090565b600080fd5b600080fd5b600080fd5b600080fd5b6000601f19601f8301169050919050565b7f4e487b7100000000000000000000000000000000000000000000000000000000600052604160045260246000fd5b620000d08262000085565b810181811067ffffffffffffffff82111715620000f257620000f162000096565b5b80604052505050565b60006200010762000067565b9050620001158282620000c5565b919050565b600067ffffffffffffffff82111562000138576200013762000096565b5b620001438262000085565b9050602081019050919050565b60005b838110156200017057808201518184015260208101905062000153565b60008484015250505050565b6000620001936200018d846200011a565b620000fb565b905082815260208101848484011115620001b257620001b162000080565b5b620001bf84828562000150565b509392505050565b600082601f830112620001df57620001de6200007b565b5b8151620001f18482602086016200017c565b91505092915050565b6000806040838503121562000214576200021362000071565b5b600083015167ffffffffffffffff81111562000235576200023462000076565b5b6200024385828601620001c7565b925050602083015167ffffffffffffffff81111562000267576200026662000076565b5b6200027585828601620001c7565b9150509250929050565b600081519050919050565b7f4e487b7100000000000000000000000000000000000000000000000000000000600052602260045260246000fd5b60006002820490506001821680620002d257607f821691505b602082108103620002e857620002e76200028a565b5b50919050565b60008190508160005260206000209050919050565b60006020601f8301049050919050565b600082821b905092915050565b600060088302620003527fffffffffffffffffffffffffffffffffffffffffffffffffffffffffffffffff8262000313565b6200035e868362000313565b95508019841693508086168417925050509392505050565b6000819050919050565b6000819050919050565b6000620003ab620003a56200039f8462000376565b62000380565b62000376565b9050919050565b6000819050919050565b620003c7836200038a565b620003df620003d682620003b2565b84845462000320565b825550505050565b600090565b620003f6620003e7565b62000403818484620003bc565b505050565b5b818110156200042b576200041f600082620003ec565b60018101905062000409565b5050565b601f8211156200047a576200044481620002ee565b6200044f8462000303565b810160208510156200045f578190505b620004776200046e8562000303565b83018262000408565b50505b505050565b600082821c905092915050565b60006200049f600019846008026200047f565b1980831691505092915050565b6000620004ba83836200048c565b9150826002028217905092915050565b620004d5826200027f565b67ffffffffffffffff811115620004f157620004f062000096565b5b620004fd8254620002b9565b6200050a8282856200042f565b600060209050601f8311600181146200054257600084156200052d578287015190505b620005398582620004ac565b865550620005a9565b601f1984166200055286620002ee565b60005b828110156200057c5784890151825560018201915060208501945060208101905062000555565b868310156200059c578489015162000598601f8916826200048c565b8355505b6001600288020188555050505b505050505050565b612b4880620005c16000396000f3fe6080604052600436106100dd5760003560e01c80636352211e1161007f578063a22cb46511610059578063a22cb465146102d7578063b88d4fde14610300578063c87b56dd14610329578063e985e9c514610366576100dd565b80636352211e1461023257806370a082311461026f57806395d89b41146102ac576100dd565b8063095ea7b3116100bb578063095ea7b31461018757806323b872dd146101b057806342842e0e146101d957806345576f9414610202576100dd565b806301ffc9a7146100e257806306fdde031461011f578063081812fc1461014a575b600080fd5b3480156100ee57600080fd5b5061010960048036038101906101049190611a4a565b6103a3565b6040516101169190611a92565b60405180910390f35b34801561012b57600080fd5b50610134610485565b6040516101419190611b3d565b60405180910390f35b34801561015657600080fd5b50610171600480360381019061016c9190611b95565b610517565b60405161017e9190611c03565b60405180910390f35b34801561019357600080fd5b506101ae60048036038101906101a99190611c4a565b61055d565b005b3480156101bc57600080fd5b506101d760048036038101906101d29190611c8a565b610674565b005b3480156101e557600080fd5b5061020060048036038101906101fb9190611c8a565b6106d4565b005b61021c60048036038101906102179190611e12565b6106f4565b6040516102299190611e6a565b60405180910390f35b34801561023e57600080fd5b5061025960048036038101906102549190611b95565b61072a565b6040516102669190611c03565b60405180910390f35b34801561027b57600080fd5b5061029660048036038101906102919190611e85565b6107b0565b6040516102a39190611e6a565b60405180910390f35b3480156102b857600080fd5b506102c1610867565b6040516102ce9190611b3d565b60405180910390f35b3480156102e357600080fd5b506102fe60048036038101906102f99190611ede565b6108f9565b005b34801561030c57600080fd5b5061032760048036038101906103229190611fbf565b61090f565b005b34801561033557600080fd5b50610350600480360381019061034b9190611b95565b610971565b60405161035d9190611b3d565b60405180910390f35b34801561037257600080fd5b5061038d60048036038101906103889190612042565b610a83565b60405161039a9190611a92565b60405180910390f35b60007f80ac58cd000000000000000000000000000000000000000000000000000000007bffffffffffffffffffffffffffffffffffffffffffffffffffffffff1916827bffffffffffffffffffffffffffffffffffffffffffffffffffffffff1916148061046e57507f5b5e139f000000000000000000000000000000000000000000000000000000007bffffffffffffffffffffffffffffffffffffffffffffffffffffffff1916827bffffffffffffffffffffffffffffffffffffffffffffffffffffffff1916145b8061047e575061047d82610b17565b5b9050919050565b606060008054610494906120b1565b80601f01602080910402602001604051908101604052809291908181526020018280546104c0906120b1565b801561050d5780601f106104e25761010080835404028352916020019161050d565b820191906000526020600020905b8154815290600101906020018083116104f057829003601f168201915b5050505050905090565b600061052282610b81565b6004600083815260200190815260200160002060009054906101000a900473ffffffffffffffffffffffffffffffffffffffff169050919050565b60006105688261072a565b90508073ffffffffffffffffffffffffffffffffffffffff168373ffffffffffffffffffffffffffffffffffffffff16036105d8576040517f08c379a00000000000000000000000000000000000000000000000000000000081526004016105cf90612154565b60405180910390fd5b8073ffffffffffffffffffffffffffffffffffffffff166105f7610bcc565b73ffffffffffffffffffffffffffffffffffffffff161480610626575061062581610620610bcc565b610a83565b5b610665576040517f08c379a000000000000000000000000000000000000000000000000000000000815260040161065c906121e6565b60405180910390fd5b61066f8383610bd4565b505050565b61068561067f610bcc565b82610c8d565b6106c4576040517f08c379a00000000000000000000000000000000000000000000000000000000081526004016106bb90612278565b60405180910390fd5b6106cf838383610d22565b505050565b6106ef8383836040518060200160405280600081525061090f565b505050565b600080610701600761101b565b905061070d3382611029565b6107178184611047565b61072160076110b4565b80915050919050565b600080610736836110ca565b9050600073ffffffffffffffffffffffffffffffffffffffff168173ffffffffffffffffffffffffffffffffffffffff16036107a7576040517f08c379a000000000000000000000000000000000000000000000000000000000815260040161079e906122e4565b60405180910390fd5b80915050919050565b60008073ffffffffffffffffffffffffffffffffffffffff168273ffffffffffffffffffffffffffffffffffffffff1603610820576040517f08c379a000000000000000000000000000000000000000000000000000000000815260040161081790612376565b60405180910390fd5b600360008373ffffffffffffffffffffffffffffffffffffffff1673ffffffffffffffffffffffffffffffffffffffff168152602001908152602001600020549050919050565b606060018054610876906120b1565b80601f01602080910402602001604051908101604052809291908181526020018280546108a2906120b1565b80156108ef5780601f106108c4576101008083540402835291602001916108ef565b820191906000526020600020905b8154815290600101906020018083116108d257829003601f168201915b5050505050905090565b61090b610904610bcc565b8383611107565b5050565b61092061091a610bcc565b83610c8d565b61095f576040517f08c379a000000000000000000000000000000000000000000000000000000000815260040161095690612278565b60405180910390fd5b61096b84848484611273565b50505050565b606061097c82610b81565b600060066000848152602001908152602001600020805461099c906120b1565b80601f01602080910402602001604051908101604052809291908181526020018280546109c8906120b1565b8015610a155780601f106109ea57610100808354040283529160200191610a15565b820191906000526020600020905b8154815290600101906020018083116109f857829003601f168201915b505050505090506000610a266112cf565b90506000815103610a3b578192505050610a7e565b600082511115610a70578082604051602001610a589291906123d2565b60405160208183030381529060405292505050610a7e565b610a79846112e6565b925050505b919050565b6000600560008473ffffffffffffffffffffffffffffffffffffffff1673ffffffffffffffffffffffffffffffffffffffff16815260200190815260200160002060008373ffffffffffffffffffffffffffffffffffffffff1673ffffffffffffffffffffffffffffffffffffffff16815260200190815260200160002060009054906101000a900460ff16905092915050565b60007f01ffc9a7000000000000000000000000000000000000000000000000000000007bffffffffffffffffffffffffffffffffffffffffffffffffffffffff1916827bffffffffffffffffffffffffffffffffffffffffffffffffffffffff1916149050919050565b610b8a8161134e565b610bc9576040517f08c379a0000000000000000000000000000000000000000000000000000000008152600401610bc0906122e4565b60405180910390fd5b50565b600033905090565b816004600083815260200190815260200160002060006101000a81548173ffffffffffffffffffffffffffffffffffffffff021916908373ffffffffffffffffffffffffffffffffffffffff160217905550808273ffffffffffffffffffffffffffffffffffffffff16610c478361072a565b73ffffffffffffffffffffffffffffffffffffffff167f8c5be1e5ebec7d5bd14f71427d1e84f3dd0314c0f7b2291e5b200ac8c7c3b92560405160405180910390a45050565b600080610c998361072a565b90508073ffffffffffffffffffffffffffffffffffffffff168473ffffffffffffffffffffffffffffffffffffffff161480610cdb5750610cda8185610a83565b5b80610d1957508373ffffffffffffffffffffffffffffffffffffffff16610d0184610517565b73ffffffffffffffffffffffffffffffffffffffff16145b91505092915050565b8273ffffffffffffffffffffffffffffffffffffffff16610d428261072a565b73ffffffffffffffffffffffffffffffffffffffff1614610d98576040517f08c379a0000000000000000000000000000000000000000000000000000000008152600401610d8f90612468565b60405180910390fd5b600073ffffffffffffffffffffffffffffffffffffffff168273ffffffffffffffffffffffffffffffffffffffff1603610e07576040517f08c379a0000000000000000000000000000000000000000000000000000000008152600401610dfe906124fa565b60405180910390fd5b610e14838383600161138f565b8273ffffffffffffffffffffffffffffffffffffffff16610e348261072a565b73ffffffffffffffffffffffffffffffffffffffff1614610e8a576040517f08c379a0000000000000000000000000000000000000000000000000000000008152600401610e8190612468565b60405180910390fd5b6004600082815260200190815260200160002060006101000a81549073ffffffffffffffffffffffffffffffffffffffff02191690556001600360008573ffffffffffffffffffffffffffffffffffffffff1673ffffffffffffffffffffffffffffffffffffffff168152602001908152602001600020600082825403925050819055506001600360008473ffffffffffffffffffffffffffffffffffffffff1673ffffffffffffffffffffffffffffffffffffffff16815260200190815260200160002060008282540192505081905550816002600083815260200190815260200160002060006101000a81548173ffffffffffffffffffffffffffffffffffffffff021916908373ffffffffffffffffffffffffffffffffffffffff160217905550808273ffffffffffffffffffffffffffffffffffffffff168473ffffffffffffffffffffffffffffffffffffffff167fddf252ad1be2c89b69c2b068fc378daa952ba7f163c4a11628f55a4df523b3ef60405160405180910390a46110168383836001611395565b505050565b600081600001549050919050565b61104382826040518060200160405280600081525061139b565b5050565b6110508261134e565b61108f576040517f08c379a00000000000000000000000000000000000000000000000000000000081526004016110869061258c565b60405180910390fd5b806006600084815260200190815260200160002090816110af9190612758565b505050565b6001816000016000828254019250508190555050565b60006002600083815260200190815260200160002060009054906101000a900473ffffffffffffffffffffffffffffffffffffffff169050919050565b8173ffffffffffffffffffffffffffffffffffffffff168373ffffffffffffffffffffffffffffffffffffffff1603611175576040517f08c379a000000000000000000000000000000000000000000000000000000000815260040161116c90612876565b60405180910390fd5b80600560008573ffffffffffffffffffffffffffffffffffffffff1673ffffffffffffffffffffffffffffffffffffffff16815260200190815260200160002060008473ffffffffffffffffffffffffffffffffffffffff1673ffffffffffffffffffffffffffffffffffffffff16815260200190815260200160002060006101000a81548160ff0219169083151502179055508173ffffffffffffffffffffffffffffffffffffffff168373ffffffffffffffffffffffffffffffffffffffff167f17307eab39ab6107e8899845ad3d59bd9653f200f220920489ca2b5937696c31836040516112669190611a92565b60405180910390a3505050565b61127e848484610d22565b61128a848484846113f6565b6112c9576040517f08c379a00000000000000000000000000000000000000000000000000000000081526004016112c090612908565b60405180910390fd5b50505050565b606060405180602001604052806000815250905090565b60606112f182610b81565b60006112fb6112cf565b9050600081511161131b5760405180602001604052806000815250611346565b806113258461157d565b6040516020016113369291906123d2565b6040516020818303038152906040525b915050919050565b60008073ffffffffffffffffffffffffffffffffffffffff16611370836110ca565b73ffffffffffffffffffffffffffffffffffffffff1614159050919050565b50505050565b50505050565b6113a5838361164b565b6113b260008484846113f6565b6113f1576040517f08c379a00000000000000000000000000000000000000000000000000000000081526004016113e890612908565b60405180910390fd5b505050565b60006114178473ffffffffffffffffffffffffffffffffffffffff16611868565b15611570578373ffffffffffffffffffffffffffffffffffffffff1663150b7a02611440610bcc565b8786866040518563ffffffff1660e01b8152600401611462949392919061297d565b6020604051808303816000875af192505050801561149e57506040513d601f19601f8201168201806040525081019061149b91906129de565b60015b611520573d80600081146114ce576040519150601f19603f3d011682016040523d82523d6000602084013e6114d3565b606091505b506000815103611518576040517f08c379a000000000000000000000000000000000000000000000000000000000815260040161150f90612908565b60405180910390fd5b805181602001fd5b63150b7a0260e01b7bffffffffffffffffffffffffffffffffffffffffffffffffffffffff1916817bffffffffffffffffffffffffffffffffffffffffffffffffffffffff191614915050611575565b600190505b949350505050565b60606000600161158c8461188b565b01905060008167ffffffffffffffff8111156115ab576115aa611ce7565b5b6040519080825280601f01601f1916602001820160405280156115dd5781602001600182028036833780820191505090505b509050600082602001820190505b600115611640578080600190039150507f3031323334353637383961626364656600000000000000000000000000000000600a86061a8153600a858161163457611633612a0b565b5b049450600085036115eb575b819350505050919050565b600073ffffffffffffffffffffffffffffffffffffffff168273ffffffffffffffffffffffffffffffffffffffff16036116ba576040517f08c379a00000000000000000000000000000000000000000000000000000000081526004016116b190612a86565b60405180910390fd5b6116c38161134e565b15611703576040517f08c379a00000000000000000000000000000000000000000000000000000000081526004016116fa90612af2565b60405180910390fd5b61171160008383600161138f565b61171a8161134e565b1561175a576040517f08c379a000000000000000000000000000000000000000000000000000000000815260040161175190612af2565b60405180910390fd5b6001600360008473ffffffffffffffffffffffffffffffffffffffff1673ffffffffffffffffffffffffffffffffffffffff16815260200190815260200160002060008282540192505081905550816002600083815260200190815260200160002060006101000a81548173ffffffffffffffffffffffffffffffffffffffff021916908373ffffffffffffffffffffffffffffffffffffffff160217905550808273ffffffffffffffffffffffffffffffffffffffff16600073ffffffffffffffffffffffffffffffffffffffff167fddf252ad1be2c89b69c2b068fc378daa952ba7f163c4a11628f55a4df523b3ef60405160405180910390a4611864600083836001611395565b5050565b6000808273ffffffffffffffffffffffffffffffffffffffff163b119050919050565b600080600090507a184f03e93ff9f4daa797ed6e38ed64bf6a1f01000000000000000083106118e9577a184f03e93ff9f4daa797ed6e38ed64bf6a1f01000000000000000083816118df576118de612a0b565b5b0492506040810190505b6d04ee2d6d415b85acef81000000008310611926576d04ee2d6d415b85acef8100000000838161191c5761191b612a0b565b5b0492506020810190505b662386f26fc10000831061195557662386f26fc10000838161194b5761194a612a0b565b5b0492506010810190505b6305f5e100831061197e576305f5e100838161197457611973612a0b565b5b0492506008810190505b61271083106119a357612710838161199957611998612a0b565b5b0492506004810190505b606483106119c657606483816119bc576119bb612a0b565b5b0492506002810190505b600a83106119d5576001810190505b80915050919050565b6000604051905090565b600080fd5b600080fd5b60007fffffffff0000000000000000000000000000000000000000000000000000000082169050919050565b611a27816119f2565b8114611a3257600080fd5b50565b600081359050611a4481611a1e565b92915050565b600060208284031215611a6057611a5f6119e8565b5b6000611a6e84828501611a35565b91505092915050565b60008115159050919050565b611a8c81611a77565b82525050565b6000602082019050611aa76000830184611a83565b92915050565b600081519050919050565b600082825260208201905092915050565b60005b83811015611ae7578082015181840152602081019050611acc565b60008484015250505050565b6000601f19601f8301169050919050565b6000611b0f82611aad565b611b198185611ab8565b9350611b29818560208601611ac9565b611b3281611af3565b840191505092915050565b60006020820190508181036000830152611b578184611b04565b905092915050565b6000819050919050565b611b7281611b5f565b8114611b7d57600080fd5b50565b600081359050611b8f81611b69565b92915050565b600060208284031215611bab57611baa6119e8565b5b6000611bb984828501611b80565b91505092915050565b600073ffffffffffffffffffffffffffffffffffffffff82169050919050565b6000611bed82611bc2565b9050919050565b611bfd81611be2565b82525050565b6000602082019050611c186000830184611bf4565b92915050565b611c2781611be2565b8114611c3257600080fd5b50565b600081359050611c4481611c1e565b92915050565b60008060408385031215611c6157611c606119e8565b5b6000611c6f85828601611c35565b9250506020611c8085828601611b80565b9150509250929050565b600080600060608486031215611ca357611ca26119e8565b5b6000611cb186828701611c35565b9350506020611cc286828701611c35565b9250506040611cd386828701611b80565b9150509250925092565b600080fd5b600080fd5b7f4e487b7100000000000000000000000000000000000000000000000000000000600052604160045260246000fd5b611d1f82611af3565b810181811067ffffffffffffffff82111715611d3e57611d3d611ce7565b5b80604052505050565b6000611d516119de565b9050611d5d8282611d16565b919050565b600067ffffffffffffffff821115611d7d57611d7c611ce7565b5b611d8682611af3565b9050602081019050919050565b82818337600083830152505050565b6000611db5611db084611d62565b611d47565b905082815260208101848484011115611dd157611dd0611ce2565b5b611ddc848285611d93565b509392505050565b600082601f830112611df957611df8611cdd565b5b8135611e09848260208601611da2565b91505092915050565b600060208284031215611e2857611e276119e8565b5b600082013567ffffffffffffffff811115611e4657611e456119ed565b5b611e5284828501611de4565b91505092915050565b611e6481611b5f565b82525050565b6000602082019050611e7f6000830184611e5b565b92915050565b600060208284031215611e9b57611e9a6119e8565b5b6000611ea984828501611c35565b91505092915050565b611ebb81611a77565b8114611ec657600080fd5b50565b600081359050611ed881611eb2565b92915050565b60008060408385031215611ef557611ef46119e8565b5b6000611f0385828601611c35565b9250506020611f1485828601611ec9565b9150509250929050565b600067ffffffffffffffff821115611f3957611f38611ce7565b5b611f4282611af3565b9050602081019050919050565b6000611f62611f5d84611f1e565b611d47565b905082815260208101848484011115611f7e57611f7d611ce2565b5b611f89848285611d93565b509392505050565b600082601f830112611fa657611fa5611cdd565b5b8135611fb6848260208601611f4f565b91505092915050565b60008060008060808587031215611fd957611fd86119e8565b5b6000611fe787828801611c35565b9450506020611ff887828801611c35565b935050604061200987828801611b80565b925050606085013567ffffffffffffffff81111561202a576120296119ed565b5b61203687828801611f91565b91505092959194509250565b60008060408385031215612059576120586119e8565b5b600061206785828601611c35565b925050602061207885828601611c35565b9150509250929050565b7f4e487b7100000000000000000000000000000000000000000000000000000000600052602260045260246000fd5b600060028204905060018216806120c957607f821691505b6020821081036120dc576120db612082565b5b50919050565b7f4552433732313a20617070726f76616c20746f2063757272656e74206f776e6560008201527f7200000000000000000000000000000000000000000000000000000000000000602082015250565b600061213e602183611ab8565b9150612149826120e2565b604082019050919050565b6000602082019050818103600083015261216d81612131565b9050919050565b7f4552433732313a20617070726f76652063616c6c6572206973206e6f7420746f60008201527f6b656e206f776e6572206f7220617070726f76656420666f7220616c6c000000602082015250565b60006121d0603d83611ab8565b91506121db82612174565b604082019050919050565b600060208201905081810360008301526121ff816121c3565b9050919050565b7f4552433732313a2063616c6c6572206973206e6f7420746f6b656e206f776e6560008201527f72206f7220617070726f76656400000000000000000000000000000000000000602082015250565b6000612262602d83611ab8565b915061226d82612206565b604082019050919050565b6000602082019050818103600083015261229181612255565b9050919050565b7f4552433732313a20696e76616c696420746f6b656e2049440000000000000000600082015250565b60006122ce601883611ab8565b91506122d982612298565b602082019050919050565b600060208201905081810360008301526122fd816122c1565b9050919050565b7f4552433732313a2061646472657373207a65726f206973206e6f74206120766160008201527f6c6964206f776e65720000000000000000000000000000000000000000000000602082015250565b6000612360602983611ab8565b915061236b82612304565b604082019050919050565b6000602082019050818103600083015261238f81612353565b9050919050565b600081905092915050565b60006123ac82611aad565b6123b68185612396565b93506123c6818560208601611ac9565b80840191505092915050565b60006123de82856123a1565b91506123ea82846123a1565b91508190509392505050565b7f4552433732313a207472616e736665722066726f6d20696e636f72726563742060008201527f6f776e6572000000000000000000000000000000000000000000000000000000602082015250565b6000612452602583611ab8565b915061245d826123f6565b604082019050919050565b6000602082019050818103600083015261248181612445565b9050919050565b7f4552433732313a207472616e7366657220746f20746865207a65726f2061646460008201527f7265737300000000000000000000000000000000000000000000000000000000602082015250565b60006124e4602483611ab8565b91506124ef82612488565b604082019050919050565b60006020820190508181036000830152612513816124d7565b9050919050565b7f45524337323155524953746f726167653a2055524920736574206f66206e6f6e60008201527f6578697374656e7420746f6b656e000000000000000000000000000000000000602082015250565b6000612576602e83611ab8565b91506125818261251a565b604082019050919050565b600060208201905081810360008301526125a581612569565b9050919050565b60008190508160005260206000209050919050565b60006020601f8301049050919050565b600082821b905092915050565b60006008830261260e7fffffffffffffffffffffffffffffffffffffffffffffffffffffffffffffffff826125d1565b61261886836125d1565b95508019841693508086168417925050509392505050565b6000819050919050565b600061265561265061264b84611b5f565b612630565b611b5f565b9050919050565b6000819050919050565b61266f8361263a565b61268361267b8261265c565b8484546125de565b825550505050565b600090565b61269861268b565b6126a3818484612666565b505050565b5b818110156126c7576126bc600082612690565b6001810190506126a9565b5050565b601f82111561270c576126dd816125ac565b6126e6846125c1565b810160208510156126f5578190505b612709612701856125c1565b8301826126a8565b50505b505050565b600082821c905092915050565b600061272f60001984600802612711565b1980831691505092915050565b6000612748838361271e565b9150826002028217905092915050565b61276182611aad565b67ffffffffffffffff81111561277a57612779611ce7565b5b61278482546120b1565b61278f8282856126cb565b600060209050601f8311600181146127c257600084156127b0578287015190505b6127ba858261273c565b865550612822565b601f1984166127d0866125ac565b60005b828110156127f8578489015182556001820191506020850194506020810190506127d3565b868310156128155784890151612811601f89168261271e565b8355505b6001600288020188555050505b505050505050565b7f4552433732313a20617070726f766520746f2063616c6c657200000000000000600082015250565b6000612860601983611ab8565b915061286b8261282a565b602082019050919050565b6000602082019050818103600083015261288f81612853565b9050919050565b7f4552433732313a207472616e7366657220746f206e6f6e20455243373231526560008201527f63656976657220696d706c656d656e7465720000000000000000000000000000602082015250565b60006128f2603283611ab8565b91506128fd82612896565b604082019050919050565b60006020820190508181036000830152612921816128e5565b9050919050565b600081519050919050565b600082825260208201905092915050565b600061294f82612928565b6129598185612933565b9350612969818560208601611ac9565b61297281611af3565b840191505092915050565b60006080820190506129926000830187611bf4565b61299f6020830186611bf4565b6129ac6040830185611e5b565b81810360608301526129be8184612944565b905095945050505050565b6000815190506129d881611a1e565b92915050565b6000602082840312156129f4576129f36119e8565b5b6000612a02848285016129c9565b91505092915050565b7f4e487b7100000000000000000000000000000000000000000000000000000000600052601260045260246000fd5b7f4552433732313a206d696e7420746f20746865207a65726f2061646472657373600082015250565b6000612a70602083611ab8565b9150612a7b82612a3a565b602082019050919050565b60006020820190508181036000830152612a9f81612a63565b9050919050565b7f4552433732313a20746f6b656e20616c7265616479206d696e74656400000000600082015250565b6000612adc601c83611ab8565b9150612ae782612aa6565b602082019050919050565b60006020820190508181036000830152612b0b81612acf565b905091905056fea2646970667358221220a694d1c37788b0960bae02649bd4e7320f1126e65bdb51fa9b5f6623fb041bd764736f6c63430008120033a2646970667358221220baaed00de860ec2c8876c83ff057d04f4f2843abc174b970d050ba700315fdad64736f6c63430008120033",
  "linkReferences": {},
  "deployedLinkReferences": {}
}