{
  "_format": "hh-sol-artifact-1",
  "contractName": "CollectionFactory",
  "sourceName": "contracts/CollectionFactory.sol",
  "abi": [
    {
      "inputs": [],
      "stateMutability": "nonpayable",
      "type": "constructor"
    },
    {
      "anonymous": false,
      "inputs": [
        {
          "indexed": false,
          "internalType": "uint256",
          "name": "collectionId",
          "type": "uint256"
        },
        {
          "indexed": false,
          "internalType": "string",
          "name": "name",
          "type": "string"
        },
        {
          "indexed": false,
          "internalType": "string",
          "name": "symbol",
          "type": "string"
        },
        {
          "indexed": false,
          "internalType": "string",
          "name": "description",
          "type": "string"
        },
        {
          "indexed": false,
          "internalType": "string",
          "name": "image",
          "type": "string"
        },
        {
          "indexed": false,
          "internalType": "string",
          "name": "logo",
          "type": "string"
        },
        {
          "indexed": false,
          "internalType": "address",
          "name": "owner",
          "type": "address"
        },
        {
          "indexed": false,
          "internalType": "contract NFTCollection",
          "name": "collection_address",
          "type": "address"
        }
      ],
      "name": "CollectionCreated",
      "type": "event"
    },
    {
      "inputs": [
        {
          "internalType": "string",
          "name": "collection_name",
          "type": "string"
        },
        {
          "internalType": "string",
          "name": "collection_symbol",
          "type": "string"
        },
        {
          "internalType": "string",
          "name": "collection_image",
          "type": "string"
        },
        {
          "internalType": "string",
          "name": "collection_logo",
          "type": "string"
        },
        {
          "internalType": "string",
          "name": "collection_description",
          "type": "string"
        }
      ],
      "name": "create_collection",
      "outputs": [],
      "stateMutability": "nonpayable",
      "type": "function"
    },
    {
      "inputs": [],
      "name": "getAllCollections",
      "outputs": [
        {
          "components": [
            {
              "internalType": "uint256",
              "name": "collectionId",
              "type": "uint256"
            },
            {
              "internalType": "string",
              "name": "name",
              "type": "string"
            },
            {
              "internalType": "string",
              "name": "symbol",
              "type": "string"
            },
            {
              "internalType": "string",
              "name": "description",
              "type": "string"
            },
            {
              "internalType": "string",
              "name": "image",
              "type": "string"
            },
            {
              "internalType": "string",
              "name": "logo",
              "type": "string"
            },
            {
              "internalType": "address",
              "name": "owner",
              "type": "address"
            },
            {
              "internalType": "contract NFTCollection",
              "name": "collection_address",
              "type": "address"
            }
          ],
          "internalType": "struct CollectionFactory.Collection[]",
          "name": "",
          "type": "tuple[]"
        }
      ],
      "stateMutability": "view",
      "type": "function"
    },
    {
      "inputs": [
        {
          "internalType": "uint256",
          "name": "collection_id",
          "type": "uint256"
        }
      ],
      "name": "getCollectionById",
      "outputs": [
        {
          "components": [
            {
              "internalType": "uint256",
              "name": "collectionId",
              "type": "uint256"
            },
            {
              "internalType": "string",
              "name": "name",
              "type": "string"
            },
            {
              "internalType": "string",
              "name": "symbol",
              "type": "string"
            },
            {
              "internalType": "string",
              "name": "description",
              "type": "string"
            },
            {
              "internalType": "string",
              "name": "image",
              "type": "string"
            },
            {
              "internalType": "string",
              "name": "logo",
              "type": "string"
            },
            {
              "internalType": "address",
              "name": "owner",
              "type": "address"
            },
            {
              "internalType": "contract NFTCollection",
              "name": "collection_address",
              "type": "address"
            }
          ],
          "internalType": "struct CollectionFactory.Collection",
          "name": "",
          "type": "tuple"
        }
      ],
      "stateMutability": "view",
      "type": "function"
    },
    {
      "inputs": [],
      "name": "getMyCollections",
      "outputs": [
        {
          "components": [
            {
              "internalType": "uint256",
              "name": "collectionId",
              "type": "uint256"
            },
            {
              "internalType": "string",
              "name": "name",
              "type": "string"
            },
            {
              "internalType": "string",
              "name": "symbol",
              "type": "string"
            },
            {
              "internalType": "string",
              "name": "description",
              "type": "string"
            },
            {
              "internalType": "string",
              "name": "image",
              "type": "string"
            },
            {
              "internalType": "string",
              "name": "logo",
              "type": "string"
            },
            {
              "internalType": "address",
              "name": "owner",
              "type": "address"
            },
            {
              "internalType": "contract NFTCollection",
              "name": "collection_address",
              "type": "address"
            }
          ],
          "internalType": "struct CollectionFactory.Collection[]",
          "name": "",
          "type": "tuple[]"
        }
      ],
      "stateMutability": "view",
      "type": "function"
    }
  ],
  "bytecode": "0x608060405234801561001057600080fd5b5033600260006101000a81548173ffffffffffffffffffffffffffffffffffffffff021916908373ffffffffffffffffffffffffffffffffffffffff160217905550615151806100616000396000f3fe60806040523480156200001157600080fd5b5060043610620000525760003560e01c8063640ca1a714620000575780636804a9581462000077578063d61019801462000099578063e547cb8514620000bb575b600080fd5b6200007560048036038101906200006f9190620014fe565b620000f1565b005b62000081620004a9565b60405162000090919062001921565b60405180910390f35b620000a362000943565b604051620000b2919062001921565b60405180910390f35b620000d96004803603810190620000d3919062001976565b62000efd565b604051620000e8919062001a84565b60405180910390f35b6000620000ff6000620012e5565b905060008686604051620001139062001309565b6200012092919062001afa565b604051809103906000f0801580156200013d573d6000803e3d6000fd5b50905060006040518061010001604052808481526020018981526020018881526020018581526020018781526020018681526020013373ffffffffffffffffffffffffffffffffffffffff1681526020018373ffffffffffffffffffffffffffffffffffffffff168152509050600360003373ffffffffffffffffffffffffffffffffffffffff1673ffffffffffffffffffffffffffffffffffffffff16815260200190815260200160002081908060018154018082558091505060019003906000526020600020906008020160009091909190915060008201518160000155602082015181600101908162000234919062001d61565b5060408201518160020190816200024c919062001d61565b50606082015181600301908162000264919062001d61565b5060808201518160040190816200027c919062001d61565b5060a082015181600501908162000294919062001d61565b5060c08201518160060160006101000a81548173ffffffffffffffffffffffffffffffffffffffff021916908373ffffffffffffffffffffffffffffffffffffffff16021790555060e08201518160070160006101000a81548173ffffffffffffffffffffffffffffffffffffffff021916908373ffffffffffffffffffffffffffffffffffffffff160217905550505080600460008581526020019081526020016000206000820151816000015560208201518160010190816200035a919062001d61565b50604082015181600201908162000372919062001d61565b5060608201518160030190816200038a919062001d61565b506080820151816004019081620003a2919062001d61565b5060a0820151816005019081620003ba919062001d61565b5060c08201518160060160006101000a81548173ffffffffffffffffffffffffffffffffffffffff021916908373ffffffffffffffffffffffffffffffffffffffff16021790555060e08201518160070160006101000a81548173ffffffffffffffffffffffffffffffffffffffff021916908373ffffffffffffffffffffffffffffffffffffffff160217905550905050620004586000620012f3565b7ff7329c93b093f3f1d592b81aab60367e7d1acc1e02bd88fb7313e6f852c85f8f838989878a8a33896040516200049798979695949392919062001e7b565b60405180910390a15050505050505050565b60606000620004b96000620012e5565b905060008167ffffffffffffffff811115620004da57620004d9620013b7565b5b6040519080825280602002602001820160405280156200051757816020015b6200050362001317565b815260200190600190039081620004f95790505b50905060005b828110156200093a576000600460008381526020019081526020016000209050806040518061010001604052908160008201548152602001600182018054620005669062001b64565b80601f0160208091040260200160405190810160405280929190818152602001828054620005949062001b64565b8015620005e55780601f10620005b957610100808354040283529160200191620005e5565b820191906000526020600020905b815481529060010190602001808311620005c757829003601f168201915b50505050508152602001600282018054620006009062001b64565b80601f01602080910402602001604051908101604052809291908181526020018280546200062e9062001b64565b80156200067f5780601f1062000653576101008083540402835291602001916200067f565b820191906000526020600020905b8154815290600101906020018083116200066157829003601f168201915b505050505081526020016003820180546200069a9062001b64565b80601f0160208091040260200160405190810160405280929190818152602001828054620006c89062001b64565b8015620007195780601f10620006ed5761010080835404028352916020019162000719565b820191906000526020600020905b815481529060010190602001808311620006fb57829003601f168201915b50505050508152602001600482018054620007349062001b64565b80601f0160208091040260200160405190810160405280929190818152602001828054620007629062001b64565b8015620007b35780601f106200078757610100808354040283529160200191620007b3565b820191906000526020600020905b8154815290600101906020018083116200079557829003601f168201915b50505050508152602001600582018054620007ce9062001b64565b80601f0160208091040260200160405190810160405280929190818152602001828054620007fc9062001b64565b80156200084d5780601f1062000821576101008083540402835291602001916200084d565b820191906000526020600020905b8154815290600101906020018083116200082f57829003601f168201915b505050505081526020016006820160009054906101000a900473ffffffffffffffffffffffffffffffffffffffff1673ffffffffffffffffffffffffffffffffffffffff1673ffffffffffffffffffffffffffffffffffffffff1681526020016007820160009054906101000a900473ffffffffffffffffffffffffffffffffffffffff1673ffffffffffffffffffffffffffffffffffffffff1673ffffffffffffffffffffffffffffffffffffffff168152505083838151811062000918576200091762001f2c565b5b6020026020010181905250508080620009319062001f8a565b9150506200051d565b50809250505090565b60606000620009536000620012e5565b905060008060005b83811015620009f6573373ffffffffffffffffffffffffffffffffffffffff166004600083815260200190815260200160002060060160009054906101000a900473ffffffffffffffffffffffffffffffffffffffff1673ffffffffffffffffffffffffffffffffffffffff1603620009e057600183620009dd919062001fd7565b92505b8080620009ed9062001f8a565b9150506200095b565b5060008267ffffffffffffffff81111562000a165762000a15620013b7565b5b60405190808252806020026020018201604052801562000a5357816020015b62000a3f62001317565b81526020019060019003908162000a355790505b50905060005b8481101562000ef2573373ffffffffffffffffffffffffffffffffffffffff166004600083815260200190815260200160002060060160009054906101000a900473ffffffffffffffffffffffffffffffffffffffff1673ffffffffffffffffffffffffffffffffffffffff160362000edc57600060046000838152602001908152602001600020905080604051806101000160405290816000820154815260200160018201805462000b0c9062001b64565b80601f016020809104026020016040519081016040528092919081815260200182805462000b3a9062001b64565b801562000b8b5780601f1062000b5f5761010080835404028352916020019162000b8b565b820191906000526020600020905b81548152906001019060200180831162000b6d57829003601f168201915b5050505050815260200160028201805462000ba69062001b64565b80601f016020809104026020016040519081016040528092919081815260200182805462000bd49062001b64565b801562000c255780601f1062000bf95761010080835404028352916020019162000c25565b820191906000526020600020905b81548152906001019060200180831162000c0757829003601f168201915b5050505050815260200160038201805462000c409062001b64565b80601f016020809104026020016040519081016040528092919081815260200182805462000c6e9062001b64565b801562000cbf5780601f1062000c935761010080835404028352916020019162000cbf565b820191906000526020600020905b81548152906001019060200180831162000ca157829003601f168201915b5050505050815260200160048201805462000cda9062001b64565b80601f016020809104026020016040519081016040528092919081815260200182805462000d089062001b64565b801562000d595780601f1062000d2d5761010080835404028352916020019162000d59565b820191906000526020600020905b81548152906001019060200180831162000d3b57829003601f168201915b5050505050815260200160058201805462000d749062001b64565b80601f016020809104026020016040519081016040528092919081815260200182805462000da29062001b64565b801562000df35780601f1062000dc75761010080835404028352916020019162000df3565b820191906000526020600020905b81548152906001019060200180831162000dd557829003601f168201915b505050505081526020016006820160009054906101000a900473ffffffffffffffffffffffffffffffffffffffff1673ffffffffffffffffffffffffffffffffffffffff1673ffffffffffffffffffffffffffffffffffffffff1681526020016007820160009054906101000a900473ffffffffffffffffffffffffffffffffffffffff1673ffffffffffffffffffffffffffffffffffffffff1673ffffffffffffffffffffffffffffffffffffffff168152505083858151811062000ebe5762000ebd62001f2c565b5b602002602001018190525060018462000ed8919062001fd7565b9350505b808062000ee99062001f8a565b91505062000a59565b508094505050505090565b62000f0762001317565b60046000838152602001908152602001600020604051806101000160405290816000820154815260200160018201805462000f429062001b64565b80601f016020809104026020016040519081016040528092919081815260200182805462000f709062001b64565b801562000fc15780601f1062000f955761010080835404028352916020019162000fc1565b820191906000526020600020905b81548152906001019060200180831162000fa357829003601f168201915b5050505050815260200160028201805462000fdc9062001b64565b80601f01602080910402602001604051908101604052809291908181526020018280546200100a9062001b64565b80156200105b5780601f106200102f576101008083540402835291602001916200105b565b820191906000526020600020905b8154815290600101906020018083116200103d57829003601f168201915b50505050508152602001600382018054620010769062001b64565b80601f0160208091040260200160405190810160405280929190818152602001828054620010a49062001b64565b8015620010f55780601f10620010c957610100808354040283529160200191620010f5565b820191906000526020600020905b815481529060010190602001808311620010d757829003601f168201915b50505050508152602001600482018054620011109062001b64565b80601f01602080910402602001604051908101604052809291908181526020018280546200113e9062001b64565b80156200118f5780601f1062001163576101008083540402835291602001916200118f565b820191906000526020600020905b8154815290600101906020018083116200117157829003601f168201915b50505050508152602001600582018054620011aa9062001b64565b80601f0160208091040260200160405190810160405280929190818152602001828054620011d89062001b64565b8015620012295780601f10620011fd5761010080835404028352916020019162001229565b820191906000526020600020905b8154815290600101906020018083116200120b57829003601f168201915b505050505081526020016006820160009054906101000a900473ffffffffffffffffffffffffffffffffffffffff1673ffffffffffffffffffffffffffffffffffffffff1673ffffffffffffffffffffffffffffffffffffffff1681526020016007820160009054906101000a900473ffffffffffffffffffffffffffffffffffffffff1673ffffffffffffffffffffffffffffffffffffffff1673ffffffffffffffffffffffffffffffffffffffff16815250509050919050565b600081600001549050919050565b6001816000016000828254019250508190555050565b613109806200201383390190565b604051806101000160405280600081526020016060815260200160608152602001606081526020016060815260200160608152602001600073ffffffffffffffffffffffffffffffffffffffff168152602001600073ffffffffffffffffffffffffffffffffffffffff1681525090565b6000604051905090565b600080fd5b600080fd5b600080fd5b600080fd5b6000601f19601f8301169050919050565b7f4e487b7100000000000000000000000000000000000000000000000000000000600052604160045260246000fd5b620013f182620013a6565b810181811067ffffffffffffffff82111715620014135762001412620013b7565b5b80604052505050565b60006200142862001388565b9050620014368282620013e6565b919050565b600067ffffffffffffffff821115620014595762001458620013b7565b5b6200146482620013a6565b9050602081019050919050565b82818337600083830152505050565b60006200149762001491846200143b565b6200141c565b905082815260208101848484011115620014b657620014b5620013a1565b5b620014c384828562001471565b509392505050565b600082601f830112620014e357620014e26200139c565b5b8135620014f584826020860162001480565b91505092915050565b600080600080600060a086880312156200151d576200151c62001392565b5b600086013567ffffffffffffffff8111156200153e576200153d62001397565b5b6200154c88828901620014cb565b955050602086013567ffffffffffffffff81111562001570576200156f62001397565b5b6200157e88828901620014cb565b945050604086013567ffffffffffffffff811115620015a257620015a162001397565b5b620015b088828901620014cb565b935050606086013567ffffffffffffffff811115620015d457620015d362001397565b5b620015e288828901620014cb565b925050608086013567ffffffffffffffff81111562001606576200160562001397565b5b6200161488828901620014cb565b9150509295509295909350565b600081519050919050565b600082825260208201905092915050565b6000819050602082019050919050565b6000819050919050565b62001662816200164d565b82525050565b600081519050919050565b600082825260208201905092915050565b60005b83811015620016a457808201518184015260208101905062001687565b60008484015250505050565b6000620016bd8262001668565b620016c9818562001673565b9350620016db81856020860162001684565b620016e681620013a6565b840191505092915050565b600073ffffffffffffffffffffffffffffffffffffffff82169050919050565b60006200171e82620016f1565b9050919050565b620017308162001711565b82525050565b6000819050919050565b6000620017616200175b6200175584620016f1565b62001736565b620016f1565b9050919050565b6000620017758262001740565b9050919050565b6000620017898262001768565b9050919050565b6200179b816200177c565b82525050565b600061010083016000830151620017bc600086018262001657565b5060208301518482036020860152620017d68282620016b0565b91505060408301518482036040860152620017f28282620016b0565b915050606083015184820360608601526200180e8282620016b0565b915050608083015184820360808601526200182a8282620016b0565b91505060a083015184820360a0860152620018468282620016b0565b91505060c08301516200185d60c086018262001725565b5060e08301516200187260e086018262001790565b508091505092915050565b60006200188b8383620017a1565b905092915050565b6000602082019050919050565b6000620018ad8262001621565b620018b981856200162c565b935083602082028501620018cd856200163d565b8060005b858110156200190f5784840389528151620018ed85826200187d565b9450620018fa8362001893565b925060208a01995050600181019050620018d1565b50829750879550505050505092915050565b600060208201905081810360008301526200193d8184620018a0565b905092915050565b62001950816200164d565b81146200195c57600080fd5b50565b600081359050620019708162001945565b92915050565b6000602082840312156200198f576200198e62001392565b5b60006200199f848285016200195f565b91505092915050565b600061010083016000830151620019c3600086018262001657565b5060208301518482036020860152620019dd8282620016b0565b91505060408301518482036040860152620019f98282620016b0565b9150506060830151848203606086015262001a158282620016b0565b9150506080830151848203608086015262001a318282620016b0565b91505060a083015184820360a086015262001a4d8282620016b0565b91505060c083015162001a6460c086018262001725565b5060e083015162001a7960e086018262001790565b508091505092915050565b6000602082019050818103600083015262001aa08184620019a8565b905092915050565b600082825260208201905092915050565b600062001ac68262001668565b62001ad2818562001aa8565b935062001ae481856020860162001684565b62001aef81620013a6565b840191505092915050565b6000604082019050818103600083015262001b16818562001ab9565b9050818103602083015262001b2c818462001ab9565b90509392505050565b7f4e487b7100000000000000000000000000000000000000000000000000000000600052602260045260246000fd5b6000600282049050600182168062001b7d57607f821691505b60208210810362001b935762001b9262001b35565b5b50919050565b60008190508160005260206000209050919050565b60006020601f8301049050919050565b600082821b905092915050565b60006008830262001bfd7fffffffffffffffffffffffffffffffffffffffffffffffffffffffffffffffff8262001bbe565b62001c09868362001bbe565b95508019841693508086168417925050509392505050565b600062001c4262001c3c62001c36846200164d565b62001736565b6200164d565b9050919050565b6000819050919050565b62001c5e8362001c21565b62001c7662001c6d8262001c49565b84845462001bcb565b825550505050565b600090565b62001c8d62001c7e565b62001c9a81848462001c53565b505050565b5b8181101562001cc25762001cb660008262001c83565b60018101905062001ca0565b5050565b601f82111562001d115762001cdb8162001b99565b62001ce68462001bae565b8101602085101562001cf6578190505b62001d0e62001d058562001bae565b83018262001c9f565b50505b505050565b600082821c905092915050565b600062001d366000198460080262001d16565b1980831691505092915050565b600062001d51838362001d23565b9150826002028217905092915050565b62001d6c8262001668565b67ffffffffffffffff81111562001d885762001d87620013b7565b5b62001d94825462001b64565b62001da182828562001cc6565b600060209050601f83116001811462001dd9576000841562001dc4578287015190505b62001dd0858262001d43565b86555062001e40565b601f19841662001de98662001b99565b60005b8281101562001e135784890151825560018201915060208501945060208101905062001dec565b8683101562001e33578489015162001e2f601f89168262001d23565b8355505b6001600288020188555050505b505050505050565b62001e53816200164d565b82525050565b62001e648162001711565b82525050565b62001e75816200177c565b82525050565b60006101008201905062001e93600083018b62001e48565b818103602083015262001ea7818a62001ab9565b9050818103604083015262001ebd818962001ab9565b9050818103606083015262001ed3818862001ab9565b9050818103608083015262001ee9818762001ab9565b905081810360a083015262001eff818662001ab9565b905062001f1060c083018562001e59565b62001f1f60e083018462001e6a565b9998505050505050505050565b7f4e487b7100000000000000000000000000000000000000000000000000000000600052603260045260246000fd5b7f4e487b7100000000000000000000000000000000000000000000000000000000600052601160045260246000fd5b600062001f97826200164d565b91507fffffffffffffffffffffffffffffffffffffffffffffffffffffffffffffffff820362001fcc5762001fcb62001f5b565b5b600182019050919050565b600062001fe4826200164d565b915062001ff1836200164d565b92508282019050808211156200200c576200200b62001f5b565b5b9291505056fe60806040523480156200001157600080fd5b5060405162003109380380620031098339818101604052810190620000379190620001fa565b818181600090816200004a9190620004ca565b5080600190816200005c9190620004ca565b5050505050620005b1565b6000604051905090565b600080fd5b600080fd5b600080fd5b600080fd5b6000601f19601f8301169050919050565b7f4e487b7100000000000000000000000000000000000000000000000000000000600052604160045260246000fd5b620000d08262000085565b810181811067ffffffffffffffff82111715620000f257620000f162000096565b5b80604052505050565b60006200010762000067565b9050620001158282620000c5565b919050565b600067ffffffffffffffff82111562000138576200013762000096565b5b620001438262000085565b9050602081019050919050565b60005b838110156200017057808201518184015260208101905062000153565b60008484015250505050565b6000620001936200018d846200011a565b620000fb565b905082815260208101848484011115620001b257620001b162000080565b5b620001bf84828562000150565b509392505050565b600082601f830112620001df57620001de6200007b565b5b8151620001f18482602086016200017c565b91505092915050565b6000806040838503121562000214576200021362000071565b5b600083015167ffffffffffffffff81111562000235576200023462000076565b5b6200024385828601620001c7565b925050602083015167ffffffffffffffff81111562000267576200026662000076565b5b6200027585828601620001c7565b9150509250929050565b600081519050919050565b7f4e487b7100000000000000000000000000000000000000000000000000000000600052602260045260246000fd5b60006002820490506001821680620002d257607f821691505b602082108103620002e857620002e76200028a565b5b50919050565b60008190508160005260206000209050919050565b60006020601f8301049050919050565b600082821b905092915050565b600060088302620003527fffffffffffffffffffffffffffffffffffffffffffffffffffffffffffffffff8262000313565b6200035e868362000313565b95508019841693508086168417925050509392505050565b6000819050919050565b6000819050919050565b6000620003ab620003a56200039f8462000376565b62000380565b62000376565b9050919050565b6000819050919050565b620003c7836200038a565b620003df620003d682620003b2565b84845462000320565b825550505050565b600090565b620003f6620003e7565b62000403818484620003bc565b505050565b5b818110156200042b576200041f600082620003ec565b60018101905062000409565b5050565b601f8211156200047a576200044481620002ee565b6200044f8462000303565b810160208510156200045f578190505b620004776200046e8562000303565b83018262000408565b50505b505050565b600082821c905092915050565b60006200049f600019846008026200047f565b1980831691505092915050565b6000620004ba83836200048c565b9150826002028217905092915050565b620004d5826200027f565b67ffffffffffffffff811115620004f157620004f062000096565b5b620004fd8254620002b9565b6200050a8282856200042f565b600060209050601f8311600181146200054257600084156200052d578287015190505b620005398582620004ac565b865550620005a9565b601f1984166200055286620002ee565b60005b828110156200057c5784890151825560018201915060208501945060208101905062000555565b868310156200059c578489015162000598601f8916826200048c565b8355505b6001600288020188555050505b505050505050565b612b4880620005c16000396000f3fe6080604052600436106100dd5760003560e01c80636352211e1161007f578063a22cb46511610059578063a22cb465146102d7578063b88d4fde14610300578063c87b56dd14610329578063e985e9c514610366576100dd565b80636352211e1461023257806370a082311461026f57806395d89b41146102ac576100dd565b8063095ea7b3116100bb578063095ea7b31461018757806323b872dd146101b057806342842e0e146101d957806345576f9414610202576100dd565b806301ffc9a7146100e257806306fdde031461011f578063081812fc1461014a575b600080fd5b3480156100ee57600080fd5b5061010960048036038101906101049190611a4a565b6103a3565b6040516101169190611a92565b60405180910390f35b34801561012b57600080fd5b50610134610485565b6040516101419190611b3d565b60405180910390f35b34801561015657600080fd5b50610171600480360381019061016c9190611b95565b610517565b60405161017e9190611c03565b60405180910390f35b34801561019357600080fd5b506101ae60048036038101906101a99190611c4a565b61055d565b005b3480156101bc57600080fd5b506101d760048036038101906101d29190611c8a565b610674565b005b3480156101e557600080fd5b5061020060048036038101906101fb9190611c8a565b6106d4565b005b61021c60048036038101906102179190611e12565b6106f4565b6040516102299190611e6a565b60405180910390f35b34801561023e57600080fd5b5061025960048036038101906102549190611b95565b61072a565b6040516102669190611c03565b60405180910390f35b34801561027b57600080fd5b5061029660048036038101906102919190611e85565b6107b0565b6040516102a39190611e6a565b60405180910390f35b3480156102b857600080fd5b506102c1610867565b6040516102ce9190611b3d565b60405180910390f35b3480156102e357600080fd5b506102fe60048036038101906102f99190611ede565b6108f9565b005b34801561030c57600080fd5b5061032760048036038101906103229190611fbf565b61090f565b005b34801561033557600080fd5b50610350600480360381019061034b9190611b95565b610971565b60405161035d9190611b3d565b60405180910390f35b34801561037257600080fd5b5061038d60048036038101906103889190612042565b610a83565b60405161039a9190611a92565b60405180910390f35b60007f80ac58cd000000000000000000000000000000000000000000000000000000007bffffffffffffffffffffffffffffffffffffffffffffffffffffffff1916827bffffffffffffffffffffffffffffffffffffffffffffffffffffffff1916148061046e57507f5b5e139f000000000000000000000000000000000000000000000000000000007bffffffffffffffffffffffffffffffffffffffffffffffffffffffff1916827bffffffffffffffffffffffffffffffffffffffffffffffffffffffff1916145b8061047e575061047d82610b17565b5b9050919050565b606060008054610494906120b1565b80601f01602080910402602001604051908101604052809291908181526020018280546104c0906120b1565b801561050d5780601f106104e25761010080835404028352916020019161050d565b820191906000526020600020905b8154815290600101906020018083116104f057829003601f168201915b5050505050905090565b600061052282610b81565b6004600083815260200190815260200160002060009054906101000a900473ffffffffffffffffffffffffffffffffffffffff169050919050565b60006105688261072a565b90508073ffffffffffffffffffffffffffffffffffffffff168373ffffffffffffffffffffffffffffffffffffffff16036105d8576040517f08c379a00000000000000000000000000000000000000000000000000000000081526004016105cf90612154565b60405180910390fd5b8073ffffffffffffffffffffffffffffffffffffffff166105f7610bcc565b73ffffffffffffffffffffffffffffffffffffffff161480610626575061062581610620610bcc565b610a83565b5b610665576040517f08c379a000000000000000000000000000000000000000000000000000000000815260040161065c906121e6565b60405180910390fd5b61066f8383610bd4565b505050565b61068561067f610bcc565b82610c8d565b6106c4576040517f08c379a00000000000000000000000000000000000000000000000000000000081526004016106bb90612278565b60405180910390fd5b6106cf838383610d22565b505050565b6106ef8383836040518060200160405280600081525061090f565b505050565b600080610701600761101b565b905061070d3382611029565b6107178184611047565b61072160076110b4565b80915050919050565b600080610736836110ca565b9050600073ffffffffffffffffffffffffffffffffffffffff168173ffffffffffffffffffffffffffffffffffffffff16036107a7576040517f08c379a000000000000000000000000000000000000000000000000000000000815260040161079e906122e4565b60405180910390fd5b80915050919050565b60008073ffffffffffffffffffffffffffffffffffffffff168273ffffffffffffffffffffffffffffffffffffffff1603610820576040517f08c379a000000000000000000000000000000000000000000000000000000000815260040161081790612376565b60405180910390fd5b600360008373ffffffffffffffffffffffffffffffffffffffff1673ffffffffffffffffffffffffffffffffffffffff168152602001908152602001600020549050919050565b606060018054610876906120b1565b80601f01602080910402602001604051908101604052809291908181526020018280546108a2906120b1565b80156108ef5780601f106108c4576101008083540402835291602001916108ef565b820191906000526020600020905b8154815290600101906020018083116108d257829003601f168201915b5050505050905090565b61090b610904610bcc565b8383611107565b5050565b61092061091a610bcc565b83610c8d565b61095f576040517f08c379a000000000000000000000000000000000000000000000000000000000815260040161095690612278565b60405180910390fd5b61096b84848484611273565b50505050565b606061097c82610b81565b600060066000848152602001908152602001600020805461099c906120b1565b80601f01602080910402602001604051908101604052809291908181526020018280546109c8906120b1565b8015610a155780601f106109ea57610100808354040283529160200191610a15565b820191906000526020600020905b8154815290600101906020018083116109f857829003601f168201915b505050505090506000610a266112cf565b90506000815103610a3b578192505050610a7e565b600082511115610a70578082604051602001610a589291906123d2565b60405160208183030381529060405292505050610a7e565b610a79846112e6565b925050505b919050565b6000600560008473ffffffffffffffffffffffffffffffffffffffff1673ffffffffffffffffffffffffffffffffffffffff16815260200190815260200160002060008373ffffffffffffffffffffffffffffffffffffffff1673ffffffffffffffffffffffffffffffffffffffff16815260200190815260200160002060009054906101000a900460ff16905092915050565b60007f01ffc9a7000000000000000000000000000000000000000000000000000000007bffffffffffffffffffffffffffffffffffffffffffffffffffffffff1916827bffffffffffffffffffffffffffffffffffffffffffffffffffffffff1916149050919050565b610b8a8161134e565b610bc9576040517f08c379a0000000000000000000000000000000000000000000000000000000008152600401610bc0906122e4565b60405180910390fd5b50565b600033905090565b816004600083815260200190815260200160002060006101000a81548173ffffffffffffffffffffffffffffffffffffffff021916908373ffffffffffffffffffffffffffffffffffffffff160217905550808273ffffffffffffffffffffffffffffffffffffffff16610c478361072a565b73ffffffffffffffffffffffffffffffffffffffff167f8c5be1e5ebec7d5bd14f71427d1e84f3dd0314c0f7b2291e5b200ac8c7c3b92560405160405180910390a45050565b600080610c998361072a565b90508073ffffffffffffffffffffffffffffffffffffffff168473ffffffffffffffffffffffffffffffffffffffff161480610cdb5750610cda8185610a83565b5b80610d1957508373ffffffffffffffffffffffffffffffffffffffff16610d0184610517565b73ffffffffffffffffffffffffffffffffffffffff16145b91505092915050565b8273ffffffffffffffffffffffffffffffffffffffff16610d428261072a565b73ffffffffffffffffffffffffffffffffffffffff1614610d98576040517f08c379a0000000000000000000000000000000000000000000000000000000008152600401610d8f90612468565b60405180910390fd5b600073ffffffffffffffffffffffffffffffffffffffff168273ffffffffffffffffffffffffffffffffffffffff1603610e07576040517f08c379a0000000000000000000000000000000000000000000000000000000008152600401610dfe906124fa565b60405180910390fd5b610e14838383600161138f565b8273ffffffffffffffffffffffffffffffffffffffff16610e348261072a565b73ffffffffffffffffffffffffffffffffffffffff1614610e8a576040517f08c379a0000000000000000000000000000000000000000000000000000000008152600401610e8190612468565b60405180910390fd5b6004600082815260200190815260200160002060006101000a81549073ffffffffffffffffffffffffffffffffffffffff02191690556001600360008573ffffffffffffffffffffffffffffffffffffffff1673ffffffffffffffffffffffffffffffffffffffff168152602001908152602001600020600082825403925050819055506001600360008473ffffffffffffffffffffffffffffffffffffffff1673ffffffffffffffffffffffffffffffffffffffff16815260200190815260200160002060008282540192505081905550816002600083815260200190815260200160002060006101000a81548173ffffffffffffffffffffffffffffffffffffffff021916908373ffffffffffffffffffffffffffffffffffffffff160217905550808273ffffffffffffffffffffffffffffffffffffffff168473ffffffffffffffffffffffffffffffffffffffff167fddf252ad1be2c89b69c2b068fc378daa952ba7f163c4a11628f55a4df523b3ef60405160405180910390a46110168383836001611395565b505050565b600081600001549050919050565b61104382826040518060200160405280600081525061139b565b5050565b6110508261134e565b61108f576040517f08c379a00000000000000000000000000000000000000000000000000000000081526004016110869061258c565b60405180910390fd5b806006600084815260200190815260200160002090816110af9190612758565b505050565b6001816000016000828254019250508190555050565b60006002600083815260200190815260200160002060009054906101000a900473ffffffffffffffffffffffffffffffffffffffff169050919050565b8173ffffffffffffffffffffffffffffffffffffffff168373ffffffffffffffffffffffffffffffffffffffff1603611175576040517f08c379a000000000000000000000000000000000000000000000000000000000815260040161116c90612876565b60405180910390fd5b80600560008573ffffffffffffffffffffffffffffffffffffffff1673ffffffffffffffffffffffffffffffffffffffff16815260200190815260200160002060008473ffffffffffffffffffffffffffffffffffffffff1673ffffffffffffffffffffffffffffffffffffffff16815260200190815260200160002060006101000a81548160ff0219169083151502179055508173ffffffffffffffffffffffffffffffffffffffff168373ffffffffffffffffffffffffffffffffffffffff167f17307eab39ab6107e8899845ad3d59bd9653f200f220920489ca2b5937696c31836040516112669190611a92565b60405180910390a3505050565b61127e848484610d22565b61128a848484846113f6565b6112c9576040517f08c379a00000000000000000000000000000000000000000000000000000000081526004016112c090612908565b60405180910390fd5b50505050565b606060405180602001604052806000815250905090565b60606112f182610b81565b60006112fb6112cf565b9050600081511161131b5760405180602001604052806000815250611346565b806113258461157d565b6040516020016113369291906123d2565b6040516020818303038152906040525b915050919050565b60008073ffffffffffffffffffffffffffffffffffffffff16611370836110ca565b73ffffffffffffffffffffffffffffffffffffffff1614159050919050565b50505050565b50505050565b6113a5838361164b565b6113b260008484846113f6565b6113f1576040517f08c379a00000000000000000000000000000000000000000000000000000000081526004016113e890612908565b60405180910390fd5b505050565b60006114178473ffffffffffffffffffffffffffffffffffffffff16611868565b15611570578373ffffffffffffffffffffffffffffffffffffffff1663150b7a02611440610bcc565b8786866040518563ffffffff1660e01b8152600401611462949392919061297d565b6020604051808303816000875af192505050801561149e57506040513d601f19601f8201168201806040525081019061149b91906129de565b60015b611520573d80600081146114ce576040519150601f19603f3d011682016040523d82523d6000602084013e6114d3565b606091505b506000815103611518576040517f08c379a000000000000000000000000000000000000000000000000000000000815260040161150f90612908565b60405180910390fd5b805181602001fd5b63150b7a0260e01b7bffffffffffffffffffffffffffffffffffffffffffffffffffffffff1916817bffffffffffffffffffffffffffffffffffffffffffffffffffffffff191614915050611575565b600190505b949350505050565b60606000600161158c8461188b565b01905060008167ffffffffffffffff8111156115ab576115aa611ce7565b5b6040519080825280601f01601f1916602001820160405280156115dd5781602001600182028036833780820191505090505b509050600082602001820190505b600115611640578080600190039150507f3031323334353637383961626364656600000000000000000000000000000000600a86061a8153600a858161163457611633612a0b565b5b049450600085036115eb575b819350505050919050565b600073ffffffffffffffffffffffffffffffffffffffff168273ffffffffffffffffffffffffffffffffffffffff16036116ba576040517f08c379a00000000000000000000000000000000000000000000000000000000081526004016116b190612a86565b60405180910390fd5b6116c38161134e565b15611703576040517f08c379a00000000000000000000000000000000000000000000000000000000081526004016116fa90612af2565b60405180910390fd5b61171160008383600161138f565b61171a8161134e565b1561175a576040517f08c379a000000000000000000000000000000000000000000000000000000000815260040161175190612af2565b60405180910390fd5b6001600360008473ffffffffffffffffffffffffffffffffffffffff1673ffffffffffffffffffffffffffffffffffffffff16815260200190815260200160002060008282540192505081905550816002600083815260200190815260200160002060006101000a81548173ffffffffffffffffffffffffffffffffffffffff021916908373ffffffffffffffffffffffffffffffffffffffff160217905550808273ffffffffffffffffffffffffffffffffffffffff16600073ffffffffffffffffffffffffffffffffffffffff167fddf252ad1be2c89b69c2b068fc378daa952ba7f163c4a11628f55a4df523b3ef60405160405180910390a4611864600083836001611395565b5050565b6000808273ffffffffffffffffffffffffffffffffffffffff163b119050919050565b600080600090507a184f03e93ff9f4daa797ed6e38ed64bf6a1f01000000000000000083106118e9577a184f03e93ff9f4daa797ed6e38ed64bf6a1f01000000000000000083816118df576118de612a0b565b5b0492506040810190505b6d04ee2d6d415b85acef81000000008310611926576d04ee2d6d415b85acef8100000000838161191c5761191b612a0b565b5b0492506020810190505b662386f26fc10000831061195557662386f26fc10000838161194b5761194a612a0b565b5b0492506010810190505b6305f5e100831061197e576305f5e100838161197457611973612a0b565b5b0492506008810190505b61271083106119a357612710838161199957611998612a0b565b5b0492506004810190505b606483106119c657606483816119bc576119bb612a0b565b5b0492506002810190505b600a83106119d5576001810190505b80915050919050565b6000604051905090565b600080fd5b600080fd5b60007fffffffff0000000000000000000000000000000000000000000000000000000082169050919050565b611a27816119f2565b8114611a3257600080fd5b50565b600081359050611a4481611a1e565b92915050565b600060208284031215611a6057611a5f6119e8565b5b6000611a6e84828501611a35565b91505092915050565b60008115159050919050565b611a8c81611a77565b82525050565b6000602082019050611aa76000830184611a83565b92915050565b600081519050919050565b600082825260208201905092915050565b60005b83811015611ae7578082015181840152602081019050611acc565b60008484015250505050565b6000601f19601f8301169050919050565b6000611b0f82611aad565b611b198185611ab8565b9350611b29818560208601611ac9565b611b3281611af3565b840191505092915050565b60006020820190508181036000830152611b578184611b04565b905092915050565b6000819050919050565b611b7281611b5f565b8114611b7d57600080fd5b50565b600081359050611b8f81611b69565b92915050565b600060208284031215611bab57611baa6119e8565b5b6000611bb984828501611b80565b91505092915050565b600073ffffffffffffffffffffffffffffffffffffffff82169050919050565b6000611bed82611bc2565b9050919050565b611bfd81611be2565b82525050565b6000602082019050611c186000830184611bf4565b92915050565b611c2781611be2565b8114611c3257600080fd5b50565b600081359050611c4481611c1e565b92915050565b60008060408385031215611c6157611c606119e8565b5b6000611c6f85828601611c35565b9250506020611c8085828601611b80565b9150509250929050565b600080600060608486031215611ca357611ca26119e8565b5b6000611cb186828701611c35565b9350506020611cc286828701611c35565b9250506040611cd386828701611b80565b9150509250925092565b600080fd5b600080fd5b7f4e487b7100000000000000000000000000000000000000000000000000000000600052604160045260246000fd5b611d1f82611af3565b810181811067ffffffffffffffff82111715611d3e57611d3d611ce7565b5b80604052505050565b6000611d516119de565b9050611d5d8282611d16565b919050565b600067ffffffffffffffff821115611d7d57611d7c611ce7565b5b611d8682611af3565b9050602081019050919050565b82818337600083830152505050565b6000611db5611db084611d62565b611d47565b905082815260208101848484011115611dd157611dd0611ce2565b5b611ddc848285611d93565b509392505050565b600082601f830112611df957611df8611cdd565b5b8135611e09848260208601611da2565b91505092915050565b600060208284031215611e2857611e276119e8565b5b600082013567ffffffffffffffff811115611e4657611e456119ed565b5b611e5284828501611de4565b91505092915050565b611e6481611b5f565b82525050565b6000602082019050611e7f6000830184611e5b565b92915050565b600060208284031215611e9b57611e9a6119e8565b5b6000611ea984828501611c35565b91505092915050565b611ebb81611a77565b8114611ec657600080fd5b50565b600081359050611ed881611eb2565b92915050565b60008060408385031215611ef557611ef46119e8565b5b6000611f0385828601611c35565b9250506020611f1485828601611ec9565b9150509250929050565b600067ffffffffffffffff821115611f3957611f38611ce7565b5b611f4282611af3565b9050602081019050919050565b6000611f62611f5d84611f1e565b611d47565b905082815260208101848484011115611f7e57611f7d611ce2565b5b611f89848285611d93565b509392505050565b600082601f830112611fa657611fa5611cdd565b5b8135611fb6848260208601611f4f565b91505092915050565b60008060008060808587031215611fd957611fd86119e8565b5b6000611fe787828801611c35565b9450506020611ff887828801611c35565b935050604061200987828801611b80565b925050606085013567ffffffffffffffff81111561202a576120296119ed565b5b61203687828801611f91565b91505092959194509250565b60008060408385031215612059576120586119e8565b5b600061206785828601611c35565b925050602061207885828601611c35565b9150509250929050565b7f4e487b7100000000000000000000000000000000000000000000000000000000600052602260045260246000fd5b600060028204905060018216806120c957607f821691505b6020821081036120dc576120db612082565b5b50919050565b7f4552433732313a20617070726f76616c20746f2063757272656e74206f776e6560008201527f7200000000000000000000000000000000000000000000000000000000000000602082015250565b600061213e602183611ab8565b9150612149826120e2565b604082019050919050565b6000602082019050818103600083015261216d81612131565b9050919050565b7f4552433732313a20617070726f76652063616c6c6572206973206e6f7420746f60008201527f6b656e206f776e6572206f7220617070726f76656420666f7220616c6c000000602082015250565b60006121d0603d83611ab8565b91506121db82612174565b604082019050919050565b600060208201905081810360008301526121ff816121c3565b9050919050565b7f4552433732313a2063616c6c6572206973206e6f7420746f6b656e206f776e6560008201527f72206f7220617070726f76656400000000000000000000000000000000000000602082015250565b6000612262602d83611ab8565b915061226d82612206565b604082019050919050565b6000602082019050818103600083015261229181612255565b9050919050565b7f4552433732313a20696e76616c696420746f6b656e2049440000000000000000600082015250565b60006122ce601883611ab8565b91506122d982612298565b602082019050919050565b600060208201905081810360008301526122fd816122c1565b9050919050565b7f4552433732313a2061646472657373207a65726f206973206e6f74206120766160008201527f6c6964206f776e65720000000000000000000000000000000000000000000000602082015250565b6000612360602983611ab8565b915061236b82612304565b604082019050919050565b6000602082019050818103600083015261238f81612353565b9050919050565b600081905092915050565b60006123ac82611aad565b6123b68185612396565b93506123c6818560208601611ac9565b80840191505092915050565b60006123de82856123a1565b91506123ea82846123a1565b91508190509392505050565b7f4552433732313a207472616e736665722066726f6d20696e636f72726563742060008201527f6f776e6572000000000000000000000000000000000000000000000000000000602082015250565b6000612452602583611ab8565b915061245d826123f6565b604082019050919050565b6000602082019050818103600083015261248181612445565b9050919050565b7f4552433732313a207472616e7366657220746f20746865207a65726f2061646460008201527f7265737300000000000000000000000000000000000000000000000000000000602082015250565b60006124e4602483611ab8565b91506124ef82612488565b604082019050919050565b60006020820190508181036000830152612513816124d7565b9050919050565b7f45524337323155524953746f726167653a2055524920736574206f66206e6f6e60008201527f6578697374656e7420746f6b656e000000000000000000000000000000000000602082015250565b6000612576602e83611ab8565b91506125818261251a565b604082019050919050565b600060208201905081810360008301526125a581612569565b9050919050565b60008190508160005260206000209050919050565b60006020601f8301049050919050565b600082821b905092915050565b60006008830261260e7fffffffffffffffffffffffffffffffffffffffffffffffffffffffffffffffff826125d1565b61261886836125d1565b95508019841693508086168417925050509392505050565b6000819050919050565b600061265561265061264b84611b5f565b612630565b611b5f565b9050919050565b6000819050919050565b61266f8361263a565b61268361267b8261265c565b8484546125de565b825550505050565b600090565b61269861268b565b6126a3818484612666565b505050565b5b818110156126c7576126bc600082612690565b6001810190506126a9565b5050565b601f82111561270c576126dd816125ac565b6126e6846125c1565b810160208510156126f5578190505b612709612701856125c1565b8301826126a8565b50505b505050565b600082821c905092915050565b600061272f60001984600802612711565b1980831691505092915050565b6000612748838361271e565b9150826002028217905092915050565b61276182611aad565b67ffffffffffffffff81111561277a57612779611ce7565b5b61278482546120b1565b61278f8282856126cb565b600060209050601f8311600181146127c257600084156127b0578287015190505b6127ba858261273c565b865550612822565b601f1984166127d0866125ac565b60005b828110156127f8578489015182556001820191506020850194506020810190506127d3565b868310156128155784890151612811601f89168261271e565b8355505b6001600288020188555050505b505050505050565b7f4552433732313a20617070726f766520746f2063616c6c657200000000000000600082015250565b6000612860601983611ab8565b915061286b8261282a565b602082019050919050565b6000602082019050818103600083015261288f81612853565b9050919050565b7f4552433732313a207472616e7366657220746f206e6f6e20455243373231526560008201527f63656976657220696d706c656d656e7465720000000000000000000000000000602082015250565b60006128f2603283611ab8565b91506128fd82612896565b604082019050919050565b60006020820190508181036000830152612921816128e5565b9050919050565b600081519050919050565b600082825260208201905092915050565b600061294f82612928565b6129598185612933565b9350612969818560208601611ac9565b61297281611af3565b840191505092915050565b60006080820190506129926000830187611bf4565b61299f6020830186611bf4565b6129ac6040830185611e5b565b81810360608301526129be8184612944565b905095945050505050565b6000815190506129d881611a1e565b92915050565b6000602082840312156129f4576129f36119e8565b5b6000612a02848285016129c9565b91505092915050565b7f4e487b7100000000000000000000000000000000000000000000000000000000600052601260045260246000fd5b7f4552433732313a206d696e7420746f20746865207a65726f2061646472657373600082015250565b6000612a70602083611ab8565b9150612a7b82612a3a565b602082019050919050565b60006020820190508181036000830152612a9f81612a63565b9050919050565b7f4552433732313a20746f6b656e20616c7265616479206d696e74656400000000600082015250565b6000612adc601c83611ab8565b9150612ae782612aa6565b602082019050919050565b60006020820190508181036000830152612b0b81612acf565b905091905056fea264697066735822122035d2f94a2836a9c4f367f038e45f41d1c7f3637ff2f3e708114013d89420343664736f6c63430008120033a264697066735822122066ec3dc8725927e6e327551a4f3c42766e47dfd2b4f6842f064fb5d203d31e9064736f6c63430008120033",
  "linkReferences": {},
  "deployedLinkReferences": {}
}